{
  "contractName": "KIA",
  "abi": [
    {
      "inputs": [
        {
          "internalType": "address",
          "name": "owner",
          "type": "address"
        },
        {
          "internalType": "uint256",
          "name": "initSupply",
          "type": "uint256"
        },
        {
          "internalType": "string",
          "name": "tokenName",
          "type": "string"
        },
        {
          "internalType": "string",
          "name": "tokenSymbol",
          "type": "string"
        },
        {
          "internalType": "uint8",
          "name": "decimalUnits",
          "type": "uint8"
        }
      ],
      "stateMutability": "nonpayable",
      "type": "constructor"
    },
    {
      "inputs": [],
      "name": "ownerToken",
      "outputs": [
        {
          "internalType": "address",
          "name": "",
          "type": "address"
        }
      ],
      "stateMutability": "view",
      "type": "function"
    },
    {
      "inputs": [
        {
          "internalType": "uint256",
          "name": "rate",
          "type": "uint256"
        }
      ],
      "name": "BuyToken",
      "outputs": [],
      "stateMutability": "payable",
      "type": "function"
    }
  ],
  "bytecode": "0x60806040523480156200001157600080fd5b5060405162001eae38038062001eae833981810160405281019062000037919062000193565b84848484846040516200004a90620000c2565b6200005a959493929190620002cd565b604051809103906000f08015801562000077573d6000803e3d6000fd5b506000806101000a81548173ffffffffffffffffffffffffffffffffffffffff021916908373ffffffffffffffffffffffffffffffffffffffff16021790555050505050506200050c565b61153c806200097283390190565b6000620000e7620000e18462000361565b62000338565b9050828152602081018484840111156200010657620001056200049e565b5b62000113848285620003fe565b509392505050565b6000815190506200012c81620004be565b92915050565b600082601f8301126200014a576200014962000499565b5b81516200015c848260208601620000d0565b91505092915050565b6000815190506200017681620004d8565b92915050565b6000815190506200018d81620004f2565b92915050565b600080600080600060a08688031215620001b257620001b1620004a8565b5b6000620001c2888289016200011b565b9550506020620001d58882890162000165565b945050604086015167ffffffffffffffff811115620001f957620001f8620004a3565b5b620002078882890162000132565b935050606086015167ffffffffffffffff8111156200022b576200022a620004a3565b5b620002398882890162000132565b92505060806200024c888289016200017c565b9150509295509295909350565b6200026481620003b3565b82525050565b6000620002778262000397565b620002838185620003a2565b935062000295818560208601620003fe565b620002a081620004ad565b840191505092915050565b620002b681620003e7565b82525050565b620002c781620003f1565b82525050565b600060a082019050620002e4600083018862000259565b620002f36020830187620002ab565b81810360408301526200030781866200026a565b905081810360608301526200031d81856200026a565b90506200032e6080830184620002bc565b9695505050505050565b60006200034462000357565b905062000352828262000434565b919050565b6000604051905090565b600067ffffffffffffffff8211156200037f576200037e6200046a565b5b6200038a82620004ad565b9050602081019050919050565b600081519050919050565b600082825260208201905092915050565b6000620003c082620003c7565b9050919050565b600073ffffffffffffffffffffffffffffffffffffffff82169050919050565b6000819050919050565b600060ff82169050919050565b60005b838110156200041e57808201518184015260208101905062000401565b838111156200042e576000848401525b50505050565b6200043f82620004ad565b810181811067ffffffffffffffff821117156200046157620004606200046a565b5b80604052505050565b7f4e487b7100000000000000000000000000000000000000000000000000000000600052604160045260246000fd5b600080fd5b600080fd5b600080fd5b600080fd5b6000601f19601f8301169050919050565b620004c981620003b3565b8114620004d557600080fd5b50565b620004e381620003e7565b8114620004ef57600080fd5b50565b620004fd81620003f1565b81146200050957600080fd5b50565b610456806200051c6000396000f3fe6080604052600436106100295760003560e01c8063653718831461002e578063fcb0368c14610059575b600080fd5b34801561003a57600080fd5b50610043610075565b60405161005091906102c1565b60405180910390f35b610073600480360381019061006e9190610276565b61011b565b005b60008060009054906101000a900473ffffffffffffffffffffffffffffffffffffffff1673ffffffffffffffffffffffffffffffffffffffff16638da5cb5b6040518163ffffffff1660e01b815260040160206040518083038186803b1580156100de57600080fd5b505afa1580156100f2573d6000803e3d6000fd5b505050506040513d601f19601f82011682018060405250810190610116919061021c565b905090565b600081346101299190610305565b905060008054906101000a900473ffffffffffffffffffffffffffffffffffffffff1673ffffffffffffffffffffffffffffffffffffffff1663a9059cbb33836040518363ffffffff1660e01b81526004016101869291906102dc565b602060405180830381600087803b1580156101a057600080fd5b505af11580156101b4573d6000803e3d6000fd5b505050506040513d601f19601f820116820180604052508101906101d89190610249565b505050565b6000815190506101ec816103db565b92915050565b600081519050610201816103f2565b92915050565b60008135905061021681610409565b92915050565b600060208284031215610232576102316103d6565b5b6000610240848285016101dd565b91505092915050565b60006020828403121561025f5761025e6103d6565b5b600061026d848285016101f2565b91505092915050565b60006020828403121561028c5761028b6103d6565b5b600061029a84828501610207565b91505092915050565b6102ac8161035f565b82525050565b6102bb8161039d565b82525050565b60006020820190506102d660008301846102a3565b92915050565b60006040820190506102f160008301856102a3565b6102fe60208301846102b2565b9392505050565b60006103108261039d565b915061031b8361039d565b9250817fffffffffffffffffffffffffffffffffffffffffffffffffffffffffffffffff0483118215151615610354576103536103a7565b5b828202905092915050565b600061036a8261037d565b9050919050565b60008115159050919050565b600073ffffffffffffffffffffffffffffffffffffffff82169050919050565b6000819050919050565b7f4e487b7100000000000000000000000000000000000000000000000000000000600052601160045260246000fd5b600080fd5b6103e48161035f565b81146103ef57600080fd5b50565b6103fb81610371565b811461040657600080fd5b50565b6104128161039d565b811461041d57600080fd5b5056fea26469706673582212205f946bc7ec7c13567196bbe4462f37f78e42b7f5ce8a31b79a5925c291d8a59664736f6c6343000807003360806040523480156200001157600080fd5b506040516200153c3803806200153c83398181016040528101906200003791906200027d565b83600560008773ffffffffffffffffffffffffffffffffffffffff1673ffffffffffffffffffffffffffffffffffffffff168152602001908152602001600020819055508360008190555082600190805190602001906200009a9291906200010a565b508160029080519060200190620000b39291906200010a565b508060ff1660038190555084600460006101000a81548173ffffffffffffffffffffffffffffffffffffffff021916908373ffffffffffffffffffffffffffffffffffffffff160217905550505050505062000560565b828054620001189062000423565b90600052602060002090601f0160209004810192826200013c576000855562000188565b82601f106200015757805160ff191683800117855562000188565b8280016001018555821562000188579182015b82811115620001875782518255916020019190600101906200016a565b5b5090506200019791906200019b565b5090565b5b80821115620001b65760008160009055506001016200019c565b5090565b6000620001d1620001cb846200036c565b62000343565b905082815260208101848484011115620001f057620001ef620004f2565b5b620001fd848285620003ed565b509392505050565b600081519050620002168162000512565b92915050565b600082601f830112620002345762000233620004ed565b5b815162000246848260208601620001ba565b91505092915050565b60008151905062000260816200052c565b92915050565b600081519050620002778162000546565b92915050565b600080600080600060a086880312156200029c576200029b620004fc565b5b6000620002ac8882890162000205565b9550506020620002bf888289016200024f565b945050604086015167ffffffffffffffff811115620002e357620002e2620004f7565b5b620002f1888289016200021c565b935050606086015167ffffffffffffffff811115620003155762000314620004f7565b5b62000323888289016200021c565b9250506080620003368882890162000266565b9150509295509295909350565b60006200034f62000362565b90506200035d828262000459565b919050565b6000604051905090565b600067ffffffffffffffff8211156200038a5762000389620004be565b5b620003958262000501565b9050602081019050919050565b6000620003af82620003b6565b9050919050565b600073ffffffffffffffffffffffffffffffffffffffff82169050919050565b6000819050919050565b600060ff82169050919050565b60005b838110156200040d578082015181840152602081019050620003f0565b838111156200041d576000848401525b50505050565b600060028204905060018216806200043c57607f821691505b602082108114156200045357620004526200048f565b5b50919050565b620004648262000501565b810181811067ffffffffffffffff82111715620004865762000485620004be565b5b80604052505050565b7f4e487b7100000000000000000000000000000000000000000000000000000000600052602260045260246000fd5b7f4e487b7100000000000000000000000000000000000000000000000000000000600052604160045260246000fd5b600080fd5b600080fd5b600080fd5b600080fd5b6000601f19601f8301169050919050565b6200051d81620003a2565b81146200052957600080fd5b50565b6200053781620003d6565b81146200054357600080fd5b50565b6200055181620003e0565b81146200055d57600080fd5b50565b610fcc80620005706000396000f3fe608060405234801561001057600080fd5b50600436106100935760003560e01c8063626be56711610066578063626be567146101345780638da5cb5b1461015257806395d89b4114610170578063a9059cbb1461018e578063e3d670d7146101be57610093565b806306fdde031461009857806323b872dd146100b6578063313ce567146100e65780635c65816514610104575b600080fd5b6100a06101ee565b6040516100ad9190610c40565b60405180910390f35b6100d060048036038101906100cb9190610a85565b61027c565b6040516100dd9190610c25565b60405180910390f35b6100ee61065a565b6040516100fb9190610ce2565b60405180910390f35b61011e60048036038101906101199190610a45565b610660565b60405161012b9190610ce2565b60405180910390f35b61013c610685565b6040516101499190610ce2565b60405180910390f35b61015a61068b565b6040516101679190610c0a565b60405180910390f35b6101786106b5565b6040516101859190610c40565b60405180910390f35b6101a860048036038101906101a39190610ad8565b610743565b6040516101b59190610c25565b60405180910390f35b6101d860048036038101906101d39190610a18565b610973565b6040516101e59190610ce2565b60405180910390f35b600180546101fb90610e1e565b80601f016020809104026020016040519081016040528092919081815260200182805461022790610e1e565b80156102745780601f1061024957610100808354040283529160200191610274565b820191906000526020600020905b81548152906001019060200180831161025757829003601f168201915b505050505081565b600082848360008111156102c5576040517f08c379a00000000000000000000000000000000000000000000000000000000081526004016102bc90610cc2565b60405180910390fd5b80600560008473ffffffffffffffffffffffffffffffffffffffff1673ffffffffffffffffffffffffffffffffffffffff1681526020019081526020016000205410610346576040517f08c379a000000000000000000000000000000000000000000000000000000000815260040161033d90610c82565b60405180910390fd5b600560008473ffffffffffffffffffffffffffffffffffffffff1673ffffffffffffffffffffffffffffffffffffffff1681526020019081526020016000205481600560008673ffffffffffffffffffffffffffffffffffffffff1673ffffffffffffffffffffffffffffffffffffffff168152602001908152602001600020546103d19190610d19565b10610411576040517f08c379a000000000000000000000000000000000000000000000000000000000815260040161040890610c62565b60405180910390fd5b600660008373ffffffffffffffffffffffffffffffffffffffff1673ffffffffffffffffffffffffffffffffffffffff16815260200190815260200160002060003373ffffffffffffffffffffffffffffffffffffffff1673ffffffffffffffffffffffffffffffffffffffff1681526020019081526020016000205481116104cf576040517f08c379a00000000000000000000000000000000000000000000000000000000081526004016104c690610ca2565b60405180910390fd5b610518600560003373ffffffffffffffffffffffffffffffffffffffff1673ffffffffffffffffffffffffffffffffffffffff168152602001908152602001600020548661098b565b600560008973ffffffffffffffffffffffffffffffffffffffff1673ffffffffffffffffffffffffffffffffffffffff168152602001908152602001600020819055506105a4600560008873ffffffffffffffffffffffffffffffffffffffff1673ffffffffffffffffffffffffffffffffffffffff16815260200190815260200160002054866109ad565b600560008873ffffffffffffffffffffffffffffffffffffffff1673ffffffffffffffffffffffffffffffffffffffff168152602001908152602001600020819055508573ffffffffffffffffffffffffffffffffffffffff168773ffffffffffffffffffffffffffffffffffffffff167fddf252ad1be2c89b69c2b068fc378daa952ba7f163c4a11628f55a4df523b3ef876040516106449190610ce2565b60405180910390a3600193505050509392505050565b60035481565b6006602052816000526040600020602052806000526040600020600091509150505481565b60005481565b6000600460009054906101000a900473ffffffffffffffffffffffffffffffffffffffff16905090565b600280546106c290610e1e565b80601f01602080910402602001604051908101604052809291908181526020018280546106ee90610e1e565b801561073b5780601f106107105761010080835404028352916020019161073b565b820191906000526020600020905b81548152906001019060200180831161071e57829003601f168201915b505050505081565b60008282600081111561075557600080fd5b600560008373ffffffffffffffffffffffffffffffffffffffff1673ffffffffffffffffffffffffffffffffffffffff1681526020019081526020016000205481600560008573ffffffffffffffffffffffffffffffffffffffff1673ffffffffffffffffffffffffffffffffffffffff168152602001908152602001600020546107e09190610d19565b106107ea57600080fd5b610833600560003373ffffffffffffffffffffffffffffffffffffffff1673ffffffffffffffffffffffffffffffffffffffff168152602001908152602001600020548561098b565b600560003373ffffffffffffffffffffffffffffffffffffffff1673ffffffffffffffffffffffffffffffffffffffff168152602001908152602001600020819055506108bf600560008773ffffffffffffffffffffffffffffffffffffffff1673ffffffffffffffffffffffffffffffffffffffff16815260200190815260200160002054856109ad565b600560008773ffffffffffffffffffffffffffffffffffffffff1673ffffffffffffffffffffffffffffffffffffffff168152602001908152602001600020819055508473ffffffffffffffffffffffffffffffffffffffff163373ffffffffffffffffffffffffffffffffffffffff167fddf252ad1be2c89b69c2b068fc378daa952ba7f163c4a11628f55a4df523b3ef8660405161095f9190610ce2565b60405180910390a360019250505092915050565b60056020528060005260406000206000915090505481565b6000610999838311156109e0565b81836109a59190610d6f565b905092915050565b60008082846109bc9190610d19565b90506109d68482101580156109d15750838210155b6109e0565b8091505092915050565b80156109eb57600080fd5b50565b6000813590506109fd81610f68565b92915050565b600081359050610a1281610f7f565b92915050565b600060208284031215610a2e57610a2d610eae565b5b6000610a3c848285016109ee565b91505092915050565b60008060408385031215610a5c57610a5b610eae565b5b6000610a6a858286016109ee565b9250506020610a7b858286016109ee565b9150509250929050565b600080600060608486031215610a9e57610a9d610eae565b5b6000610aac868287016109ee565b9350506020610abd868287016109ee565b9250506040610ace86828701610a03565b9150509250925092565b60008060408385031215610aef57610aee610eae565b5b6000610afd858286016109ee565b9250506020610b0e85828601610a03565b9150509250929050565b610b2181610da3565b82525050565b610b3081610db5565b82525050565b6000610b4182610cfd565b610b4b8185610d08565b9350610b5b818560208601610deb565b610b6481610eb3565b840191505092915050565b6000610b7c601083610d08565b9150610b8782610ec4565b602082019050919050565b6000610b9f601783610d08565b9150610baa82610eed565b602082019050919050565b6000610bc2601983610d08565b9150610bcd82610f16565b602082019050919050565b6000610be5601583610d08565b9150610bf082610f3f565b602082019050919050565b610c0481610de1565b82525050565b6000602082019050610c1f6000830184610b18565b92915050565b6000602082019050610c3a6000830184610b27565b92915050565b60006020820190508181036000830152610c5a8184610b36565b905092915050565b60006020820190508181036000830152610c7b81610b6f565b9050919050565b60006020820190508181036000830152610c9b81610b92565b9050919050565b60006020820190508181036000830152610cbb81610bb5565b9050919050565b60006020820190508181036000830152610cdb81610bd8565b9050919050565b6000602082019050610cf76000830184610bfb565b92915050565b600081519050919050565b600082825260208201905092915050565b6000610d2482610de1565b9150610d2f83610de1565b9250827fffffffffffffffffffffffffffffffffffffffffffffffffffffffffffffffff03821115610d6457610d63610e50565b5b828201905092915050565b6000610d7a82610de1565b9150610d8583610de1565b925082821015610d9857610d97610e50565b5b828203905092915050565b6000610dae82610dc1565b9050919050565b60008115159050919050565b600073ffffffffffffffffffffffffffffffffffffffff82169050919050565b6000819050919050565b60005b83811015610e09578082015181840152602081019050610dee565b83811115610e18576000848401525b50505050565b60006002820490506001821680610e3657607f821691505b60208210811415610e4a57610e49610e7f565b5b50919050565b7f4e487b7100000000000000000000000000000000000000000000000000000000600052601160045260246000fd5b7f4e487b7100000000000000000000000000000000000000000000000000000000600052602260045260246000fd5b600080fd5b6000601f19601f8301169050919050565b7f206f766572666c6f77204572726f722000000000000000000000000000000000600082015250565b7f206e6f74206861766520656e6f756768206d6f6e657920000000000000000000600082015250565b7f206920646f6e74206b6e6f77207768617473206572726f722000000000000000600082015250565b7f2076616c75652063616e206e6f74206265203020200000000000000000000000600082015250565b610f7181610da3565b8114610f7c57600080fd5b50565b610f8881610de1565b8114610f9357600080fd5b5056fea2646970667358221220b09f128fb98b184a3fc4b6994c915c353071265e71ac304a60dc44997c62580264736f6c63430008070033",
  "immutableReferences": {},
  "source": "// SPDX-License-Identifier: MIT\r\npragma solidity 0.8.7;\r\n\r\nimport \"./Token.sol\";\r\n\r\ncontract KIA {\r\n    \r\n    Token private token;\r\n\r\n    constructor(\r\n        address owner,\r\n        uint256 initSupply,\r\n        string memory tokenName,\r\n        string memory tokenSymbol,\r\n        uint8 decimalUnits\r\n    ) {\r\n        token = new Token(owner, initSupply, tokenName, tokenSymbol, decimalUnits);\r\n    }\r\n\r\n    function ownerToken() external view returns (address) {\r\n        return token.owner();\r\n    }\r\n\r\n    function BuyToken(uint256 rate) external payable {\r\n        uint256 tokenAmount = msg.value * rate;\r\n        token.transfer(msg.sender, tokenAmount);\r\n    }\r\n}\r\n",
  "sourcePath": "C:\\Projects\\ETB\\src\\contracts\\KIA.sol",
  "compiler": {
    "name": "solc",
    "version": "0.8.7+commit.e28d00a7.Emscripten.clang"
  },
  "schemaVersion": "3.4.3",
  "updatedAt": "2021-09-02T14:07:45.832Z",
  "devdoc": {
    "kind": "dev",
    "methods": {},
    "version": 1
  },
  "userdoc": {
    "kind": "user",
    "methods": {},
    "version": 1
  }
}