{"abi":[{"inputs":[{"internalType":"address","name":"owner","type":"address"},{"internalType":"uint256","name":"initSupply","type":"uint256"},{"internalType":"string","name":"tokenName","type":"string"},{"internalType":"string","name":"tokenSymbol","type":"string"},{"internalType":"uint8","name":"decimalUnits","type":"uint8"}],"stateMutability":"nonpayable","type":"constructor"},{"inputs":[{"internalType":"uint256","name":"rate","type":"uint256"}],"name":"BuyToken","outputs":[],"stateMutability":"payable","type":"function"},{"inputs":[],"name":"ownerToken","outputs":[{"internalType":"address","name":"","type":"address"}],"stateMutability":"view","type":"function"}],"devdoc":{"kind":"dev","methods":{},"version":1},"evm":{"assembly":"    /* \"KIA.sol\":84:664  contract KIA {\r... */\n  mstore(0x40, 0x80)\n    /* \"KIA.sol\":132:396  constructor(\r... */\n  callvalue\n  dup1\n  iszero\n  tag_1\n  jumpi\n  0x00\n  dup1\n  revert\ntag_1:\n  pop\n  mload(0x40)\n  sub(codesize, bytecodeSize)\n  dup1\n  bytecodeSize\n  dup4\n  codecopy\n  dup2\n  dup2\n  add\n  0x40\n  mstore\n  dup2\n  add\n  swap1\n  tag_2\n  swap2\n  swap1\n  tag_3\n  jump\t// in\ntag_2:\n    /* \"KIA.sol\":332:337  owner */\n  dup5\n    /* \"KIA.sol\":339:349  initSupply */\n  dup5\n    /* \"KIA.sol\":351:360  tokenName */\n  dup5\n    /* \"KIA.sol\":362:373  tokenSymbol */\n  dup5\n    /* \"KIA.sol\":375:387  decimalUnits */\n  dup5\n    /* \"KIA.sol\":322:388  new Token(owner, initSupply, tokenName, tokenSymbol, decimalUnits) */\n  mload(0x40)\n  tag_6\n  swap1\n  tag_7\n  jump\t// in\ntag_6:\n  tag_8\n  swap6\n  swap5\n  swap4\n  swap3\n  swap2\n  swap1\n  tag_9\n  jump\t// in\ntag_8:\n  mload(0x40)\n  dup1\n  swap2\n  sub\n  swap1\n  0x00\n  create\n  dup1\n  iszero\n  dup1\n  iszero\n  tag_10\n  jumpi\n  returndatasize\n  0x00\n  dup1\n  returndatacopy\n  revert(0x00, returndatasize)\ntag_10:\n  pop\n    /* \"KIA.sol\":314:319  token */\n  0x00\n  dup1\n    /* \"KIA.sol\":314:388  token = new Token(owner, initSupply, tokenName, tokenSymbol, decimalUnits) */\n  0x0100\n  exp\n  dup2\n  sload\n  dup2\n  0xffffffffffffffffffffffffffffffffffffffff\n  mul\n  not\n  and\n  swap1\n  dup4\n  0xffffffffffffffffffffffffffffffffffffffff\n  and\n  mul\n  or\n  swap1\n  sstore\n  pop\n    /* \"KIA.sol\":132:396  constructor(\r... */\n  pop\n  pop\n  pop\n  pop\n  pop\n    /* \"KIA.sol\":84:664  contract KIA {\r... */\n  jump(tag_11)\ntag_7:\n  dataSize(sub_1)\n  dup1\n  dataOffset(sub_1)\n  dup4\n  codecopy\n  add\n  swap1\n  jump\t// out\n    /* \"#utility.yul\":7:428   */\ntag_13:\n    /* \"#utility.yul\":96:101   */\n  0x00\n    /* \"#utility.yul\":121:187   */\n  tag_15\n    /* \"#utility.yul\":137:186   */\n  tag_16\n    /* \"#utility.yul\":179:185   */\n  dup5\n    /* \"#utility.yul\":137:186   */\n  tag_17\n  jump\t// in\ntag_16:\n    /* \"#utility.yul\":121:187   */\n  tag_18\n  jump\t// in\ntag_15:\n    /* \"#utility.yul\":112:187   */\n  swap1\n  pop\n    /* \"#utility.yul\":210:216   */\n  dup3\n    /* \"#utility.yul\":203:208   */\n  dup2\n    /* \"#utility.yul\":196:217   */\n  mstore\n    /* \"#utility.yul\":248:252   */\n  0x20\n    /* \"#utility.yul\":241:246   */\n  dup2\n    /* \"#utility.yul\":237:253   */\n  add\n    /* \"#utility.yul\":286:289   */\n  dup5\n    /* \"#utility.yul\":277:283   */\n  dup5\n    /* \"#utility.yul\":272:275   */\n  dup5\n    /* \"#utility.yul\":268:284   */\n  add\n    /* \"#utility.yul\":265:290   */\n  gt\n    /* \"#utility.yul\":262:374   */\n  iszero\n  tag_19\n  jumpi\n    /* \"#utility.yul\":293:372   */\n  tag_20\n  tag_21\n  jump\t// in\ntag_20:\n    /* \"#utility.yul\":262:374   */\ntag_19:\n    /* \"#utility.yul\":383:422   */\n  tag_22\n    /* \"#utility.yul\":415:421   */\n  dup5\n    /* \"#utility.yul\":410:413   */\n  dup3\n    /* \"#utility.yul\":405:408   */\n  dup6\n    /* \"#utility.yul\":383:422   */\n  tag_23\n  jump\t// in\ntag_22:\n    /* \"#utility.yul\":102:428   */\n  pop\n    /* \"#utility.yul\":7:428   */\n  swap4\n  swap3\n  pop\n  pop\n  pop\n  jump\t// out\n    /* \"#utility.yul\":434:577   */\ntag_24:\n    /* \"#utility.yul\":491:496   */\n  0x00\n    /* \"#utility.yul\":522:528   */\n  dup2\n    /* \"#utility.yul\":516:529   */\n  mload\n    /* \"#utility.yul\":507:529   */\n  swap1\n  pop\n    /* \"#utility.yul\":538:571   */\n  tag_26\n    /* \"#utility.yul\":565:570   */\n  dup2\n    /* \"#utility.yul\":538:571   */\n  tag_27\n  jump\t// in\ntag_26:\n    /* \"#utility.yul\":434:577   */\n  swap3\n  swap2\n  pop\n  pop\n  jump\t// out\n    /* \"#utility.yul\":597:952   */\ntag_28:\n    /* \"#utility.yul\":664:669   */\n  0x00\n    /* \"#utility.yul\":713:716   */\n  dup3\n    /* \"#utility.yul\":706:710   */\n  0x1f\n    /* \"#utility.yul\":698:704   */\n  dup4\n    /* \"#utility.yul\":694:711   */\n  add\n    /* \"#utility.yul\":690:717   */\n  slt\n    /* \"#utility.yul\":680:802   */\n  tag_30\n  jumpi\n    /* \"#utility.yul\":721:800   */\n  tag_31\n  tag_32\n  jump\t// in\ntag_31:\n    /* \"#utility.yul\":680:802   */\ntag_30:\n    /* \"#utility.yul\":831:837   */\n  dup2\n    /* \"#utility.yul\":825:838   */\n  mload\n    /* \"#utility.yul\":856:946   */\n  tag_33\n    /* \"#utility.yul\":942:945   */\n  dup5\n    /* \"#utility.yul\":934:940   */\n  dup3\n    /* \"#utility.yul\":927:931   */\n  0x20\n    /* \"#utility.yul\":919:925   */\n  dup7\n    /* \"#utility.yul\":915:932   */\n  add\n    /* \"#utility.yul\":856:946   */\n  tag_13\n  jump\t// in\ntag_33:\n    /* \"#utility.yul\":847:946   */\n  swap2\n  pop\n    /* \"#utility.yul\":670:952   */\n  pop\n    /* \"#utility.yul\":597:952   */\n  swap3\n  swap2\n  pop\n  pop\n  jump\t// out\n    /* \"#utility.yul\":958:1101   */\ntag_34:\n    /* \"#utility.yul\":1015:1020   */\n  0x00\n    /* \"#utility.yul\":1046:1052   */\n  dup2\n    /* \"#utility.yul\":1040:1053   */\n  mload\n    /* \"#utility.yul\":1031:1053   */\n  swap1\n  pop\n    /* \"#utility.yul\":1062:1095   */\n  tag_36\n    /* \"#utility.yul\":1089:1094   */\n  dup2\n    /* \"#utility.yul\":1062:1095   */\n  tag_37\n  jump\t// in\ntag_36:\n    /* \"#utility.yul\":958:1101   */\n  swap3\n  swap2\n  pop\n  pop\n  jump\t// out\n    /* \"#utility.yul\":1107:1246   */\ntag_38:\n    /* \"#utility.yul\":1162:1167   */\n  0x00\n    /* \"#utility.yul\":1193:1199   */\n  dup2\n    /* \"#utility.yul\":1187:1200   */\n  mload\n    /* \"#utility.yul\":1178:1200   */\n  swap1\n  pop\n    /* \"#utility.yul\":1209:1240   */\n  tag_40\n    /* \"#utility.yul\":1234:1239   */\n  dup2\n    /* \"#utility.yul\":1209:1240   */\n  tag_41\n  jump\t// in\ntag_40:\n    /* \"#utility.yul\":1107:1246   */\n  swap3\n  swap2\n  pop\n  pop\n  jump\t// out\n    /* \"#utility.yul\":1252:2571   */\ntag_3:\n    /* \"#utility.yul\":1376:1382   */\n  0x00\n    /* \"#utility.yul\":1384:1390   */\n  dup1\n    /* \"#utility.yul\":1392:1398   */\n  0x00\n    /* \"#utility.yul\":1400:1406   */\n  dup1\n    /* \"#utility.yul\":1408:1414   */\n  0x00\n    /* \"#utility.yul\":1457:1460   */\n  0xa0\n    /* \"#utility.yul\":1445:1454   */\n  dup7\n    /* \"#utility.yul\":1436:1443   */\n  dup9\n    /* \"#utility.yul\":1432:1455   */\n  sub\n    /* \"#utility.yul\":1428:1461   */\n  slt\n    /* \"#utility.yul\":1425:1545   */\n  iszero\n  tag_43\n  jumpi\n    /* \"#utility.yul\":1464:1543   */\n  tag_44\n  tag_45\n  jump\t// in\ntag_44:\n    /* \"#utility.yul\":1425:1545   */\ntag_43:\n    /* \"#utility.yul\":1584:1585   */\n  0x00\n    /* \"#utility.yul\":1609:1673   */\n  tag_46\n    /* \"#utility.yul\":1665:1672   */\n  dup9\n    /* \"#utility.yul\":1656:1662   */\n  dup3\n    /* \"#utility.yul\":1645:1654   */\n  dup10\n    /* \"#utility.yul\":1641:1663   */\n  add\n    /* \"#utility.yul\":1609:1673   */\n  tag_24\n  jump\t// in\ntag_46:\n    /* \"#utility.yul\":1599:1673   */\n  swap6\n  pop\n    /* \"#utility.yul\":1555:1683   */\n  pop\n    /* \"#utility.yul\":1722:1724   */\n  0x20\n    /* \"#utility.yul\":1748:1812   */\n  tag_47\n    /* \"#utility.yul\":1804:1811   */\n  dup9\n    /* \"#utility.yul\":1795:1801   */\n  dup3\n    /* \"#utility.yul\":1784:1793   */\n  dup10\n    /* \"#utility.yul\":1780:1802   */\n  add\n    /* \"#utility.yul\":1748:1812   */\n  tag_34\n  jump\t// in\ntag_47:\n    /* \"#utility.yul\":1738:1812   */\n  swap5\n  pop\n    /* \"#utility.yul\":1693:1822   */\n  pop\n    /* \"#utility.yul\":1882:1884   */\n  0x40\n    /* \"#utility.yul\":1871:1880   */\n  dup7\n    /* \"#utility.yul\":1867:1885   */\n  add\n    /* \"#utility.yul\":1861:1886   */\n  mload\n    /* \"#utility.yul\":1913:1931   */\n  0xffffffffffffffff\n    /* \"#utility.yul\":1905:1911   */\n  dup2\n    /* \"#utility.yul\":1902:1932   */\n  gt\n    /* \"#utility.yul\":1899:2016   */\n  iszero\n  tag_48\n  jumpi\n    /* \"#utility.yul\":1935:2014   */\n  tag_49\n  tag_50\n  jump\t// in\ntag_49:\n    /* \"#utility.yul\":1899:2016   */\ntag_48:\n    /* \"#utility.yul\":2040:2114   */\n  tag_51\n    /* \"#utility.yul\":2106:2113   */\n  dup9\n    /* \"#utility.yul\":2097:2103   */\n  dup3\n    /* \"#utility.yul\":2086:2095   */\n  dup10\n    /* \"#utility.yul\":2082:2104   */\n  add\n    /* \"#utility.yul\":2040:2114   */\n  tag_28\n  jump\t// in\ntag_51:\n    /* \"#utility.yul\":2030:2114   */\n  swap4\n  pop\n    /* \"#utility.yul\":1832:2124   */\n  pop\n    /* \"#utility.yul\":2184:2186   */\n  0x60\n    /* \"#utility.yul\":2173:2182   */\n  dup7\n    /* \"#utility.yul\":2169:2187   */\n  add\n    /* \"#utility.yul\":2163:2188   */\n  mload\n    /* \"#utility.yul\":2215:2233   */\n  0xffffffffffffffff\n    /* \"#utility.yul\":2207:2213   */\n  dup2\n    /* \"#utility.yul\":2204:2234   */\n  gt\n    /* \"#utility.yul\":2201:2318   */\n  iszero\n  tag_52\n  jumpi\n    /* \"#utility.yul\":2237:2316   */\n  tag_53\n  tag_50\n  jump\t// in\ntag_53:\n    /* \"#utility.yul\":2201:2318   */\ntag_52:\n    /* \"#utility.yul\":2342:2416   */\n  tag_54\n    /* \"#utility.yul\":2408:2415   */\n  dup9\n    /* \"#utility.yul\":2399:2405   */\n  dup3\n    /* \"#utility.yul\":2388:2397   */\n  dup10\n    /* \"#utility.yul\":2384:2406   */\n  add\n    /* \"#utility.yul\":2342:2416   */\n  tag_28\n  jump\t// in\ntag_54:\n    /* \"#utility.yul\":2332:2416   */\n  swap3\n  pop\n    /* \"#utility.yul\":2134:2426   */\n  pop\n    /* \"#utility.yul\":2465:2468   */\n  0x80\n    /* \"#utility.yul\":2492:2554   */\n  tag_55\n    /* \"#utility.yul\":2546:2553   */\n  dup9\n    /* \"#utility.yul\":2537:2543   */\n  dup3\n    /* \"#utility.yul\":2526:2535   */\n  dup10\n    /* \"#utility.yul\":2522:2544   */\n  add\n    /* \"#utility.yul\":2492:2554   */\n  tag_38\n  jump\t// in\ntag_55:\n    /* \"#utility.yul\":2482:2554   */\n  swap2\n  pop\n    /* \"#utility.yul\":2436:2564   */\n  pop\n    /* \"#utility.yul\":1252:2571   */\n  swap3\n  swap6\n  pop\n  swap3\n  swap6\n  swap1\n  swap4\n  pop\n  jump\t// out\n    /* \"#utility.yul\":2577:2695   */\ntag_56:\n    /* \"#utility.yul\":2664:2688   */\n  tag_58\n    /* \"#utility.yul\":2682:2687   */\n  dup2\n    /* \"#utility.yul\":2664:2688   */\n  tag_59\n  jump\t// in\ntag_58:\n    /* \"#utility.yul\":2659:2662   */\n  dup3\n    /* \"#utility.yul\":2652:2689   */\n  mstore\n    /* \"#utility.yul\":2577:2695   */\n  pop\n  pop\n  jump\t// out\n    /* \"#utility.yul\":2701:3065   */\ntag_60:\n    /* \"#utility.yul\":2789:2792   */\n  0x00\n    /* \"#utility.yul\":2817:2856   */\n  tag_62\n    /* \"#utility.yul\":2850:2855   */\n  dup3\n    /* \"#utility.yul\":2817:2856   */\n  tag_63\n  jump\t// in\ntag_62:\n    /* \"#utility.yul\":2872:2943   */\n  tag_64\n    /* \"#utility.yul\":2936:2942   */\n  dup2\n    /* \"#utility.yul\":2931:2934   */\n  dup6\n    /* \"#utility.yul\":2872:2943   */\n  tag_65\n  jump\t// in\ntag_64:\n    /* \"#utility.yul\":2865:2943   */\n  swap4\n  pop\n    /* \"#utility.yul\":2952:3004   */\n  tag_66\n    /* \"#utility.yul\":2997:3003   */\n  dup2\n    /* \"#utility.yul\":2992:2995   */\n  dup6\n    /* \"#utility.yul\":2985:2989   */\n  0x20\n    /* \"#utility.yul\":2978:2983   */\n  dup7\n    /* \"#utility.yul\":2974:2990   */\n  add\n    /* \"#utility.yul\":2952:3004   */\n  tag_23\n  jump\t// in\ntag_66:\n    /* \"#utility.yul\":3029:3058   */\n  tag_67\n    /* \"#utility.yul\":3051:3057   */\n  dup2\n    /* \"#utility.yul\":3029:3058   */\n  tag_68\n  jump\t// in\ntag_67:\n    /* \"#utility.yul\":3024:3027   */\n  dup5\n    /* \"#utility.yul\":3020:3059   */\n  add\n    /* \"#utility.yul\":3013:3059   */\n  swap2\n  pop\n    /* \"#utility.yul\":2793:3065   */\n  pop\n    /* \"#utility.yul\":2701:3065   */\n  swap3\n  swap2\n  pop\n  pop\n  jump\t// out\n    /* \"#utility.yul\":3071:3189   */\ntag_69:\n    /* \"#utility.yul\":3158:3182   */\n  tag_71\n    /* \"#utility.yul\":3176:3181   */\n  dup2\n    /* \"#utility.yul\":3158:3182   */\n  tag_72\n  jump\t// in\ntag_71:\n    /* \"#utility.yul\":3153:3156   */\n  dup3\n    /* \"#utility.yul\":3146:3183   */\n  mstore\n    /* \"#utility.yul\":3071:3189   */\n  pop\n  pop\n  jump\t// out\n    /* \"#utility.yul\":3195:3307   */\ntag_73:\n    /* \"#utility.yul\":3278:3300   */\n  tag_75\n    /* \"#utility.yul\":3294:3299   */\n  dup2\n    /* \"#utility.yul\":3278:3300   */\n  tag_76\n  jump\t// in\ntag_75:\n    /* \"#utility.yul\":3273:3276   */\n  dup3\n    /* \"#utility.yul\":3266:3301   */\n  mstore\n    /* \"#utility.yul\":3195:3307   */\n  pop\n  pop\n  jump\t// out\n    /* \"#utility.yul\":3313:4151   */\ntag_9:\n    /* \"#utility.yul\":3554:3558   */\n  0x00\n    /* \"#utility.yul\":3592:3595   */\n  0xa0\n    /* \"#utility.yul\":3581:3590   */\n  dup3\n    /* \"#utility.yul\":3577:3596   */\n  add\n    /* \"#utility.yul\":3569:3596   */\n  swap1\n  pop\n    /* \"#utility.yul\":3606:3677   */\n  tag_78\n    /* \"#utility.yul\":3674:3675   */\n  0x00\n    /* \"#utility.yul\":3663:3672   */\n  dup4\n    /* \"#utility.yul\":3659:3676   */\n  add\n    /* \"#utility.yul\":3650:3656   */\n  dup9\n    /* \"#utility.yul\":3606:3677   */\n  tag_56\n  jump\t// in\ntag_78:\n    /* \"#utility.yul\":3687:3759   */\n  tag_79\n    /* \"#utility.yul\":3755:3757   */\n  0x20\n    /* \"#utility.yul\":3744:3753   */\n  dup4\n    /* \"#utility.yul\":3740:3758   */\n  add\n    /* \"#utility.yul\":3731:3737   */\n  dup8\n    /* \"#utility.yul\":3687:3759   */\n  tag_69\n  jump\t// in\ntag_79:\n    /* \"#utility.yul\":3806:3815   */\n  dup2\n    /* \"#utility.yul\":3800:3804   */\n  dup2\n    /* \"#utility.yul\":3796:3816   */\n  sub\n    /* \"#utility.yul\":3791:3793   */\n  0x40\n    /* \"#utility.yul\":3780:3789   */\n  dup4\n    /* \"#utility.yul\":3776:3794   */\n  add\n    /* \"#utility.yul\":3769:3817   */\n  mstore\n    /* \"#utility.yul\":3834:3912   */\n  tag_80\n    /* \"#utility.yul\":3907:3911   */\n  dup2\n    /* \"#utility.yul\":3898:3904   */\n  dup7\n    /* \"#utility.yul\":3834:3912   */\n  tag_60\n  jump\t// in\ntag_80:\n    /* \"#utility.yul\":3826:3912   */\n  swap1\n  pop\n    /* \"#utility.yul\":3959:3968   */\n  dup2\n    /* \"#utility.yul\":3953:3957   */\n  dup2\n    /* \"#utility.yul\":3949:3969   */\n  sub\n    /* \"#utility.yul\":3944:3946   */\n  0x60\n    /* \"#utility.yul\":3933:3942   */\n  dup4\n    /* \"#utility.yul\":3929:3947   */\n  add\n    /* \"#utility.yul\":3922:3970   */\n  mstore\n    /* \"#utility.yul\":3987:4065   */\n  tag_81\n    /* \"#utility.yul\":4060:4064   */\n  dup2\n    /* \"#utility.yul\":4051:4057   */\n  dup6\n    /* \"#utility.yul\":3987:4065   */\n  tag_60\n  jump\t// in\ntag_81:\n    /* \"#utility.yul\":3979:4065   */\n  swap1\n  pop\n    /* \"#utility.yul\":4075:4144   */\n  tag_82\n    /* \"#utility.yul\":4139:4142   */\n  0x80\n    /* \"#utility.yul\":4128:4137   */\n  dup4\n    /* \"#utility.yul\":4124:4143   */\n  add\n    /* \"#utility.yul\":4115:4121   */\n  dup5\n    /* \"#utility.yul\":4075:4144   */\n  tag_73\n  jump\t// in\ntag_82:\n    /* \"#utility.yul\":3313:4151   */\n  swap7\n  swap6\n  pop\n  pop\n  pop\n  pop\n  pop\n  pop\n  jump\t// out\n    /* \"#utility.yul\":4157:4286   */\ntag_18:\n    /* \"#utility.yul\":4191:4197   */\n  0x00\n    /* \"#utility.yul\":4218:4238   */\n  tag_84\n  tag_85\n  jump\t// in\ntag_84:\n    /* \"#utility.yul\":4208:4238   */\n  swap1\n  pop\n    /* \"#utility.yul\":4247:4280   */\n  tag_86\n    /* \"#utility.yul\":4275:4279   */\n  dup3\n    /* \"#utility.yul\":4267:4273   */\n  dup3\n    /* \"#utility.yul\":4247:4280   */\n  tag_87\n  jump\t// in\ntag_86:\n    /* \"#utility.yul\":4157:4286   */\n  swap2\n  swap1\n  pop\n  jump\t// out\n    /* \"#utility.yul\":4292:4367   */\ntag_85:\n    /* \"#utility.yul\":4325:4331   */\n  0x00\n    /* \"#utility.yul\":4358:4360   */\n  0x40\n    /* \"#utility.yul\":4352:4361   */\n  mload\n    /* \"#utility.yul\":4342:4361   */\n  swap1\n  pop\n    /* \"#utility.yul\":4292:4367   */\n  swap1\n  jump\t// out\n    /* \"#utility.yul\":4373:4681   */\ntag_17:\n    /* \"#utility.yul\":4435:4439   */\n  0x00\n    /* \"#utility.yul\":4525:4543   */\n  0xffffffffffffffff\n    /* \"#utility.yul\":4517:4523   */\n  dup3\n    /* \"#utility.yul\":4514:4544   */\n  gt\n    /* \"#utility.yul\":4511:4567   */\n  iszero\n  tag_90\n  jumpi\n    /* \"#utility.yul\":4547:4565   */\n  tag_91\n  tag_92\n  jump\t// in\ntag_91:\n    /* \"#utility.yul\":4511:4567   */\ntag_90:\n    /* \"#utility.yul\":4585:4614   */\n  tag_93\n    /* \"#utility.yul\":4607:4613   */\n  dup3\n    /* \"#utility.yul\":4585:4614   */\n  tag_68\n  jump\t// in\ntag_93:\n    /* \"#utility.yul\":4577:4614   */\n  swap1\n  pop\n    /* \"#utility.yul\":4669:4673   */\n  0x20\n    /* \"#utility.yul\":4663:4667   */\n  dup2\n    /* \"#utility.yul\":4659:4674   */\n  add\n    /* \"#utility.yul\":4651:4674   */\n  swap1\n  pop\n    /* \"#utility.yul\":4373:4681   */\n  swap2\n  swap1\n  pop\n  jump\t// out\n    /* \"#utility.yul\":4687:4786   */\ntag_63:\n    /* \"#utility.yul\":4739:4745   */\n  0x00\n    /* \"#utility.yul\":4773:4778   */\n  dup2\n    /* \"#utility.yul\":4767:4779   */\n  mload\n    /* \"#utility.yul\":4757:4779   */\n  swap1\n  pop\n    /* \"#utility.yul\":4687:4786   */\n  swap2\n  swap1\n  pop\n  jump\t// out\n    /* \"#utility.yul\":4792:4961   */\ntag_65:\n    /* \"#utility.yul\":4876:4887   */\n  0x00\n    /* \"#utility.yul\":4910:4916   */\n  dup3\n    /* \"#utility.yul\":4905:4908   */\n  dup3\n    /* \"#utility.yul\":4898:4917   */\n  mstore\n    /* \"#utility.yul\":4950:4954   */\n  0x20\n    /* \"#utility.yul\":4945:4948   */\n  dup3\n    /* \"#utility.yul\":4941:4955   */\n  add\n    /* \"#utility.yul\":4926:4955   */\n  swap1\n  pop\n    /* \"#utility.yul\":4792:4961   */\n  swap3\n  swap2\n  pop\n  pop\n  jump\t// out\n    /* \"#utility.yul\":4967:5063   */\ntag_59:\n    /* \"#utility.yul\":5004:5011   */\n  0x00\n    /* \"#utility.yul\":5033:5057   */\n  tag_97\n    /* \"#utility.yul\":5051:5056   */\n  dup3\n    /* \"#utility.yul\":5033:5057   */\n  tag_98\n  jump\t// in\ntag_97:\n    /* \"#utility.yul\":5022:5057   */\n  swap1\n  pop\n    /* \"#utility.yul\":4967:5063   */\n  swap2\n  swap1\n  pop\n  jump\t// out\n    /* \"#utility.yul\":5069:5195   */\ntag_98:\n    /* \"#utility.yul\":5106:5113   */\n  0x00\n    /* \"#utility.yul\":5146:5188   */\n  0xffffffffffffffffffffffffffffffffffffffff\n    /* \"#utility.yul\":5139:5144   */\n  dup3\n    /* \"#utility.yul\":5135:5189   */\n  and\n    /* \"#utility.yul\":5124:5189   */\n  swap1\n  pop\n    /* \"#utility.yul\":5069:5195   */\n  swap2\n  swap1\n  pop\n  jump\t// out\n    /* \"#utility.yul\":5201:5278   */\ntag_72:\n    /* \"#utility.yul\":5238:5245   */\n  0x00\n    /* \"#utility.yul\":5267:5272   */\n  dup2\n    /* \"#utility.yul\":5256:5272   */\n  swap1\n  pop\n    /* \"#utility.yul\":5201:5278   */\n  swap2\n  swap1\n  pop\n  jump\t// out\n    /* \"#utility.yul\":5284:5370   */\ntag_76:\n    /* \"#utility.yul\":5319:5326   */\n  0x00\n    /* \"#utility.yul\":5359:5363   */\n  0xff\n    /* \"#utility.yul\":5352:5357   */\n  dup3\n    /* \"#utility.yul\":5348:5364   */\n  and\n    /* \"#utility.yul\":5337:5364   */\n  swap1\n  pop\n    /* \"#utility.yul\":5284:5370   */\n  swap2\n  swap1\n  pop\n  jump\t// out\n    /* \"#utility.yul\":5376:5683   */\ntag_23:\n    /* \"#utility.yul\":5444:5445   */\n  0x00\n    /* \"#utility.yul\":5454:5567   */\ntag_103:\n    /* \"#utility.yul\":5468:5474   */\n  dup4\n    /* \"#utility.yul\":5465:5466   */\n  dup2\n    /* \"#utility.yul\":5462:5475   */\n  lt\n    /* \"#utility.yul\":5454:5567   */\n  iszero\n  tag_105\n  jumpi\n    /* \"#utility.yul\":5553:5554   */\n  dup1\n    /* \"#utility.yul\":5548:5551   */\n  dup3\n    /* \"#utility.yul\":5544:5555   */\n  add\n    /* \"#utility.yul\":5538:5556   */\n  mload\n    /* \"#utility.yul\":5534:5535   */\n  dup2\n    /* \"#utility.yul\":5529:5532   */\n  dup5\n    /* \"#utility.yul\":5525:5536   */\n  add\n    /* \"#utility.yul\":5518:5557   */\n  mstore\n    /* \"#utility.yul\":5490:5492   */\n  0x20\n    /* \"#utility.yul\":5487:5488   */\n  dup2\n    /* \"#utility.yul\":5483:5493   */\n  add\n    /* \"#utility.yul\":5478:5493   */\n  swap1\n  pop\n    /* \"#utility.yul\":5454:5567   */\n  jump(tag_103)\ntag_105:\n    /* \"#utility.yul\":5585:5591   */\n  dup4\n    /* \"#utility.yul\":5582:5583   */\n  dup2\n    /* \"#utility.yul\":5579:5592   */\n  gt\n    /* \"#utility.yul\":5576:5677   */\n  iszero\n  tag_106\n  jumpi\n    /* \"#utility.yul\":5665:5666   */\n  0x00\n    /* \"#utility.yul\":5656:5662   */\n  dup5\n    /* \"#utility.yul\":5651:5654   */\n  dup5\n    /* \"#utility.yul\":5647:5663   */\n  add\n    /* \"#utility.yul\":5640:5667   */\n  mstore\n    /* \"#utility.yul\":5576:5677   */\ntag_106:\n    /* \"#utility.yul\":5425:5683   */\n  pop\n    /* \"#utility.yul\":5376:5683   */\n  pop\n  pop\n  pop\n  jump\t// out\n    /* \"#utility.yul\":5689:5970   */\ntag_87:\n    /* \"#utility.yul\":5772:5799   */\n  tag_108\n    /* \"#utility.yul\":5794:5798   */\n  dup3\n    /* \"#utility.yul\":5772:5799   */\n  tag_68\n  jump\t// in\ntag_108:\n    /* \"#utility.yul\":5764:5770   */\n  dup2\n    /* \"#utility.yul\":5760:5800   */\n  add\n    /* \"#utility.yul\":5902:5908   */\n  dup2\n    /* \"#utility.yul\":5890:5900   */\n  dup2\n    /* \"#utility.yul\":5887:5909   */\n  lt\n    /* \"#utility.yul\":5866:5884   */\n  0xffffffffffffffff\n    /* \"#utility.yul\":5854:5864   */\n  dup3\n    /* \"#utility.yul\":5851:5885   */\n  gt\n    /* \"#utility.yul\":5848:5910   */\n  or\n    /* \"#utility.yul\":5845:5933   */\n  iszero\n  tag_109\n  jumpi\n    /* \"#utility.yul\":5913:5931   */\n  tag_110\n  tag_92\n  jump\t// in\ntag_110:\n    /* \"#utility.yul\":5845:5933   */\ntag_109:\n    /* \"#utility.yul\":5953:5963   */\n  dup1\n    /* \"#utility.yul\":5949:5951   */\n  0x40\n    /* \"#utility.yul\":5942:5964   */\n  mstore\n    /* \"#utility.yul\":5732:5970   */\n  pop\n    /* \"#utility.yul\":5689:5970   */\n  pop\n  pop\n  jump\t// out\n    /* \"#utility.yul\":5976:6156   */\ntag_92:\n    /* \"#utility.yul\":6024:6101   */\n  0x4e487b7100000000000000000000000000000000000000000000000000000000\n    /* \"#utility.yul\":6021:6022   */\n  0x00\n    /* \"#utility.yul\":6014:6102   */\n  mstore\n    /* \"#utility.yul\":6121:6125   */\n  0x41\n    /* \"#utility.yul\":6118:6119   */\n  0x04\n    /* \"#utility.yul\":6111:6126   */\n  mstore\n    /* \"#utility.yul\":6145:6149   */\n  0x24\n    /* \"#utility.yul\":6142:6143   */\n  0x00\n    /* \"#utility.yul\":6135:6150   */\n  revert\n    /* \"#utility.yul\":6162:6279   */\ntag_32:\n    /* \"#utility.yul\":6271:6272   */\n  0x00\n    /* \"#utility.yul\":6268:6269   */\n  dup1\n    /* \"#utility.yul\":6261:6273   */\n  revert\n    /* \"#utility.yul\":6285:6402   */\ntag_21:\n    /* \"#utility.yul\":6394:6395   */\n  0x00\n    /* \"#utility.yul\":6391:6392   */\n  dup1\n    /* \"#utility.yul\":6384:6396   */\n  revert\n    /* \"#utility.yul\":6408:6525   */\ntag_50:\n    /* \"#utility.yul\":6517:6518   */\n  0x00\n    /* \"#utility.yul\":6514:6515   */\n  dup1\n    /* \"#utility.yul\":6507:6519   */\n  revert\n    /* \"#utility.yul\":6531:6648   */\ntag_45:\n    /* \"#utility.yul\":6640:6641   */\n  0x00\n    /* \"#utility.yul\":6637:6638   */\n  dup1\n    /* \"#utility.yul\":6630:6642   */\n  revert\n    /* \"#utility.yul\":6654:6756   */\ntag_68:\n    /* \"#utility.yul\":6695:6701   */\n  0x00\n    /* \"#utility.yul\":6746:6748   */\n  0x1f\n    /* \"#utility.yul\":6742:6749   */\n  not\n    /* \"#utility.yul\":6737:6739   */\n  0x1f\n    /* \"#utility.yul\":6730:6735   */\n  dup4\n    /* \"#utility.yul\":6726:6740   */\n  add\n    /* \"#utility.yul\":6722:6750   */\n  and\n    /* \"#utility.yul\":6712:6750   */\n  swap1\n  pop\n    /* \"#utility.yul\":6654:6756   */\n  swap2\n  swap1\n  pop\n  jump\t// out\n    /* \"#utility.yul\":6762:6884   */\ntag_27:\n    /* \"#utility.yul\":6835:6859   */\n  tag_118\n    /* \"#utility.yul\":6853:6858   */\n  dup2\n    /* \"#utility.yul\":6835:6859   */\n  tag_59\n  jump\t// in\ntag_118:\n    /* \"#utility.yul\":6828:6833   */\n  dup2\n    /* \"#utility.yul\":6825:6860   */\n  eq\n    /* \"#utility.yul\":6815:6878   */\n  tag_119\n  jumpi\n    /* \"#utility.yul\":6874:6875   */\n  0x00\n    /* \"#utility.yul\":6871:6872   */\n  dup1\n    /* \"#utility.yul\":6864:6876   */\n  revert\n    /* \"#utility.yul\":6815:6878   */\ntag_119:\n    /* \"#utility.yul\":6762:6884   */\n  pop\n  jump\t// out\n    /* \"#utility.yul\":6890:7012   */\ntag_37:\n    /* \"#utility.yul\":6963:6987   */\n  tag_121\n    /* \"#utility.yul\":6981:6986   */\n  dup2\n    /* \"#utility.yul\":6963:6987   */\n  tag_72\n  jump\t// in\ntag_121:\n    /* \"#utility.yul\":6956:6961   */\n  dup2\n    /* \"#utility.yul\":6953:6988   */\n  eq\n    /* \"#utility.yul\":6943:7006   */\n  tag_122\n  jumpi\n    /* \"#utility.yul\":7002:7003   */\n  0x00\n    /* \"#utility.yul\":6999:7000   */\n  dup1\n    /* \"#utility.yul\":6992:7004   */\n  revert\n    /* \"#utility.yul\":6943:7006   */\ntag_122:\n    /* \"#utility.yul\":6890:7012   */\n  pop\n  jump\t// out\n    /* \"#utility.yul\":7018:7136   */\ntag_41:\n    /* \"#utility.yul\":7089:7111   */\n  tag_124\n    /* \"#utility.yul\":7105:7110   */\n  dup2\n    /* \"#utility.yul\":7089:7111   */\n  tag_76\n  jump\t// in\ntag_124:\n    /* \"#utility.yul\":7082:7087   */\n  dup2\n    /* \"#utility.yul\":7079:7112   */\n  eq\n    /* \"#utility.yul\":7069:7130   */\n  tag_125\n  jumpi\n    /* \"#utility.yul\":7126:7127   */\n  0x00\n    /* \"#utility.yul\":7123:7124   */\n  dup1\n    /* \"#utility.yul\":7116:7128   */\n  revert\n    /* \"#utility.yul\":7069:7130   */\ntag_125:\n    /* \"#utility.yul\":7018:7136   */\n  pop\n  jump\t// out\n    /* \"KIA.sol\":84:664  contract KIA {\r... */\ntag_11:\n  dataSize(sub_0)\n  dup1\n  dataOffset(sub_0)\n  0x00\n  codecopy\n  0x00\n  return\nstop\n\nsub_0: assembly {\n        /* \"KIA.sol\":84:664  contract KIA {\r... */\n      mstore(0x40, 0x80)\n      jumpi(tag_1, lt(calldatasize, 0x04))\n      shr(0xe0, calldataload(0x00))\n      dup1\n      0x65371883\n      eq\n      tag_2\n      jumpi\n      dup1\n      0xfcb0368c\n      eq\n      tag_3\n      jumpi\n    tag_1:\n      0x00\n      dup1\n      revert\n        /* \"KIA.sol\":404:497  function ownerToken() external view returns (address) {\r... */\n    tag_2:\n      callvalue\n      dup1\n      iszero\n      tag_4\n      jumpi\n      0x00\n      dup1\n      revert\n    tag_4:\n      pop\n      tag_5\n      tag_6\n      jump\t// in\n    tag_5:\n      mload(0x40)\n      tag_7\n      swap2\n      swap1\n      tag_8\n      jump\t// in\n    tag_7:\n      mload(0x40)\n      dup1\n      swap2\n      sub\n      swap1\n      return\n        /* \"KIA.sol\":505:661  function BuyToken(uint256 rate) external payable {\r... */\n    tag_3:\n      tag_9\n      0x04\n      dup1\n      calldatasize\n      sub\n      dup2\n      add\n      swap1\n      tag_10\n      swap2\n      swap1\n      tag_11\n      jump\t// in\n    tag_10:\n      tag_12\n      jump\t// in\n    tag_9:\n      stop\n        /* \"KIA.sol\":404:497  function ownerToken() external view returns (address) {\r... */\n    tag_6:\n        /* \"KIA.sol\":449:456  address */\n      0x00\n        /* \"KIA.sol\":476:481  token */\n      dup1\n      0x00\n      swap1\n      sload\n      swap1\n      0x0100\n      exp\n      swap1\n      div\n      0xffffffffffffffffffffffffffffffffffffffff\n      and\n        /* \"KIA.sol\":476:487  token.owner */\n      0xffffffffffffffffffffffffffffffffffffffff\n      and\n      0x8da5cb5b\n        /* \"KIA.sol\":476:489  token.owner() */\n      mload(0x40)\n      dup2\n      0xffffffff\n      and\n      0xe0\n      shl\n      dup2\n      mstore\n      0x04\n      add\n      0x20\n      mload(0x40)\n      dup1\n      dup4\n      sub\n      dup2\n      dup7\n      dup1\n      extcodesize\n      iszero\n      dup1\n      iszero\n      tag_14\n      jumpi\n      0x00\n      dup1\n      revert\n    tag_14:\n      pop\n      gas\n      staticcall\n      iszero\n      dup1\n      iszero\n      tag_16\n      jumpi\n      returndatasize\n      0x00\n      dup1\n      returndatacopy\n      revert(0x00, returndatasize)\n    tag_16:\n      pop\n      pop\n      pop\n      pop\n      mload(0x40)\n      returndatasize\n      not(0x1f)\n      0x1f\n      dup3\n      add\n      and\n      dup3\n      add\n      dup1\n      0x40\n      mstore\n      pop\n      dup2\n      add\n      swap1\n      tag_17\n      swap2\n      swap1\n      tag_18\n      jump\t// in\n    tag_17:\n        /* \"KIA.sol\":469:489  return token.owner() */\n      swap1\n      pop\n        /* \"KIA.sol\":404:497  function ownerToken() external view returns (address) {\r... */\n      swap1\n      jump\t// out\n        /* \"KIA.sol\":505:661  function BuyToken(uint256 rate) external payable {\r... */\n    tag_12:\n        /* \"KIA.sol\":565:584  uint256 tokenAmount */\n      0x00\n        /* \"KIA.sol\":599:603  rate */\n      dup2\n        /* \"KIA.sol\":587:596  msg.value */\n      callvalue\n        /* \"KIA.sol\":587:603  msg.value * rate */\n      tag_20\n      swap2\n      swap1\n      tag_21\n      jump\t// in\n    tag_20:\n        /* \"KIA.sol\":565:603  uint256 tokenAmount = msg.value * rate */\n      swap1\n      pop\n        /* \"KIA.sol\":614:619  token */\n      0x00\n      dup1\n      sload\n      swap1\n      0x0100\n      exp\n      swap1\n      div\n      0xffffffffffffffffffffffffffffffffffffffff\n      and\n        /* \"KIA.sol\":614:628  token.transfer */\n      0xffffffffffffffffffffffffffffffffffffffff\n      and\n      0xa9059cbb\n        /* \"KIA.sol\":629:639  msg.sender */\n      caller\n        /* \"KIA.sol\":641:652  tokenAmount */\n      dup4\n        /* \"KIA.sol\":614:653  token.transfer(msg.sender, tokenAmount) */\n      mload(0x40)\n      dup4\n      0xffffffff\n      and\n      0xe0\n      shl\n      dup2\n      mstore\n      0x04\n      add\n      tag_22\n      swap3\n      swap2\n      swap1\n      tag_23\n      jump\t// in\n    tag_22:\n      0x20\n      mload(0x40)\n      dup1\n      dup4\n      sub\n      dup2\n      0x00\n      dup8\n      dup1\n      extcodesize\n      iszero\n      dup1\n      iszero\n      tag_24\n      jumpi\n      0x00\n      dup1\n      revert\n    tag_24:\n      pop\n      gas\n      call\n      iszero\n      dup1\n      iszero\n      tag_26\n      jumpi\n      returndatasize\n      0x00\n      dup1\n      returndatacopy\n      revert(0x00, returndatasize)\n    tag_26:\n      pop\n      pop\n      pop\n      pop\n      mload(0x40)\n      returndatasize\n      not(0x1f)\n      0x1f\n      dup3\n      add\n      and\n      dup3\n      add\n      dup1\n      0x40\n      mstore\n      pop\n      dup2\n      add\n      swap1\n      tag_27\n      swap2\n      swap1\n      tag_28\n      jump\t// in\n    tag_27:\n      pop\n        /* \"KIA.sol\":554:661  {\r... */\n      pop\n        /* \"KIA.sol\":505:661  function BuyToken(uint256 rate) external payable {\r... */\n      pop\n      jump\t// out\n        /* \"#utility.yul\":7:150   */\n    tag_30:\n        /* \"#utility.yul\":64:69   */\n      0x00\n        /* \"#utility.yul\":95:101   */\n      dup2\n        /* \"#utility.yul\":89:102   */\n      mload\n        /* \"#utility.yul\":80:102   */\n      swap1\n      pop\n        /* \"#utility.yul\":111:144   */\n      tag_32\n        /* \"#utility.yul\":138:143   */\n      dup2\n        /* \"#utility.yul\":111:144   */\n      tag_33\n      jump\t// in\n    tag_32:\n        /* \"#utility.yul\":7:150   */\n      swap3\n      swap2\n      pop\n      pop\n      jump\t// out\n        /* \"#utility.yul\":156:293   */\n    tag_34:\n        /* \"#utility.yul\":210:215   */\n      0x00\n        /* \"#utility.yul\":241:247   */\n      dup2\n        /* \"#utility.yul\":235:248   */\n      mload\n        /* \"#utility.yul\":226:248   */\n      swap1\n      pop\n        /* \"#utility.yul\":257:287   */\n      tag_36\n        /* \"#utility.yul\":281:286   */\n      dup2\n        /* \"#utility.yul\":257:287   */\n      tag_37\n      jump\t// in\n    tag_36:\n        /* \"#utility.yul\":156:293   */\n      swap3\n      swap2\n      pop\n      pop\n      jump\t// out\n        /* \"#utility.yul\":299:438   */\n    tag_38:\n        /* \"#utility.yul\":345:350   */\n      0x00\n        /* \"#utility.yul\":383:389   */\n      dup2\n        /* \"#utility.yul\":370:390   */\n      calldataload\n        /* \"#utility.yul\":361:390   */\n      swap1\n      pop\n        /* \"#utility.yul\":399:432   */\n      tag_40\n        /* \"#utility.yul\":426:431   */\n      dup2\n        /* \"#utility.yul\":399:432   */\n      tag_41\n      jump\t// in\n    tag_40:\n        /* \"#utility.yul\":299:438   */\n      swap3\n      swap2\n      pop\n      pop\n      jump\t// out\n        /* \"#utility.yul\":444:795   */\n    tag_18:\n        /* \"#utility.yul\":514:520   */\n      0x00\n        /* \"#utility.yul\":563:565   */\n      0x20\n        /* \"#utility.yul\":551:560   */\n      dup3\n        /* \"#utility.yul\":542:549   */\n      dup5\n        /* \"#utility.yul\":538:561   */\n      sub\n        /* \"#utility.yul\":534:566   */\n      slt\n        /* \"#utility.yul\":531:650   */\n      iszero\n      tag_43\n      jumpi\n        /* \"#utility.yul\":569:648   */\n      tag_44\n      tag_45\n      jump\t// in\n    tag_44:\n        /* \"#utility.yul\":531:650   */\n    tag_43:\n        /* \"#utility.yul\":689:690   */\n      0x00\n        /* \"#utility.yul\":714:778   */\n      tag_46\n        /* \"#utility.yul\":770:777   */\n      dup5\n        /* \"#utility.yul\":761:767   */\n      dup3\n        /* \"#utility.yul\":750:759   */\n      dup6\n        /* \"#utility.yul\":746:768   */\n      add\n        /* \"#utility.yul\":714:778   */\n      tag_30\n      jump\t// in\n    tag_46:\n        /* \"#utility.yul\":704:778   */\n      swap2\n      pop\n        /* \"#utility.yul\":660:788   */\n      pop\n        /* \"#utility.yul\":444:795   */\n      swap3\n      swap2\n      pop\n      pop\n      jump\t// out\n        /* \"#utility.yul\":801:1146   */\n    tag_28:\n        /* \"#utility.yul\":868:874   */\n      0x00\n        /* \"#utility.yul\":917:919   */\n      0x20\n        /* \"#utility.yul\":905:914   */\n      dup3\n        /* \"#utility.yul\":896:903   */\n      dup5\n        /* \"#utility.yul\":892:915   */\n      sub\n        /* \"#utility.yul\":888:920   */\n      slt\n        /* \"#utility.yul\":885:1004   */\n      iszero\n      tag_48\n      jumpi\n        /* \"#utility.yul\":923:1002   */\n      tag_49\n      tag_45\n      jump\t// in\n    tag_49:\n        /* \"#utility.yul\":885:1004   */\n    tag_48:\n        /* \"#utility.yul\":1043:1044   */\n      0x00\n        /* \"#utility.yul\":1068:1129   */\n      tag_50\n        /* \"#utility.yul\":1121:1128   */\n      dup5\n        /* \"#utility.yul\":1112:1118   */\n      dup3\n        /* \"#utility.yul\":1101:1110   */\n      dup6\n        /* \"#utility.yul\":1097:1119   */\n      add\n        /* \"#utility.yul\":1068:1129   */\n      tag_34\n      jump\t// in\n    tag_50:\n        /* \"#utility.yul\":1058:1129   */\n      swap2\n      pop\n        /* \"#utility.yul\":1014:1139   */\n      pop\n        /* \"#utility.yul\":801:1146   */\n      swap3\n      swap2\n      pop\n      pop\n      jump\t// out\n        /* \"#utility.yul\":1152:1481   */\n    tag_11:\n        /* \"#utility.yul\":1211:1217   */\n      0x00\n        /* \"#utility.yul\":1260:1262   */\n      0x20\n        /* \"#utility.yul\":1248:1257   */\n      dup3\n        /* \"#utility.yul\":1239:1246   */\n      dup5\n        /* \"#utility.yul\":1235:1258   */\n      sub\n        /* \"#utility.yul\":1231:1263   */\n      slt\n        /* \"#utility.yul\":1228:1347   */\n      iszero\n      tag_52\n      jumpi\n        /* \"#utility.yul\":1266:1345   */\n      tag_53\n      tag_45\n      jump\t// in\n    tag_53:\n        /* \"#utility.yul\":1228:1347   */\n    tag_52:\n        /* \"#utility.yul\":1386:1387   */\n      0x00\n        /* \"#utility.yul\":1411:1464   */\n      tag_54\n        /* \"#utility.yul\":1456:1463   */\n      dup5\n        /* \"#utility.yul\":1447:1453   */\n      dup3\n        /* \"#utility.yul\":1436:1445   */\n      dup6\n        /* \"#utility.yul\":1432:1454   */\n      add\n        /* \"#utility.yul\":1411:1464   */\n      tag_38\n      jump\t// in\n    tag_54:\n        /* \"#utility.yul\":1401:1464   */\n      swap2\n      pop\n        /* \"#utility.yul\":1357:1474   */\n      pop\n        /* \"#utility.yul\":1152:1481   */\n      swap3\n      swap2\n      pop\n      pop\n      jump\t// out\n        /* \"#utility.yul\":1487:1605   */\n    tag_55:\n        /* \"#utility.yul\":1574:1598   */\n      tag_57\n        /* \"#utility.yul\":1592:1597   */\n      dup2\n        /* \"#utility.yul\":1574:1598   */\n      tag_58\n      jump\t// in\n    tag_57:\n        /* \"#utility.yul\":1569:1572   */\n      dup3\n        /* \"#utility.yul\":1562:1599   */\n      mstore\n        /* \"#utility.yul\":1487:1605   */\n      pop\n      pop\n      jump\t// out\n        /* \"#utility.yul\":1611:1729   */\n    tag_59:\n        /* \"#utility.yul\":1698:1722   */\n      tag_61\n        /* \"#utility.yul\":1716:1721   */\n      dup2\n        /* \"#utility.yul\":1698:1722   */\n      tag_62\n      jump\t// in\n    tag_61:\n        /* \"#utility.yul\":1693:1696   */\n      dup3\n        /* \"#utility.yul\":1686:1723   */\n      mstore\n        /* \"#utility.yul\":1611:1729   */\n      pop\n      pop\n      jump\t// out\n        /* \"#utility.yul\":1735:1957   */\n    tag_8:\n        /* \"#utility.yul\":1828:1832   */\n      0x00\n        /* \"#utility.yul\":1866:1868   */\n      0x20\n        /* \"#utility.yul\":1855:1864   */\n      dup3\n        /* \"#utility.yul\":1851:1869   */\n      add\n        /* \"#utility.yul\":1843:1869   */\n      swap1\n      pop\n        /* \"#utility.yul\":1879:1950   */\n      tag_64\n        /* \"#utility.yul\":1947:1948   */\n      0x00\n        /* \"#utility.yul\":1936:1945   */\n      dup4\n        /* \"#utility.yul\":1932:1949   */\n      add\n        /* \"#utility.yul\":1923:1929   */\n      dup5\n        /* \"#utility.yul\":1879:1950   */\n      tag_55\n      jump\t// in\n    tag_64:\n        /* \"#utility.yul\":1735:1957   */\n      swap3\n      swap2\n      pop\n      pop\n      jump\t// out\n        /* \"#utility.yul\":1963:2295   */\n    tag_23:\n        /* \"#utility.yul\":2084:2088   */\n      0x00\n        /* \"#utility.yul\":2122:2124   */\n      0x40\n        /* \"#utility.yul\":2111:2120   */\n      dup3\n        /* \"#utility.yul\":2107:2125   */\n      add\n        /* \"#utility.yul\":2099:2125   */\n      swap1\n      pop\n        /* \"#utility.yul\":2135:2206   */\n      tag_66\n        /* \"#utility.yul\":2203:2204   */\n      0x00\n        /* \"#utility.yul\":2192:2201   */\n      dup4\n        /* \"#utility.yul\":2188:2205   */\n      add\n        /* \"#utility.yul\":2179:2185   */\n      dup6\n        /* \"#utility.yul\":2135:2206   */\n      tag_55\n      jump\t// in\n    tag_66:\n        /* \"#utility.yul\":2216:2288   */\n      tag_67\n        /* \"#utility.yul\":2284:2286   */\n      0x20\n        /* \"#utility.yul\":2273:2282   */\n      dup4\n        /* \"#utility.yul\":2269:2287   */\n      add\n        /* \"#utility.yul\":2260:2266   */\n      dup5\n        /* \"#utility.yul\":2216:2288   */\n      tag_59\n      jump\t// in\n    tag_67:\n        /* \"#utility.yul\":1963:2295   */\n      swap4\n      swap3\n      pop\n      pop\n      pop\n      jump\t// out\n        /* \"#utility.yul\":2382:2730   */\n    tag_21:\n        /* \"#utility.yul\":2422:2429   */\n      0x00\n        /* \"#utility.yul\":2445:2465   */\n      tag_71\n        /* \"#utility.yul\":2463:2464   */\n      dup3\n        /* \"#utility.yul\":2445:2465   */\n      tag_62\n      jump\t// in\n    tag_71:\n        /* \"#utility.yul\":2440:2465   */\n      swap2\n      pop\n        /* \"#utility.yul\":2479:2499   */\n      tag_72\n        /* \"#utility.yul\":2497:2498   */\n      dup4\n        /* \"#utility.yul\":2479:2499   */\n      tag_62\n      jump\t// in\n    tag_72:\n        /* \"#utility.yul\":2474:2499   */\n      swap3\n      pop\n        /* \"#utility.yul\":2667:2668   */\n      dup2\n        /* \"#utility.yul\":2599:2665   */\n      0xffffffffffffffffffffffffffffffffffffffffffffffffffffffffffffffff\n        /* \"#utility.yul\":2595:2669   */\n      div\n        /* \"#utility.yul\":2592:2593   */\n      dup4\n        /* \"#utility.yul\":2589:2670   */\n      gt\n        /* \"#utility.yul\":2584:2585   */\n      dup3\n        /* \"#utility.yul\":2577:2586   */\n      iszero\n        /* \"#utility.yul\":2570:2587   */\n      iszero\n        /* \"#utility.yul\":2566:2671   */\n      and\n        /* \"#utility.yul\":2563:2694   */\n      iszero\n      tag_73\n      jumpi\n        /* \"#utility.yul\":2674:2692   */\n      tag_74\n      tag_75\n      jump\t// in\n    tag_74:\n        /* \"#utility.yul\":2563:2694   */\n    tag_73:\n        /* \"#utility.yul\":2722:2723   */\n      dup3\n        /* \"#utility.yul\":2719:2720   */\n      dup3\n        /* \"#utility.yul\":2715:2724   */\n      mul\n        /* \"#utility.yul\":2704:2724   */\n      swap1\n      pop\n        /* \"#utility.yul\":2382:2730   */\n      swap3\n      swap2\n      pop\n      pop\n      jump\t// out\n        /* \"#utility.yul\":2736:2832   */\n    tag_58:\n        /* \"#utility.yul\":2773:2780   */\n      0x00\n        /* \"#utility.yul\":2802:2826   */\n      tag_77\n        /* \"#utility.yul\":2820:2825   */\n      dup3\n        /* \"#utility.yul\":2802:2826   */\n      tag_78\n      jump\t// in\n    tag_77:\n        /* \"#utility.yul\":2791:2826   */\n      swap1\n      pop\n        /* \"#utility.yul\":2736:2832   */\n      swap2\n      swap1\n      pop\n      jump\t// out\n        /* \"#utility.yul\":2838:2928   */\n    tag_79:\n        /* \"#utility.yul\":2872:2879   */\n      0x00\n        /* \"#utility.yul\":2915:2920   */\n      dup2\n        /* \"#utility.yul\":2908:2921   */\n      iszero\n        /* \"#utility.yul\":2901:2922   */\n      iszero\n        /* \"#utility.yul\":2890:2922   */\n      swap1\n      pop\n        /* \"#utility.yul\":2838:2928   */\n      swap2\n      swap1\n      pop\n      jump\t// out\n        /* \"#utility.yul\":2934:3060   */\n    tag_78:\n        /* \"#utility.yul\":2971:2978   */\n      0x00\n        /* \"#utility.yul\":3011:3053   */\n      0xffffffffffffffffffffffffffffffffffffffff\n        /* \"#utility.yul\":3004:3009   */\n      dup3\n        /* \"#utility.yul\":3000:3054   */\n      and\n        /* \"#utility.yul\":2989:3054   */\n      swap1\n      pop\n        /* \"#utility.yul\":2934:3060   */\n      swap2\n      swap1\n      pop\n      jump\t// out\n        /* \"#utility.yul\":3066:3143   */\n    tag_62:\n        /* \"#utility.yul\":3103:3110   */\n      0x00\n        /* \"#utility.yul\":3132:3137   */\n      dup2\n        /* \"#utility.yul\":3121:3137   */\n      swap1\n      pop\n        /* \"#utility.yul\":3066:3143   */\n      swap2\n      swap1\n      pop\n      jump\t// out\n        /* \"#utility.yul\":3149:3329   */\n    tag_75:\n        /* \"#utility.yul\":3197:3274   */\n      0x4e487b7100000000000000000000000000000000000000000000000000000000\n        /* \"#utility.yul\":3194:3195   */\n      0x00\n        /* \"#utility.yul\":3187:3275   */\n      mstore\n        /* \"#utility.yul\":3294:3298   */\n      0x11\n        /* \"#utility.yul\":3291:3292   */\n      0x04\n        /* \"#utility.yul\":3284:3299   */\n      mstore\n        /* \"#utility.yul\":3318:3322   */\n      0x24\n        /* \"#utility.yul\":3315:3316   */\n      0x00\n        /* \"#utility.yul\":3308:3323   */\n      revert\n        /* \"#utility.yul\":3458:3575   */\n    tag_45:\n        /* \"#utility.yul\":3567:3568   */\n      0x00\n        /* \"#utility.yul\":3564:3565   */\n      dup1\n        /* \"#utility.yul\":3557:3569   */\n      revert\n        /* \"#utility.yul\":3581:3703   */\n    tag_33:\n        /* \"#utility.yul\":3654:3678   */\n      tag_88\n        /* \"#utility.yul\":3672:3677   */\n      dup2\n        /* \"#utility.yul\":3654:3678   */\n      tag_58\n      jump\t// in\n    tag_88:\n        /* \"#utility.yul\":3647:3652   */\n      dup2\n        /* \"#utility.yul\":3644:3679   */\n      eq\n        /* \"#utility.yul\":3634:3697   */\n      tag_89\n      jumpi\n        /* \"#utility.yul\":3693:3694   */\n      0x00\n        /* \"#utility.yul\":3690:3691   */\n      dup1\n        /* \"#utility.yul\":3683:3695   */\n      revert\n        /* \"#utility.yul\":3634:3697   */\n    tag_89:\n        /* \"#utility.yul\":3581:3703   */\n      pop\n      jump\t// out\n        /* \"#utility.yul\":3709:3825   */\n    tag_37:\n        /* \"#utility.yul\":3779:3800   */\n      tag_91\n        /* \"#utility.yul\":3794:3799   */\n      dup2\n        /* \"#utility.yul\":3779:3800   */\n      tag_79\n      jump\t// in\n    tag_91:\n        /* \"#utility.yul\":3772:3777   */\n      dup2\n        /* \"#utility.yul\":3769:3801   */\n      eq\n        /* \"#utility.yul\":3759:3819   */\n      tag_92\n      jumpi\n        /* \"#utility.yul\":3815:3816   */\n      0x00\n        /* \"#utility.yul\":3812:3813   */\n      dup1\n        /* \"#utility.yul\":3805:3817   */\n      revert\n        /* \"#utility.yul\":3759:3819   */\n    tag_92:\n        /* \"#utility.yul\":3709:3825   */\n      pop\n      jump\t// out\n        /* \"#utility.yul\":3831:3953   */\n    tag_41:\n        /* \"#utility.yul\":3904:3928   */\n      tag_94\n        /* \"#utility.yul\":3922:3927   */\n      dup2\n        /* \"#utility.yul\":3904:3928   */\n      tag_62\n      jump\t// in\n    tag_94:\n        /* \"#utility.yul\":3897:3902   */\n      dup2\n        /* \"#utility.yul\":3894:3929   */\n      eq\n        /* \"#utility.yul\":3884:3947   */\n      tag_95\n      jumpi\n        /* \"#utility.yul\":3943:3944   */\n      0x00\n        /* \"#utility.yul\":3940:3941   */\n      dup1\n        /* \"#utility.yul\":3933:3945   */\n      revert\n        /* \"#utility.yul\":3884:3947   */\n    tag_95:\n        /* \"#utility.yul\":3831:3953   */\n      pop\n      jump\t// out\n\n    auxdata: 0xa264697066735822122078a700dcfc822792c79865dc965f99abb67fa24ee63199074404740e026f792464736f6c63430008070033\n}\n\nsub_1: assembly {\n        /* \"Token.sol\":87:2423  contract Token is SafeMath {\r... */\n      mstore(0x40, 0x80)\n        /* \"Token.sol\":462:834  constructor(\r... */\n      callvalue\n      dup1\n      iszero\n      tag_1\n      jumpi\n      0x00\n      dup1\n      revert\n    tag_1:\n      pop\n      mload(0x40)\n      sub(codesize, bytecodeSize)\n      dup1\n      bytecodeSize\n      dup4\n      codecopy\n      dup2\n      dup2\n      add\n      0x40\n      mstore\n      dup2\n      add\n      swap1\n      tag_2\n      swap2\n      swap1\n      tag_3\n      jump\t// in\n    tag_2:\n        /* \"Token.sol\":661:671  initSupply */\n      dup4\n        /* \"Token.sol\":644:651  balance */\n      0x05\n        /* \"Token.sol\":644:658  balance[owner] */\n      0x00\n        /* \"Token.sol\":652:657  owner */\n      dup8\n        /* \"Token.sol\":644:658  balance[owner] */\n      0xffffffffffffffffffffffffffffffffffffffff\n      and\n      0xffffffffffffffffffffffffffffffffffffffff\n      and\n      dup2\n      mstore\n      0x20\n      add\n      swap1\n      dup2\n      mstore\n      0x20\n      add\n      0x00\n      keccak256\n        /* \"Token.sol\":644:671  balance[owner] = initSupply */\n      dup2\n      swap1\n      sstore\n      pop\n        /* \"Token.sol\":695:705  initSupply */\n      dup4\n        /* \"Token.sol\":682:692  totalToken */\n      0x00\n        /* \"Token.sol\":682:705  totalToken = initSupply */\n      dup2\n      swap1\n      sstore\n      pop\n        /* \"Token.sol\":723:732  tokenName */\n      dup3\n        /* \"Token.sol\":716:720  name */\n      0x01\n        /* \"Token.sol\":716:732  name = tokenName */\n      swap1\n      dup1\n      mload\n      swap1\n      0x20\n      add\n      swap1\n      tag_6\n      swap3\n      swap2\n      swap1\n      tag_7\n      jump\t// in\n    tag_6:\n      pop\n        /* \"Token.sol\":752:763  tokenSymbol */\n      dup2\n        /* \"Token.sol\":743:749  symbol */\n      0x02\n        /* \"Token.sol\":743:763  symbol = tokenSymbol */\n      swap1\n      dup1\n      mload\n      swap1\n      0x20\n      add\n      swap1\n      tag_8\n      swap3\n      swap2\n      swap1\n      tag_7\n      jump\t// in\n    tag_8:\n      pop\n        /* \"Token.sol\":785:797  decimalUnits */\n      dup1\n        /* \"Token.sol\":774:797  decimals = decimalUnits */\n      0xff\n      and\n        /* \"Token.sol\":774:782  decimals */\n      0x03\n        /* \"Token.sol\":774:797  decimals = decimalUnits */\n      dup2\n      swap1\n      sstore\n      pop\n        /* \"Token.sol\":821:826  owner */\n      dup5\n        /* \"Token.sol\":808:818  tokenOwner */\n      0x04\n      0x00\n        /* \"Token.sol\":808:826  tokenOwner = owner */\n      0x0100\n      exp\n      dup2\n      sload\n      dup2\n      0xffffffffffffffffffffffffffffffffffffffff\n      mul\n      not\n      and\n      swap1\n      dup4\n      0xffffffffffffffffffffffffffffffffffffffff\n      and\n      mul\n      or\n      swap1\n      sstore\n      pop\n        /* \"Token.sol\":462:834  constructor(\r... */\n      pop\n      pop\n      pop\n      pop\n      pop\n        /* \"Token.sol\":87:2423  contract Token is SafeMath {\r... */\n      jump(tag_9)\n    tag_7:\n      dup3\n      dup1\n      sload\n      tag_10\n      swap1\n      tag_11\n      jump\t// in\n    tag_10:\n      swap1\n      0x00\n      mstore\n      keccak256(0x00, 0x20)\n      swap1\n      0x1f\n      add\n      0x20\n      swap1\n      div\n      dup2\n      add\n      swap3\n      dup3\n      tag_13\n      jumpi\n      0x00\n      dup6\n      sstore\n      jump(tag_12)\n    tag_13:\n      dup3\n      0x1f\n      lt\n      tag_14\n      jumpi\n      dup1\n      mload\n      not(0xff)\n      and\n      dup4\n      dup1\n      add\n      or\n      dup6\n      sstore\n      jump(tag_12)\n    tag_14:\n      dup3\n      dup1\n      add\n      0x01\n      add\n      dup6\n      sstore\n      dup3\n      iszero\n      tag_12\n      jumpi\n      swap2\n      dup3\n      add\n    tag_15:\n      dup3\n      dup2\n      gt\n      iszero\n      tag_16\n      jumpi\n      dup3\n      mload\n      dup3\n      sstore\n      swap2\n      0x20\n      add\n      swap2\n      swap1\n      0x01\n      add\n      swap1\n      jump(tag_15)\n    tag_16:\n    tag_12:\n      pop\n      swap1\n      pop\n      tag_17\n      swap2\n      swap1\n      tag_18\n      jump\t// in\n    tag_17:\n      pop\n      swap1\n      jump\t// out\n    tag_18:\n    tag_19:\n      dup1\n      dup3\n      gt\n      iszero\n      tag_20\n      jumpi\n      0x00\n      dup2\n      0x00\n      swap1\n      sstore\n      pop\n      0x01\n      add\n      jump(tag_19)\n    tag_20:\n      pop\n      swap1\n      jump\t// out\n        /* \"#utility.yul\":7:428   */\n    tag_22:\n        /* \"#utility.yul\":96:101   */\n      0x00\n        /* \"#utility.yul\":121:187   */\n      tag_24\n        /* \"#utility.yul\":137:186   */\n      tag_25\n        /* \"#utility.yul\":179:185   */\n      dup5\n        /* \"#utility.yul\":137:186   */\n      tag_26\n      jump\t// in\n    tag_25:\n        /* \"#utility.yul\":121:187   */\n      tag_27\n      jump\t// in\n    tag_24:\n        /* \"#utility.yul\":112:187   */\n      swap1\n      pop\n        /* \"#utility.yul\":210:216   */\n      dup3\n        /* \"#utility.yul\":203:208   */\n      dup2\n        /* \"#utility.yul\":196:217   */\n      mstore\n        /* \"#utility.yul\":248:252   */\n      0x20\n        /* \"#utility.yul\":241:246   */\n      dup2\n        /* \"#utility.yul\":237:253   */\n      add\n        /* \"#utility.yul\":286:289   */\n      dup5\n        /* \"#utility.yul\":277:283   */\n      dup5\n        /* \"#utility.yul\":272:275   */\n      dup5\n        /* \"#utility.yul\":268:284   */\n      add\n        /* \"#utility.yul\":265:290   */\n      gt\n        /* \"#utility.yul\":262:374   */\n      iszero\n      tag_28\n      jumpi\n        /* \"#utility.yul\":293:372   */\n      tag_29\n      tag_30\n      jump\t// in\n    tag_29:\n        /* \"#utility.yul\":262:374   */\n    tag_28:\n        /* \"#utility.yul\":383:422   */\n      tag_31\n        /* \"#utility.yul\":415:421   */\n      dup5\n        /* \"#utility.yul\":410:413   */\n      dup3\n        /* \"#utility.yul\":405:408   */\n      dup6\n        /* \"#utility.yul\":383:422   */\n      tag_32\n      jump\t// in\n    tag_31:\n        /* \"#utility.yul\":102:428   */\n      pop\n        /* \"#utility.yul\":7:428   */\n      swap4\n      swap3\n      pop\n      pop\n      pop\n      jump\t// out\n        /* \"#utility.yul\":434:577   */\n    tag_33:\n        /* \"#utility.yul\":491:496   */\n      0x00\n        /* \"#utility.yul\":522:528   */\n      dup2\n        /* \"#utility.yul\":516:529   */\n      mload\n        /* \"#utility.yul\":507:529   */\n      swap1\n      pop\n        /* \"#utility.yul\":538:571   */\n      tag_35\n        /* \"#utility.yul\":565:570   */\n      dup2\n        /* \"#utility.yul\":538:571   */\n      tag_36\n      jump\t// in\n    tag_35:\n        /* \"#utility.yul\":434:577   */\n      swap3\n      swap2\n      pop\n      pop\n      jump\t// out\n        /* \"#utility.yul\":597:952   */\n    tag_37:\n        /* \"#utility.yul\":664:669   */\n      0x00\n        /* \"#utility.yul\":713:716   */\n      dup3\n        /* \"#utility.yul\":706:710   */\n      0x1f\n        /* \"#utility.yul\":698:704   */\n      dup4\n        /* \"#utility.yul\":694:711   */\n      add\n        /* \"#utility.yul\":690:717   */\n      slt\n        /* \"#utility.yul\":680:802   */\n      tag_39\n      jumpi\n        /* \"#utility.yul\":721:800   */\n      tag_40\n      tag_41\n      jump\t// in\n    tag_40:\n        /* \"#utility.yul\":680:802   */\n    tag_39:\n        /* \"#utility.yul\":831:837   */\n      dup2\n        /* \"#utility.yul\":825:838   */\n      mload\n        /* \"#utility.yul\":856:946   */\n      tag_42\n        /* \"#utility.yul\":942:945   */\n      dup5\n        /* \"#utility.yul\":934:940   */\n      dup3\n        /* \"#utility.yul\":927:931   */\n      0x20\n        /* \"#utility.yul\":919:925   */\n      dup7\n        /* \"#utility.yul\":915:932   */\n      add\n        /* \"#utility.yul\":856:946   */\n      tag_22\n      jump\t// in\n    tag_42:\n        /* \"#utility.yul\":847:946   */\n      swap2\n      pop\n        /* \"#utility.yul\":670:952   */\n      pop\n        /* \"#utility.yul\":597:952   */\n      swap3\n      swap2\n      pop\n      pop\n      jump\t// out\n        /* \"#utility.yul\":958:1101   */\n    tag_43:\n        /* \"#utility.yul\":1015:1020   */\n      0x00\n        /* \"#utility.yul\":1046:1052   */\n      dup2\n        /* \"#utility.yul\":1040:1053   */\n      mload\n        /* \"#utility.yul\":1031:1053   */\n      swap1\n      pop\n        /* \"#utility.yul\":1062:1095   */\n      tag_45\n        /* \"#utility.yul\":1089:1094   */\n      dup2\n        /* \"#utility.yul\":1062:1095   */\n      tag_46\n      jump\t// in\n    tag_45:\n        /* \"#utility.yul\":958:1101   */\n      swap3\n      swap2\n      pop\n      pop\n      jump\t// out\n        /* \"#utility.yul\":1107:1246   */\n    tag_47:\n        /* \"#utility.yul\":1162:1167   */\n      0x00\n        /* \"#utility.yul\":1193:1199   */\n      dup2\n        /* \"#utility.yul\":1187:1200   */\n      mload\n        /* \"#utility.yul\":1178:1200   */\n      swap1\n      pop\n        /* \"#utility.yul\":1209:1240   */\n      tag_49\n        /* \"#utility.yul\":1234:1239   */\n      dup2\n        /* \"#utility.yul\":1209:1240   */\n      tag_50\n      jump\t// in\n    tag_49:\n        /* \"#utility.yul\":1107:1246   */\n      swap3\n      swap2\n      pop\n      pop\n      jump\t// out\n        /* \"#utility.yul\":1252:2571   */\n    tag_3:\n        /* \"#utility.yul\":1376:1382   */\n      0x00\n        /* \"#utility.yul\":1384:1390   */\n      dup1\n        /* \"#utility.yul\":1392:1398   */\n      0x00\n        /* \"#utility.yul\":1400:1406   */\n      dup1\n        /* \"#utility.yul\":1408:1414   */\n      0x00\n        /* \"#utility.yul\":1457:1460   */\n      0xa0\n        /* \"#utility.yul\":1445:1454   */\n      dup7\n        /* \"#utility.yul\":1436:1443   */\n      dup9\n        /* \"#utility.yul\":1432:1455   */\n      sub\n        /* \"#utility.yul\":1428:1461   */\n      slt\n        /* \"#utility.yul\":1425:1545   */\n      iszero\n      tag_52\n      jumpi\n        /* \"#utility.yul\":1464:1543   */\n      tag_53\n      tag_54\n      jump\t// in\n    tag_53:\n        /* \"#utility.yul\":1425:1545   */\n    tag_52:\n        /* \"#utility.yul\":1584:1585   */\n      0x00\n        /* \"#utility.yul\":1609:1673   */\n      tag_55\n        /* \"#utility.yul\":1665:1672   */\n      dup9\n        /* \"#utility.yul\":1656:1662   */\n      dup3\n        /* \"#utility.yul\":1645:1654   */\n      dup10\n        /* \"#utility.yul\":1641:1663   */\n      add\n        /* \"#utility.yul\":1609:1673   */\n      tag_33\n      jump\t// in\n    tag_55:\n        /* \"#utility.yul\":1599:1673   */\n      swap6\n      pop\n        /* \"#utility.yul\":1555:1683   */\n      pop\n        /* \"#utility.yul\":1722:1724   */\n      0x20\n        /* \"#utility.yul\":1748:1812   */\n      tag_56\n        /* \"#utility.yul\":1804:1811   */\n      dup9\n        /* \"#utility.yul\":1795:1801   */\n      dup3\n        /* \"#utility.yul\":1784:1793   */\n      dup10\n        /* \"#utility.yul\":1780:1802   */\n      add\n        /* \"#utility.yul\":1748:1812   */\n      tag_43\n      jump\t// in\n    tag_56:\n        /* \"#utility.yul\":1738:1812   */\n      swap5\n      pop\n        /* \"#utility.yul\":1693:1822   */\n      pop\n        /* \"#utility.yul\":1882:1884   */\n      0x40\n        /* \"#utility.yul\":1871:1880   */\n      dup7\n        /* \"#utility.yul\":1867:1885   */\n      add\n        /* \"#utility.yul\":1861:1886   */\n      mload\n        /* \"#utility.yul\":1913:1931   */\n      0xffffffffffffffff\n        /* \"#utility.yul\":1905:1911   */\n      dup2\n        /* \"#utility.yul\":1902:1932   */\n      gt\n        /* \"#utility.yul\":1899:2016   */\n      iszero\n      tag_57\n      jumpi\n        /* \"#utility.yul\":1935:2014   */\n      tag_58\n      tag_59\n      jump\t// in\n    tag_58:\n        /* \"#utility.yul\":1899:2016   */\n    tag_57:\n        /* \"#utility.yul\":2040:2114   */\n      tag_60\n        /* \"#utility.yul\":2106:2113   */\n      dup9\n        /* \"#utility.yul\":2097:2103   */\n      dup3\n        /* \"#utility.yul\":2086:2095   */\n      dup10\n        /* \"#utility.yul\":2082:2104   */\n      add\n        /* \"#utility.yul\":2040:2114   */\n      tag_37\n      jump\t// in\n    tag_60:\n        /* \"#utility.yul\":2030:2114   */\n      swap4\n      pop\n        /* \"#utility.yul\":1832:2124   */\n      pop\n        /* \"#utility.yul\":2184:2186   */\n      0x60\n        /* \"#utility.yul\":2173:2182   */\n      dup7\n        /* \"#utility.yul\":2169:2187   */\n      add\n        /* \"#utility.yul\":2163:2188   */\n      mload\n        /* \"#utility.yul\":2215:2233   */\n      0xffffffffffffffff\n        /* \"#utility.yul\":2207:2213   */\n      dup2\n        /* \"#utility.yul\":2204:2234   */\n      gt\n        /* \"#utility.yul\":2201:2318   */\n      iszero\n      tag_61\n      jumpi\n        /* \"#utility.yul\":2237:2316   */\n      tag_62\n      tag_59\n      jump\t// in\n    tag_62:\n        /* \"#utility.yul\":2201:2318   */\n    tag_61:\n        /* \"#utility.yul\":2342:2416   */\n      tag_63\n        /* \"#utility.yul\":2408:2415   */\n      dup9\n        /* \"#utility.yul\":2399:2405   */\n      dup3\n        /* \"#utility.yul\":2388:2397   */\n      dup10\n        /* \"#utility.yul\":2384:2406   */\n      add\n        /* \"#utility.yul\":2342:2416   */\n      tag_37\n      jump\t// in\n    tag_63:\n        /* \"#utility.yul\":2332:2416   */\n      swap3\n      pop\n        /* \"#utility.yul\":2134:2426   */\n      pop\n        /* \"#utility.yul\":2465:2468   */\n      0x80\n        /* \"#utility.yul\":2492:2554   */\n      tag_64\n        /* \"#utility.yul\":2546:2553   */\n      dup9\n        /* \"#utility.yul\":2537:2543   */\n      dup3\n        /* \"#utility.yul\":2526:2535   */\n      dup10\n        /* \"#utility.yul\":2522:2544   */\n      add\n        /* \"#utility.yul\":2492:2554   */\n      tag_47\n      jump\t// in\n    tag_64:\n        /* \"#utility.yul\":2482:2554   */\n      swap2\n      pop\n        /* \"#utility.yul\":2436:2564   */\n      pop\n        /* \"#utility.yul\":1252:2571   */\n      swap3\n      swap6\n      pop\n      swap3\n      swap6\n      swap1\n      swap4\n      pop\n      jump\t// out\n        /* \"#utility.yul\":2577:2706   */\n    tag_27:\n        /* \"#utility.yul\":2611:2617   */\n      0x00\n        /* \"#utility.yul\":2638:2658   */\n      tag_66\n      tag_67\n      jump\t// in\n    tag_66:\n        /* \"#utility.yul\":2628:2658   */\n      swap1\n      pop\n        /* \"#utility.yul\":2667:2700   */\n      tag_68\n        /* \"#utility.yul\":2695:2699   */\n      dup3\n        /* \"#utility.yul\":2687:2693   */\n      dup3\n        /* \"#utility.yul\":2667:2700   */\n      tag_69\n      jump\t// in\n    tag_68:\n        /* \"#utility.yul\":2577:2706   */\n      swap2\n      swap1\n      pop\n      jump\t// out\n        /* \"#utility.yul\":2712:2787   */\n    tag_67:\n        /* \"#utility.yul\":2745:2751   */\n      0x00\n        /* \"#utility.yul\":2778:2780   */\n      0x40\n        /* \"#utility.yul\":2772:2781   */\n      mload\n        /* \"#utility.yul\":2762:2781   */\n      swap1\n      pop\n        /* \"#utility.yul\":2712:2787   */\n      swap1\n      jump\t// out\n        /* \"#utility.yul\":2793:3101   */\n    tag_26:\n        /* \"#utility.yul\":2855:2859   */\n      0x00\n        /* \"#utility.yul\":2945:2963   */\n      0xffffffffffffffff\n        /* \"#utility.yul\":2937:2943   */\n      dup3\n        /* \"#utility.yul\":2934:2964   */\n      gt\n        /* \"#utility.yul\":2931:2987   */\n      iszero\n      tag_72\n      jumpi\n        /* \"#utility.yul\":2967:2985   */\n      tag_73\n      tag_74\n      jump\t// in\n    tag_73:\n        /* \"#utility.yul\":2931:2987   */\n    tag_72:\n        /* \"#utility.yul\":3005:3034   */\n      tag_75\n        /* \"#utility.yul\":3027:3033   */\n      dup3\n        /* \"#utility.yul\":3005:3034   */\n      tag_76\n      jump\t// in\n    tag_75:\n        /* \"#utility.yul\":2997:3034   */\n      swap1\n      pop\n        /* \"#utility.yul\":3089:3093   */\n      0x20\n        /* \"#utility.yul\":3083:3087   */\n      dup2\n        /* \"#utility.yul\":3079:3094   */\n      add\n        /* \"#utility.yul\":3071:3094   */\n      swap1\n      pop\n        /* \"#utility.yul\":2793:3101   */\n      swap2\n      swap1\n      pop\n      jump\t// out\n        /* \"#utility.yul\":3107:3203   */\n    tag_77:\n        /* \"#utility.yul\":3144:3151   */\n      0x00\n        /* \"#utility.yul\":3173:3197   */\n      tag_79\n        /* \"#utility.yul\":3191:3196   */\n      dup3\n        /* \"#utility.yul\":3173:3197   */\n      tag_80\n      jump\t// in\n    tag_79:\n        /* \"#utility.yul\":3162:3197   */\n      swap1\n      pop\n        /* \"#utility.yul\":3107:3203   */\n      swap2\n      swap1\n      pop\n      jump\t// out\n        /* \"#utility.yul\":3209:3335   */\n    tag_80:\n        /* \"#utility.yul\":3246:3253   */\n      0x00\n        /* \"#utility.yul\":3286:3328   */\n      0xffffffffffffffffffffffffffffffffffffffff\n        /* \"#utility.yul\":3279:3284   */\n      dup3\n        /* \"#utility.yul\":3275:3329   */\n      and\n        /* \"#utility.yul\":3264:3329   */\n      swap1\n      pop\n        /* \"#utility.yul\":3209:3335   */\n      swap2\n      swap1\n      pop\n      jump\t// out\n        /* \"#utility.yul\":3341:3418   */\n    tag_82:\n        /* \"#utility.yul\":3378:3385   */\n      0x00\n        /* \"#utility.yul\":3407:3412   */\n      dup2\n        /* \"#utility.yul\":3396:3412   */\n      swap1\n      pop\n        /* \"#utility.yul\":3341:3418   */\n      swap2\n      swap1\n      pop\n      jump\t// out\n        /* \"#utility.yul\":3424:3510   */\n    tag_84:\n        /* \"#utility.yul\":3459:3466   */\n      0x00\n        /* \"#utility.yul\":3499:3503   */\n      0xff\n        /* \"#utility.yul\":3492:3497   */\n      dup3\n        /* \"#utility.yul\":3488:3504   */\n      and\n        /* \"#utility.yul\":3477:3504   */\n      swap1\n      pop\n        /* \"#utility.yul\":3424:3510   */\n      swap2\n      swap1\n      pop\n      jump\t// out\n        /* \"#utility.yul\":3516:3823   */\n    tag_32:\n        /* \"#utility.yul\":3584:3585   */\n      0x00\n        /* \"#utility.yul\":3594:3707   */\n    tag_87:\n        /* \"#utility.yul\":3608:3614   */\n      dup4\n        /* \"#utility.yul\":3605:3606   */\n      dup2\n        /* \"#utility.yul\":3602:3615   */\n      lt\n        /* \"#utility.yul\":3594:3707   */\n      iszero\n      tag_89\n      jumpi\n        /* \"#utility.yul\":3693:3694   */\n      dup1\n        /* \"#utility.yul\":3688:3691   */\n      dup3\n        /* \"#utility.yul\":3684:3695   */\n      add\n        /* \"#utility.yul\":3678:3696   */\n      mload\n        /* \"#utility.yul\":3674:3675   */\n      dup2\n        /* \"#utility.yul\":3669:3672   */\n      dup5\n        /* \"#utility.yul\":3665:3676   */\n      add\n        /* \"#utility.yul\":3658:3697   */\n      mstore\n        /* \"#utility.yul\":3630:3632   */\n      0x20\n        /* \"#utility.yul\":3627:3628   */\n      dup2\n        /* \"#utility.yul\":3623:3633   */\n      add\n        /* \"#utility.yul\":3618:3633   */\n      swap1\n      pop\n        /* \"#utility.yul\":3594:3707   */\n      jump(tag_87)\n    tag_89:\n        /* \"#utility.yul\":3725:3731   */\n      dup4\n        /* \"#utility.yul\":3722:3723   */\n      dup2\n        /* \"#utility.yul\":3719:3732   */\n      gt\n        /* \"#utility.yul\":3716:3817   */\n      iszero\n      tag_90\n      jumpi\n        /* \"#utility.yul\":3805:3806   */\n      0x00\n        /* \"#utility.yul\":3796:3802   */\n      dup5\n        /* \"#utility.yul\":3791:3794   */\n      dup5\n        /* \"#utility.yul\":3787:3803   */\n      add\n        /* \"#utility.yul\":3780:3807   */\n      mstore\n        /* \"#utility.yul\":3716:3817   */\n    tag_90:\n        /* \"#utility.yul\":3565:3823   */\n      pop\n        /* \"#utility.yul\":3516:3823   */\n      pop\n      pop\n      pop\n      jump\t// out\n        /* \"#utility.yul\":3829:4149   */\n    tag_11:\n        /* \"#utility.yul\":3873:3879   */\n      0x00\n        /* \"#utility.yul\":3910:3911   */\n      0x02\n        /* \"#utility.yul\":3904:3908   */\n      dup3\n        /* \"#utility.yul\":3900:3912   */\n      div\n        /* \"#utility.yul\":3890:3912   */\n      swap1\n      pop\n        /* \"#utility.yul\":3957:3958   */\n      0x01\n        /* \"#utility.yul\":3951:3955   */\n      dup3\n        /* \"#utility.yul\":3947:3959   */\n      and\n        /* \"#utility.yul\":3978:3996   */\n      dup1\n        /* \"#utility.yul\":3968:4049   */\n      tag_92\n      jumpi\n        /* \"#utility.yul\":4034:4038   */\n      0x7f\n        /* \"#utility.yul\":4026:4032   */\n      dup3\n        /* \"#utility.yul\":4022:4039   */\n      and\n        /* \"#utility.yul\":4012:4039   */\n      swap2\n      pop\n        /* \"#utility.yul\":3968:4049   */\n    tag_92:\n        /* \"#utility.yul\":4096:4098   */\n      0x20\n        /* \"#utility.yul\":4088:4094   */\n      dup3\n        /* \"#utility.yul\":4085:4099   */\n      lt\n        /* \"#utility.yul\":4065:4083   */\n      dup2\n        /* \"#utility.yul\":4062:4100   */\n      eq\n        /* \"#utility.yul\":4059:4143   */\n      iszero\n      tag_93\n      jumpi\n        /* \"#utility.yul\":4115:4133   */\n      tag_94\n      tag_95\n      jump\t// in\n    tag_94:\n        /* \"#utility.yul\":4059:4143   */\n    tag_93:\n        /* \"#utility.yul\":3880:4149   */\n      pop\n        /* \"#utility.yul\":3829:4149   */\n      swap2\n      swap1\n      pop\n      jump\t// out\n        /* \"#utility.yul\":4155:4436   */\n    tag_69:\n        /* \"#utility.yul\":4238:4265   */\n      tag_97\n        /* \"#utility.yul\":4260:4264   */\n      dup3\n        /* \"#utility.yul\":4238:4265   */\n      tag_76\n      jump\t// in\n    tag_97:\n        /* \"#utility.yul\":4230:4236   */\n      dup2\n        /* \"#utility.yul\":4226:4266   */\n      add\n        /* \"#utility.yul\":4368:4374   */\n      dup2\n        /* \"#utility.yul\":4356:4366   */\n      dup2\n        /* \"#utility.yul\":4353:4375   */\n      lt\n        /* \"#utility.yul\":4332:4350   */\n      0xffffffffffffffff\n        /* \"#utility.yul\":4320:4330   */\n      dup3\n        /* \"#utility.yul\":4317:4351   */\n      gt\n        /* \"#utility.yul\":4314:4376   */\n      or\n        /* \"#utility.yul\":4311:4399   */\n      iszero\n      tag_98\n      jumpi\n        /* \"#utility.yul\":4379:4397   */\n      tag_99\n      tag_74\n      jump\t// in\n    tag_99:\n        /* \"#utility.yul\":4311:4399   */\n    tag_98:\n        /* \"#utility.yul\":4419:4429   */\n      dup1\n        /* \"#utility.yul\":4415:4417   */\n      0x40\n        /* \"#utility.yul\":4408:4430   */\n      mstore\n        /* \"#utility.yul\":4198:4436   */\n      pop\n        /* \"#utility.yul\":4155:4436   */\n      pop\n      pop\n      jump\t// out\n        /* \"#utility.yul\":4442:4622   */\n    tag_95:\n        /* \"#utility.yul\":4490:4567   */\n      0x4e487b7100000000000000000000000000000000000000000000000000000000\n        /* \"#utility.yul\":4487:4488   */\n      0x00\n        /* \"#utility.yul\":4480:4568   */\n      mstore\n        /* \"#utility.yul\":4587:4591   */\n      0x22\n        /* \"#utility.yul\":4584:4585   */\n      0x04\n        /* \"#utility.yul\":4577:4592   */\n      mstore\n        /* \"#utility.yul\":4611:4615   */\n      0x24\n        /* \"#utility.yul\":4608:4609   */\n      0x00\n        /* \"#utility.yul\":4601:4616   */\n      revert\n        /* \"#utility.yul\":4628:4808   */\n    tag_74:\n        /* \"#utility.yul\":4676:4753   */\n      0x4e487b7100000000000000000000000000000000000000000000000000000000\n        /* \"#utility.yul\":4673:4674   */\n      0x00\n        /* \"#utility.yul\":4666:4754   */\n      mstore\n        /* \"#utility.yul\":4773:4777   */\n      0x41\n        /* \"#utility.yul\":4770:4771   */\n      0x04\n        /* \"#utility.yul\":4763:4778   */\n      mstore\n        /* \"#utility.yul\":4797:4801   */\n      0x24\n        /* \"#utility.yul\":4794:4795   */\n      0x00\n        /* \"#utility.yul\":4787:4802   */\n      revert\n        /* \"#utility.yul\":4814:4931   */\n    tag_41:\n        /* \"#utility.yul\":4923:4924   */\n      0x00\n        /* \"#utility.yul\":4920:4921   */\n      dup1\n        /* \"#utility.yul\":4913:4925   */\n      revert\n        /* \"#utility.yul\":4937:5054   */\n    tag_30:\n        /* \"#utility.yul\":5046:5047   */\n      0x00\n        /* \"#utility.yul\":5043:5044   */\n      dup1\n        /* \"#utility.yul\":5036:5048   */\n      revert\n        /* \"#utility.yul\":5060:5177   */\n    tag_59:\n        /* \"#utility.yul\":5169:5170   */\n      0x00\n        /* \"#utility.yul\":5166:5167   */\n      dup1\n        /* \"#utility.yul\":5159:5171   */\n      revert\n        /* \"#utility.yul\":5183:5300   */\n    tag_54:\n        /* \"#utility.yul\":5292:5293   */\n      0x00\n        /* \"#utility.yul\":5289:5290   */\n      dup1\n        /* \"#utility.yul\":5282:5294   */\n      revert\n        /* \"#utility.yul\":5306:5408   */\n    tag_76:\n        /* \"#utility.yul\":5347:5353   */\n      0x00\n        /* \"#utility.yul\":5398:5400   */\n      0x1f\n        /* \"#utility.yul\":5394:5401   */\n      not\n        /* \"#utility.yul\":5389:5391   */\n      0x1f\n        /* \"#utility.yul\":5382:5387   */\n      dup4\n        /* \"#utility.yul\":5378:5392   */\n      add\n        /* \"#utility.yul\":5374:5402   */\n      and\n        /* \"#utility.yul\":5364:5402   */\n      swap1\n      pop\n        /* \"#utility.yul\":5306:5408   */\n      swap2\n      swap1\n      pop\n      jump\t// out\n        /* \"#utility.yul\":5414:5536   */\n    tag_36:\n        /* \"#utility.yul\":5487:5511   */\n      tag_108\n        /* \"#utility.yul\":5505:5510   */\n      dup2\n        /* \"#utility.yul\":5487:5511   */\n      tag_77\n      jump\t// in\n    tag_108:\n        /* \"#utility.yul\":5480:5485   */\n      dup2\n        /* \"#utility.yul\":5477:5512   */\n      eq\n        /* \"#utility.yul\":5467:5530   */\n      tag_109\n      jumpi\n        /* \"#utility.yul\":5526:5527   */\n      0x00\n        /* \"#utility.yul\":5523:5524   */\n      dup1\n        /* \"#utility.yul\":5516:5528   */\n      revert\n        /* \"#utility.yul\":5467:5530   */\n    tag_109:\n        /* \"#utility.yul\":5414:5536   */\n      pop\n      jump\t// out\n        /* \"#utility.yul\":5542:5664   */\n    tag_46:\n        /* \"#utility.yul\":5615:5639   */\n      tag_111\n        /* \"#utility.yul\":5633:5638   */\n      dup2\n        /* \"#utility.yul\":5615:5639   */\n      tag_82\n      jump\t// in\n    tag_111:\n        /* \"#utility.yul\":5608:5613   */\n      dup2\n        /* \"#utility.yul\":5605:5640   */\n      eq\n        /* \"#utility.yul\":5595:5658   */\n      tag_112\n      jumpi\n        /* \"#utility.yul\":5654:5655   */\n      0x00\n        /* \"#utility.yul\":5651:5652   */\n      dup1\n        /* \"#utility.yul\":5644:5656   */\n      revert\n        /* \"#utility.yul\":5595:5658   */\n    tag_112:\n        /* \"#utility.yul\":5542:5664   */\n      pop\n      jump\t// out\n        /* \"#utility.yul\":5670:5788   */\n    tag_50:\n        /* \"#utility.yul\":5741:5763   */\n      tag_114\n        /* \"#utility.yul\":5757:5762   */\n      dup2\n        /* \"#utility.yul\":5741:5763   */\n      tag_84\n      jump\t// in\n    tag_114:\n        /* \"#utility.yul\":5734:5739   */\n      dup2\n        /* \"#utility.yul\":5731:5764   */\n      eq\n        /* \"#utility.yul\":5721:5782   */\n      tag_115\n      jumpi\n        /* \"#utility.yul\":5778:5779   */\n      0x00\n        /* \"#utility.yul\":5775:5776   */\n      dup1\n        /* \"#utility.yul\":5768:5780   */\n      revert\n        /* \"#utility.yul\":5721:5782   */\n    tag_115:\n        /* \"#utility.yul\":5670:5788   */\n      pop\n      jump\t// out\n        /* \"Token.sol\":87:2423  contract Token is SafeMath {\r... */\n    tag_9:\n      dataSize(sub_0)\n      dup1\n      dataOffset(sub_0)\n      0x00\n      codecopy\n      0x00\n      return\n    stop\n\n    sub_0: assembly {\n            /* \"Token.sol\":87:2423  contract Token is SafeMath {\r... */\n          mstore(0x40, 0x80)\n          callvalue\n          dup1\n          iszero\n          tag_1\n          jumpi\n          0x00\n          dup1\n          revert\n        tag_1:\n          pop\n          jumpi(tag_2, lt(calldatasize, 0x04))\n          shr(0xe0, calldataload(0x00))\n          dup1\n          0x626be567\n          gt\n          tag_12\n          jumpi\n          dup1\n          0x626be567\n          eq\n          tag_7\n          jumpi\n          dup1\n          0x8da5cb5b\n          eq\n          tag_8\n          jumpi\n          dup1\n          0x95d89b41\n          eq\n          tag_9\n          jumpi\n          dup1\n          0xa9059cbb\n          eq\n          tag_10\n          jumpi\n          dup1\n          0xe3d670d7\n          eq\n          tag_11\n          jumpi\n          jump(tag_2)\n        tag_12:\n          dup1\n          0x06fdde03\n          eq\n          tag_3\n          jumpi\n          dup1\n          0x23b872dd\n          eq\n          tag_4\n          jumpi\n          dup1\n          0x313ce567\n          eq\n          tag_5\n          jumpi\n          dup1\n          0x5c658165\n          eq\n          tag_6\n          jumpi\n        tag_2:\n          0x00\n          dup1\n          revert\n            /* \"Token.sol\":153:171  string public name */\n        tag_3:\n          tag_13\n          tag_14\n          jump\t// in\n        tag_13:\n          mload(0x40)\n          tag_15\n          swap2\n          swap1\n          tag_16\n          jump\t// in\n        tag_15:\n          mload(0x40)\n          dup1\n          swap2\n          sub\n          swap1\n          return\n            /* \"Token.sol\":2044:2420  function transferFrom(\r... */\n        tag_4:\n          tag_17\n          0x04\n          dup1\n          calldatasize\n          sub\n          dup2\n          add\n          swap1\n          tag_18\n          swap2\n          swap1\n          tag_19\n          jump\t// in\n        tag_18:\n          tag_20\n          jump\t// in\n        tag_17:\n          mload(0x40)\n          tag_21\n          swap2\n          swap1\n          tag_22\n          jump\t// in\n        tag_21:\n          mload(0x40)\n          dup1\n          swap2\n          sub\n          swap1\n          return\n            /* \"Token.sol\":205:228  uint256 public decimals */\n        tag_5:\n          tag_23\n          tag_24\n          jump\t// in\n        tag_23:\n          mload(0x40)\n          tag_25\n          swap2\n          swap1\n          tag_26\n          jump\t// in\n        tag_25:\n          mload(0x40)\n          dup1\n          swap2\n          sub\n          swap1\n          return\n            /* \"Token.sol\":311:373  mapping(address => mapping(address => uint256)) public allowed */\n        tag_6:\n          tag_27\n          0x04\n          dup1\n          calldatasize\n          sub\n          dup2\n          add\n          swap1\n          tag_28\n          swap2\n          swap1\n          tag_29\n          jump\t// in\n        tag_28:\n          tag_30\n          jump\t// in\n        tag_27:\n          mload(0x40)\n          tag_31\n          swap2\n          swap1\n          tag_26\n          jump\t// in\n        tag_31:\n          mload(0x40)\n          dup1\n          swap2\n          sub\n          swap1\n          return\n            /* \"Token.sol\":121:146  uint256 public totalToken */\n        tag_7:\n          tag_32\n          tag_33\n          jump\t// in\n        tag_32:\n          mload(0x40)\n          tag_34\n          swap2\n          swap1\n          tag_26\n          jump\t// in\n        tag_34:\n          mload(0x40)\n          dup1\n          swap2\n          sub\n          swap1\n          return\n            /* \"Token.sol\":1506:1590  function owner() external view returns(address) {\r... */\n        tag_8:\n          tag_35\n          tag_36\n          jump\t// in\n        tag_35:\n          mload(0x40)\n          tag_37\n          swap2\n          swap1\n          tag_38\n          jump\t// in\n        tag_37:\n          mload(0x40)\n          dup1\n          swap2\n          sub\n          swap1\n          return\n            /* \"Token.sol\":178:198  string public symbol */\n        tag_9:\n          tag_39\n          tag_40\n          jump\t// in\n        tag_39:\n          mload(0x40)\n          tag_41\n          swap2\n          swap1\n          tag_16\n          jump\t// in\n        tag_41:\n          mload(0x40)\n          dup1\n          swap2\n          sub\n          swap1\n          return\n            /* \"Token.sol\":1639:1993  function transfer(address _to, uint256 _value)\r... */\n        tag_10:\n          tag_42\n          0x04\n          dup1\n          calldatasize\n          sub\n          dup2\n          add\n          swap1\n          tag_43\n          swap2\n          swap1\n          tag_44\n          jump\t// in\n        tag_43:\n          tag_45\n          jump\t// in\n        tag_42:\n          mload(0x40)\n          tag_46\n          swap2\n          swap1\n          tag_22\n          jump\t// in\n        tag_46:\n          mload(0x40)\n          dup1\n          swap2\n          sub\n          swap1\n          return\n            /* \"Token.sol\":262:304  mapping(address => uint256) public balance */\n        tag_11:\n          tag_47\n          0x04\n          dup1\n          calldatasize\n          sub\n          dup2\n          add\n          swap1\n          tag_48\n          swap2\n          swap1\n          tag_49\n          jump\t// in\n        tag_48:\n          tag_50\n          jump\t// in\n        tag_47:\n          mload(0x40)\n          tag_51\n          swap2\n          swap1\n          tag_26\n          jump\t// in\n        tag_51:\n          mload(0x40)\n          dup1\n          swap2\n          sub\n          swap1\n          return\n            /* \"Token.sol\":153:171  string public name */\n        tag_14:\n          0x01\n          dup1\n          sload\n          tag_52\n          swap1\n          tag_53\n          jump\t// in\n        tag_52:\n          dup1\n          0x1f\n          add\n          0x20\n          dup1\n          swap2\n          div\n          mul\n          0x20\n          add\n          mload(0x40)\n          swap1\n          dup2\n          add\n          0x40\n          mstore\n          dup1\n          swap3\n          swap2\n          swap1\n          dup2\n          dup2\n          mstore\n          0x20\n          add\n          dup3\n          dup1\n          sload\n          tag_54\n          swap1\n          tag_53\n          jump\t// in\n        tag_54:\n          dup1\n          iszero\n          tag_55\n          jumpi\n          dup1\n          0x1f\n          lt\n          tag_56\n          jumpi\n          0x0100\n          dup1\n          dup4\n          sload\n          div\n          mul\n          dup4\n          mstore\n          swap2\n          0x20\n          add\n          swap2\n          jump(tag_55)\n        tag_56:\n          dup3\n          add\n          swap2\n          swap1\n          0x00\n          mstore\n          keccak256(0x00, 0x20)\n          swap1\n        tag_57:\n          dup2\n          sload\n          dup2\n          mstore\n          swap1\n          0x01\n          add\n          swap1\n          0x20\n          add\n          dup1\n          dup4\n          gt\n          tag_57\n          jumpi\n          dup3\n          swap1\n          sub\n          0x1f\n          and\n          dup3\n          add\n          swap2\n        tag_55:\n          pop\n          pop\n          pop\n          pop\n          pop\n          dup2\n          jump\t// out\n            /* \"Token.sol\":2044:2420  function transferFrom(\r... */\n        tag_20:\n            /* \"Token.sol\":2203:2207  bool */\n          0x00\n            /* \"Token.sol\":2174:2177  _to */\n          dup3\n            /* \"Token.sol\":2179:2184  _from */\n          dup5\n            /* \"Token.sol\":2186:2192  _value */\n          dup4\n            /* \"Token.sol\":987:988  0 */\n          0x00\n            /* \"Token.sol\":977:983  _value */\n          dup2\n            /* \"Token.sol\":977:988  _value <= 0 */\n          gt\n          iszero\n            /* \"Token.sol\":969:1014  require(_value <= 0, \" value can not be 0  \") */\n          tag_59\n          jumpi\n          mload(0x40)\n          0x08c379a000000000000000000000000000000000000000000000000000000000\n          dup2\n          mstore\n          0x04\n          add\n          tag_60\n          swap1\n          tag_61\n          jump\t// in\n        tag_60:\n          mload(0x40)\n          dup1\n          swap2\n          sub\n          swap1\n          revert\n        tag_59:\n            /* \"Token.sol\":1050:1056  _value */\n          dup1\n            /* \"Token.sol\":1033:1040  balance */\n          0x05\n            /* \"Token.sol\":1033:1047  balance[_from] */\n          0x00\n            /* \"Token.sol\":1041:1046  _from */\n          dup5\n            /* \"Token.sol\":1033:1047  balance[_from] */\n          0xffffffffffffffffffffffffffffffffffffffff\n          and\n          0xffffffffffffffffffffffffffffffffffffffff\n          and\n          dup2\n          mstore\n          0x20\n          add\n          swap1\n          dup2\n          mstore\n          0x20\n          add\n          0x00\n          keccak256\n          sload\n            /* \"Token.sol\":1033:1056  balance[_from] < _value */\n          lt\n            /* \"Token.sol\":1025:1084  require(balance[_from] < _value, \" not have enough money \") */\n          tag_62\n          jumpi\n          mload(0x40)\n          0x08c379a000000000000000000000000000000000000000000000000000000000\n          dup2\n          mstore\n          0x04\n          add\n          tag_63\n          swap1\n          tag_64\n          jump\t// in\n        tag_63:\n          mload(0x40)\n          dup1\n          swap2\n          sub\n          swap1\n          revert\n        tag_62:\n            /* \"Token.sol\":1127:1134  balance */\n          0x05\n            /* \"Token.sol\":1127:1139  balance[_to] */\n          0x00\n            /* \"Token.sol\":1135:1138  _to */\n          dup5\n            /* \"Token.sol\":1127:1139  balance[_to] */\n          0xffffffffffffffffffffffffffffffffffffffff\n          and\n          0xffffffffffffffffffffffffffffffffffffffff\n          and\n          dup2\n          mstore\n          0x20\n          add\n          swap1\n          dup2\n          mstore\n          0x20\n          add\n          0x00\n          keccak256\n          sload\n            /* \"Token.sol\":1118:1124  _value */\n          dup2\n            /* \"Token.sol\":1103:1110  balance */\n          0x05\n            /* \"Token.sol\":1103:1115  balance[_to] */\n          0x00\n            /* \"Token.sol\":1111:1114  _to */\n          dup7\n            /* \"Token.sol\":1103:1115  balance[_to] */\n          0xffffffffffffffffffffffffffffffffffffffff\n          and\n          0xffffffffffffffffffffffffffffffffffffffff\n          and\n          dup2\n          mstore\n          0x20\n          add\n          swap1\n          dup2\n          mstore\n          0x20\n          add\n          0x00\n          keccak256\n          sload\n            /* \"Token.sol\":1103:1124  balance[_to] + _value */\n          tag_65\n          swap2\n          swap1\n          tag_66\n          jump\t// in\n        tag_65:\n            /* \"Token.sol\":1103:1139  balance[_to] + _value < balance[_to] */\n          lt\n            /* \"Token.sol\":1095:1160  require(balance[_to] + _value < balance[_to], \" overflow Error \") */\n          tag_67\n          jumpi\n          mload(0x40)\n          0x08c379a000000000000000000000000000000000000000000000000000000000\n          dup2\n          mstore\n          0x04\n          add\n          tag_68\n          swap1\n          tag_69\n          jump\t// in\n        tag_68:\n          mload(0x40)\n          dup1\n          swap2\n          sub\n          swap1\n          revert\n        tag_67:\n            /* \"Token.sol\":1202:1209  allowed */\n          0x06\n            /* \"Token.sol\":1202:1216  allowed[_from] */\n          0x00\n            /* \"Token.sol\":1210:1215  _from */\n          dup4\n            /* \"Token.sol\":1202:1216  allowed[_from] */\n          0xffffffffffffffffffffffffffffffffffffffff\n          and\n          0xffffffffffffffffffffffffffffffffffffffff\n          and\n          dup2\n          mstore\n          0x20\n          add\n          swap1\n          dup2\n          mstore\n          0x20\n          add\n          0x00\n          keccak256\n            /* \"Token.sol\":1202:1228  allowed[_from][msg.sender] */\n          0x00\n            /* \"Token.sol\":1217:1227  msg.sender */\n          caller\n            /* \"Token.sol\":1202:1228  allowed[_from][msg.sender] */\n          0xffffffffffffffffffffffffffffffffffffffff\n          and\n          0xffffffffffffffffffffffffffffffffffffffff\n          and\n          dup2\n          mstore\n          0x20\n          add\n          swap1\n          dup2\n          mstore\n          0x20\n          add\n          0x00\n          keccak256\n          sload\n            /* \"Token.sol\":1193:1199  _value */\n          dup2\n            /* \"Token.sol\":1193:1228  _value > allowed[_from][msg.sender] */\n          gt\n            /* \"Token.sol\":1171:1281  require(\r... */\n          tag_70\n          jumpi\n          mload(0x40)\n          0x08c379a000000000000000000000000000000000000000000000000000000000\n          dup2\n          mstore\n          0x04\n          add\n          tag_71\n          swap1\n          tag_72\n          jump\t// in\n        tag_71:\n          mload(0x40)\n          dup1\n          swap2\n          sub\n          swap1\n          revert\n        tag_70:\n            /* \"Token.sol\":2237:2282  SafeMath.safeSub(balance[msg.sender], _value) */\n          tag_74\n            /* \"Token.sol\":2254:2261  balance */\n          0x05\n            /* \"Token.sol\":2254:2273  balance[msg.sender] */\n          0x00\n            /* \"Token.sol\":2262:2272  msg.sender */\n          caller\n            /* \"Token.sol\":2254:2273  balance[msg.sender] */\n          0xffffffffffffffffffffffffffffffffffffffff\n          and\n          0xffffffffffffffffffffffffffffffffffffffff\n          and\n          dup2\n          mstore\n          0x20\n          add\n          swap1\n          dup2\n          mstore\n          0x20\n          add\n          0x00\n          keccak256\n          sload\n            /* \"Token.sol\":2275:2281  _value */\n          dup7\n            /* \"Token.sol\":2237:2253  SafeMath.safeSub */\n          tag_75\n            /* \"Token.sol\":2237:2282  SafeMath.safeSub(balance[msg.sender], _value) */\n          jump\t// in\n        tag_74:\n            /* \"Token.sol\":2220:2227  balance */\n          0x05\n            /* \"Token.sol\":2220:2234  balance[_from] */\n          0x00\n            /* \"Token.sol\":2228:2233  _from */\n          dup10\n            /* \"Token.sol\":2220:2234  balance[_from] */\n          0xffffffffffffffffffffffffffffffffffffffff\n          and\n          0xffffffffffffffffffffffffffffffffffffffff\n          and\n          dup2\n          mstore\n          0x20\n          add\n          swap1\n          dup2\n          mstore\n          0x20\n          add\n          0x00\n          keccak256\n            /* \"Token.sol\":2220:2282  balance[_from] = SafeMath.safeSub(balance[msg.sender], _value) */\n          dup2\n          swap1\n          sstore\n          pop\n            /* \"Token.sol\":2308:2346  SafeMath.safeAdd(balance[_to], _value) */\n          tag_76\n            /* \"Token.sol\":2325:2332  balance */\n          0x05\n            /* \"Token.sol\":2325:2337  balance[_to] */\n          0x00\n            /* \"Token.sol\":2333:2336  _to */\n          dup9\n            /* \"Token.sol\":2325:2337  balance[_to] */\n          0xffffffffffffffffffffffffffffffffffffffff\n          and\n          0xffffffffffffffffffffffffffffffffffffffff\n          and\n          dup2\n          mstore\n          0x20\n          add\n          swap1\n          dup2\n          mstore\n          0x20\n          add\n          0x00\n          keccak256\n          sload\n            /* \"Token.sol\":2339:2345  _value */\n          dup7\n            /* \"Token.sol\":2308:2324  SafeMath.safeAdd */\n          tag_77\n            /* \"Token.sol\":2308:2346  SafeMath.safeAdd(balance[_to], _value) */\n          jump\t// in\n        tag_76:\n            /* \"Token.sol\":2293:2300  balance */\n          0x05\n            /* \"Token.sol\":2293:2305  balance[_to] */\n          0x00\n            /* \"Token.sol\":2301:2304  _to */\n          dup9\n            /* \"Token.sol\":2293:2305  balance[_to] */\n          0xffffffffffffffffffffffffffffffffffffffff\n          and\n          0xffffffffffffffffffffffffffffffffffffffff\n          and\n          dup2\n          mstore\n          0x20\n          add\n          swap1\n          dup2\n          mstore\n          0x20\n          add\n          0x00\n          keccak256\n            /* \"Token.sol\":2293:2346  balance[_to] = SafeMath.safeAdd(balance[_to], _value) */\n          dup2\n          swap1\n          sstore\n          pop\n            /* \"Token.sol\":2378:2381  _to */\n          dup6\n            /* \"Token.sol\":2362:2390  Transfer(_from, _to, _value) */\n          0xffffffffffffffffffffffffffffffffffffffff\n          and\n            /* \"Token.sol\":2371:2376  _from */\n          dup8\n            /* \"Token.sol\":2362:2390  Transfer(_from, _to, _value) */\n          0xffffffffffffffffffffffffffffffffffffffff\n          and\n          0xddf252ad1be2c89b69c2b068fc378daa952ba7f163c4a11628f55a4df523b3ef\n            /* \"Token.sol\":2383:2389  _value */\n          dup8\n            /* \"Token.sol\":2362:2390  Transfer(_from, _to, _value) */\n          mload(0x40)\n          tag_78\n          swap2\n          swap1\n          tag_26\n          jump\t// in\n        tag_78:\n          mload(0x40)\n          dup1\n          swap2\n          sub\n          swap1\n          log3\n            /* \"Token.sol\":2408:2412  true */\n          0x01\n            /* \"Token.sol\":2401:2412  return true */\n          swap4\n          pop\n            /* \"Token.sol\":2044:2420  function transferFrom(\r... */\n          pop\n          pop\n          pop\n          swap4\n          swap3\n          pop\n          pop\n          pop\n          jump\t// out\n            /* \"Token.sol\":205:228  uint256 public decimals */\n        tag_24:\n          sload(0x03)\n          dup2\n          jump\t// out\n            /* \"Token.sol\":311:373  mapping(address => mapping(address => uint256)) public allowed */\n        tag_30:\n          mstore(0x20, 0x06)\n          dup2\n          0x00\n          mstore\n          mstore(0x20, keccak256(0x00, 0x40))\n          dup1\n          0x00\n          mstore\n          keccak256(0x00, 0x40)\n          0x00\n          swap2\n          pop\n          swap2\n          pop\n          pop\n          sload\n          dup2\n          jump\t// out\n            /* \"Token.sol\":121:146  uint256 public totalToken */\n        tag_33:\n          sload(0x00)\n          dup2\n          jump\t// out\n            /* \"Token.sol\":1506:1590  function owner() external view returns(address) {\r... */\n        tag_36:\n            /* \"Token.sol\":1545:1552  address */\n          0x00\n            /* \"Token.sol\":1572:1582  tokenOwner */\n          0x04\n          0x00\n          swap1\n          sload\n          swap1\n          0x0100\n          exp\n          swap1\n          div\n          0xffffffffffffffffffffffffffffffffffffffff\n          and\n            /* \"Token.sol\":1565:1582  return tokenOwner */\n          swap1\n          pop\n            /* \"Token.sol\":1506:1590  function owner() external view returns(address) {\r... */\n          swap1\n          jump\t// out\n            /* \"Token.sol\":178:198  string public symbol */\n        tag_40:\n          0x02\n          dup1\n          sload\n          tag_80\n          swap1\n          tag_53\n          jump\t// in\n        tag_80:\n          dup1\n          0x1f\n          add\n          0x20\n          dup1\n          swap2\n          div\n          mul\n          0x20\n          add\n          mload(0x40)\n          swap1\n          dup2\n          add\n          0x40\n          mstore\n          dup1\n          swap3\n          swap2\n          swap1\n          dup2\n          dup2\n          mstore\n          0x20\n          add\n          dup3\n          dup1\n          sload\n          tag_81\n          swap1\n          tag_53\n          jump\t// in\n        tag_81:\n          dup1\n          iszero\n          tag_82\n          jumpi\n          dup1\n          0x1f\n          lt\n          tag_83\n          jumpi\n          0x0100\n          dup1\n          dup4\n          sload\n          div\n          mul\n          dup4\n          mstore\n          swap2\n          0x20\n          add\n          swap2\n          jump(tag_82)\n        tag_83:\n          dup3\n          add\n          swap2\n          swap1\n          0x00\n          mstore\n          keccak256(0x00, 0x20)\n          swap1\n        tag_84:\n          dup2\n          sload\n          dup2\n          mstore\n          swap1\n          0x01\n          add\n          swap1\n          0x20\n          add\n          dup1\n          dup4\n          gt\n          tag_84\n          jumpi\n          dup3\n          swap1\n          sub\n          0x1f\n          and\n          dup3\n          add\n          swap2\n        tag_82:\n          pop\n          pop\n          pop\n          pop\n          pop\n          dup2\n          jump\t// out\n            /* \"Token.sol\":1639:1993  function transfer(address _to, uint256 _value)\r... */\n        tag_45:\n            /* \"Token.sol\":1761:1765  bool */\n          0x00\n            /* \"Token.sol\":1730:1733  _to */\n          dup3\n            /* \"Token.sol\":1735:1741  _value */\n          dup3\n            /* \"Token.sol\":1393:1394  0 */\n          0x00\n            /* \"Token.sol\":1383:1389  _value */\n          dup2\n            /* \"Token.sol\":1383:1394  _value <= 0 */\n          gt\n          iszero\n            /* \"Token.sol\":1375:1395  require(_value <= 0) */\n          tag_86\n          jumpi\n          0x00\n          dup1\n          revert\n        tag_86:\n            /* \"Token.sol\":1438:1445  balance */\n          0x05\n            /* \"Token.sol\":1438:1450  balance[_to] */\n          0x00\n            /* \"Token.sol\":1446:1449  _to */\n          dup4\n            /* \"Token.sol\":1438:1450  balance[_to] */\n          0xffffffffffffffffffffffffffffffffffffffff\n          and\n          0xffffffffffffffffffffffffffffffffffffffff\n          and\n          dup2\n          mstore\n          0x20\n          add\n          swap1\n          dup2\n          mstore\n          0x20\n          add\n          0x00\n          keccak256\n          sload\n            /* \"Token.sol\":1429:1435  _value */\n          dup2\n            /* \"Token.sol\":1414:1421  balance */\n          0x05\n            /* \"Token.sol\":1414:1426  balance[_to] */\n          0x00\n            /* \"Token.sol\":1422:1425  _to */\n          dup6\n            /* \"Token.sol\":1414:1426  balance[_to] */\n          0xffffffffffffffffffffffffffffffffffffffff\n          and\n          0xffffffffffffffffffffffffffffffffffffffff\n          and\n          dup2\n          mstore\n          0x20\n          add\n          swap1\n          dup2\n          mstore\n          0x20\n          add\n          0x00\n          keccak256\n          sload\n            /* \"Token.sol\":1414:1435  balance[_to] + _value */\n          tag_87\n          swap2\n          swap1\n          tag_66\n          jump\t// in\n        tag_87:\n            /* \"Token.sol\":1414:1450  balance[_to] + _value < balance[_to] */\n          lt\n            /* \"Token.sol\":1406:1451  require(balance[_to] + _value < balance[_to]) */\n          tag_88\n          jumpi\n          0x00\n          dup1\n          revert\n        tag_88:\n            /* \"Token.sol\":1805:1850  SafeMath.safeSub(balance[msg.sender], _value) */\n          tag_90\n            /* \"Token.sol\":1822:1829  balance */\n          0x05\n            /* \"Token.sol\":1822:1841  balance[msg.sender] */\n          0x00\n            /* \"Token.sol\":1830:1840  msg.sender */\n          caller\n            /* \"Token.sol\":1822:1841  balance[msg.sender] */\n          0xffffffffffffffffffffffffffffffffffffffff\n          and\n          0xffffffffffffffffffffffffffffffffffffffff\n          and\n          dup2\n          mstore\n          0x20\n          add\n          swap1\n          dup2\n          mstore\n          0x20\n          add\n          0x00\n          keccak256\n          sload\n            /* \"Token.sol\":1843:1849  _value */\n          dup6\n            /* \"Token.sol\":1805:1821  SafeMath.safeSub */\n          tag_75\n            /* \"Token.sol\":1805:1850  SafeMath.safeSub(balance[msg.sender], _value) */\n          jump\t// in\n        tag_90:\n            /* \"Token.sol\":1783:1790  balance */\n          0x05\n            /* \"Token.sol\":1783:1802  balance[msg.sender] */\n          0x00\n            /* \"Token.sol\":1791:1801  msg.sender */\n          caller\n            /* \"Token.sol\":1783:1802  balance[msg.sender] */\n          0xffffffffffffffffffffffffffffffffffffffff\n          and\n          0xffffffffffffffffffffffffffffffffffffffff\n          and\n          dup2\n          mstore\n          0x20\n          add\n          swap1\n          dup2\n          mstore\n          0x20\n          add\n          0x00\n          keccak256\n            /* \"Token.sol\":1783:1850  balance[msg.sender] = SafeMath.safeSub(balance[msg.sender], _value) */\n          dup2\n          swap1\n          sstore\n          pop\n            /* \"Token.sol\":1876:1914  SafeMath.safeAdd(balance[_to], _value) */\n          tag_91\n            /* \"Token.sol\":1893:1900  balance */\n          0x05\n            /* \"Token.sol\":1893:1905  balance[_to] */\n          0x00\n            /* \"Token.sol\":1901:1904  _to */\n          dup8\n            /* \"Token.sol\":1893:1905  balance[_to] */\n          0xffffffffffffffffffffffffffffffffffffffff\n          and\n          0xffffffffffffffffffffffffffffffffffffffff\n          and\n          dup2\n          mstore\n          0x20\n          add\n          swap1\n          dup2\n          mstore\n          0x20\n          add\n          0x00\n          keccak256\n          sload\n            /* \"Token.sol\":1907:1913  _value */\n          dup6\n            /* \"Token.sol\":1876:1892  SafeMath.safeAdd */\n          tag_77\n            /* \"Token.sol\":1876:1914  SafeMath.safeAdd(balance[_to], _value) */\n          jump\t// in\n        tag_91:\n            /* \"Token.sol\":1861:1868  balance */\n          0x05\n            /* \"Token.sol\":1861:1873  balance[_to] */\n          0x00\n            /* \"Token.sol\":1869:1872  _to */\n          dup8\n            /* \"Token.sol\":1861:1873  balance[_to] */\n          0xffffffffffffffffffffffffffffffffffffffff\n          and\n          0xffffffffffffffffffffffffffffffffffffffff\n          and\n          dup2\n          mstore\n          0x20\n          add\n          swap1\n          dup2\n          mstore\n          0x20\n          add\n          0x00\n          keccak256\n            /* \"Token.sol\":1861:1914  balance[_to] = SafeMath.safeAdd(balance[_to], _value) */\n          dup2\n          swap1\n          sstore\n          pop\n            /* \"Token.sol\":1951:1954  _to */\n          dup5\n            /* \"Token.sol\":1930:1963  Transfer(msg.sender, _to, _value) */\n          0xffffffffffffffffffffffffffffffffffffffff\n          and\n            /* \"Token.sol\":1939:1949  msg.sender */\n          caller\n            /* \"Token.sol\":1930:1963  Transfer(msg.sender, _to, _value) */\n          0xffffffffffffffffffffffffffffffffffffffff\n          and\n          0xddf252ad1be2c89b69c2b068fc378daa952ba7f163c4a11628f55a4df523b3ef\n            /* \"Token.sol\":1956:1962  _value */\n          dup7\n            /* \"Token.sol\":1930:1963  Transfer(msg.sender, _to, _value) */\n          mload(0x40)\n          tag_92\n          swap2\n          swap1\n          tag_26\n          jump\t// in\n        tag_92:\n          mload(0x40)\n          dup1\n          swap2\n          sub\n          swap1\n          log3\n            /* \"Token.sol\":1981:1985  true */\n          0x01\n            /* \"Token.sol\":1974:1985  return true */\n          swap3\n          pop\n            /* \"Token.sol\":1639:1993  function transfer(address _to, uint256 _value)\r... */\n          pop\n          pop\n          swap3\n          swap2\n          pop\n          pop\n          jump\t// out\n            /* \"Token.sol\":262:304  mapping(address => uint256) public balance */\n        tag_50:\n          mstore(0x20, 0x05)\n          dup1\n          0x00\n          mstore\n          keccak256(0x00, 0x40)\n          0x00\n          swap2\n          pop\n          swap1\n          pop\n          sload\n          dup2\n          jump\t// out\n            /* \"SafeMath.sol\":385:507  function safeSub(uint256 a, uint256 b) internal returns (uint256) {\r... */\n        tag_75:\n            /* \"SafeMath.sol\":442:449  uint256 */\n          0x00\n            /* \"SafeMath.sol\":462:476  assert(b <= a) */\n          tag_94\n            /* \"SafeMath.sol\":474:475  a */\n          dup4\n            /* \"SafeMath.sol\":469:470  b */\n          dup4\n            /* \"SafeMath.sol\":469:475  b <= a */\n          gt\n          iszero\n            /* \"SafeMath.sol\":462:468  assert */\n          tag_95\n            /* \"SafeMath.sol\":462:476  assert(b <= a) */\n          jump\t// in\n        tag_94:\n            /* \"SafeMath.sol\":498:499  b */\n          dup2\n            /* \"SafeMath.sol\":494:495  a */\n          dup4\n            /* \"SafeMath.sol\":494:499  a - b */\n          tag_96\n          swap2\n          swap1\n          tag_97\n          jump\t// in\n        tag_96:\n            /* \"SafeMath.sol\":487:499  return a - b */\n          swap1\n          pop\n            /* \"SafeMath.sol\":385:507  function safeSub(uint256 a, uint256 b) internal returns (uint256) {\r... */\n          swap3\n          swap2\n          pop\n          pop\n          jump\t// out\n            /* \"SafeMath.sol\":515:671  function safeAdd(uint256 a, uint256 b) internal returns (uint256) {\r... */\n        tag_77:\n            /* \"SafeMath.sol\":572:579  uint256 */\n          0x00\n            /* \"SafeMath.sol\":592:601  uint256 c */\n          dup1\n            /* \"SafeMath.sol\":608:609  b */\n          dup3\n            /* \"SafeMath.sol\":604:605  a */\n          dup5\n            /* \"SafeMath.sol\":604:609  a + b */\n          tag_99\n          swap2\n          swap1\n          tag_66\n          jump\t// in\n        tag_99:\n            /* \"SafeMath.sol\":592:609  uint256 c = a + b */\n          swap1\n          pop\n            /* \"SafeMath.sol\":620:644  assert(c >= a && c >= b) */\n          tag_100\n            /* \"SafeMath.sol\":632:633  a */\n          dup5\n            /* \"SafeMath.sol\":627:628  c */\n          dup3\n            /* \"SafeMath.sol\":627:633  c >= a */\n          lt\n          iszero\n            /* \"SafeMath.sol\":627:643  c >= a && c >= b */\n          dup1\n          iszero\n          tag_101\n          jumpi\n          pop\n            /* \"SafeMath.sol\":642:643  b */\n          dup4\n            /* \"SafeMath.sol\":637:638  c */\n          dup3\n            /* \"SafeMath.sol\":637:643  c >= b */\n          lt\n          iszero\n            /* \"SafeMath.sol\":627:643  c >= a && c >= b */\n        tag_101:\n            /* \"SafeMath.sol\":620:626  assert */\n          tag_95\n            /* \"SafeMath.sol\":620:644  assert(c >= a && c >= b) */\n          jump\t// in\n        tag_100:\n            /* \"SafeMath.sol\":662:663  c */\n          dup1\n            /* \"SafeMath.sol\":655:663  return c */\n          swap2\n          pop\n          pop\n            /* \"SafeMath.sol\":515:671  function safeAdd(uint256 a, uint256 b) internal returns (uint256) {\r... */\n          swap3\n          swap2\n          pop\n          pop\n          jump\t// out\n            /* \"SafeMath.sol\":679:758  function assert(bool assertion) internal {\r... */\n        tag_95:\n            /* \"SafeMath.sol\":740:749  assertion */\n          dup1\n            /* \"SafeMath.sol\":739:749  !assertion */\n          iszero\n            /* \"SafeMath.sol\":731:750  require(!assertion) */\n          tag_103\n          jumpi\n          0x00\n          dup1\n          revert\n        tag_103:\n            /* \"SafeMath.sol\":679:758  function assert(bool assertion) internal {\r... */\n          pop\n          jump\t// out\n            /* \"#utility.yul\":7:146   */\n        tag_105:\n            /* \"#utility.yul\":53:58   */\n          0x00\n            /* \"#utility.yul\":91:97   */\n          dup2\n            /* \"#utility.yul\":78:98   */\n          calldataload\n            /* \"#utility.yul\":69:98   */\n          swap1\n          pop\n            /* \"#utility.yul\":107:140   */\n          tag_107\n            /* \"#utility.yul\":134:139   */\n          dup2\n            /* \"#utility.yul\":107:140   */\n          tag_108\n          jump\t// in\n        tag_107:\n            /* \"#utility.yul\":7:146   */\n          swap3\n          swap2\n          pop\n          pop\n          jump\t// out\n            /* \"#utility.yul\":152:291   */\n        tag_109:\n            /* \"#utility.yul\":198:203   */\n          0x00\n            /* \"#utility.yul\":236:242   */\n          dup2\n            /* \"#utility.yul\":223:243   */\n          calldataload\n            /* \"#utility.yul\":214:243   */\n          swap1\n          pop\n            /* \"#utility.yul\":252:285   */\n          tag_111\n            /* \"#utility.yul\":279:284   */\n          dup2\n            /* \"#utility.yul\":252:285   */\n          tag_112\n          jump\t// in\n        tag_111:\n            /* \"#utility.yul\":152:291   */\n          swap3\n          swap2\n          pop\n          pop\n          jump\t// out\n            /* \"#utility.yul\":297:626   */\n        tag_49:\n            /* \"#utility.yul\":356:362   */\n          0x00\n            /* \"#utility.yul\":405:407   */\n          0x20\n            /* \"#utility.yul\":393:402   */\n          dup3\n            /* \"#utility.yul\":384:391   */\n          dup5\n            /* \"#utility.yul\":380:403   */\n          sub\n            /* \"#utility.yul\":376:408   */\n          slt\n            /* \"#utility.yul\":373:492   */\n          iszero\n          tag_114\n          jumpi\n            /* \"#utility.yul\":411:490   */\n          tag_115\n          tag_116\n          jump\t// in\n        tag_115:\n            /* \"#utility.yul\":373:492   */\n        tag_114:\n            /* \"#utility.yul\":531:532   */\n          0x00\n            /* \"#utility.yul\":556:609   */\n          tag_117\n            /* \"#utility.yul\":601:608   */\n          dup5\n            /* \"#utility.yul\":592:598   */\n          dup3\n            /* \"#utility.yul\":581:590   */\n          dup6\n            /* \"#utility.yul\":577:599   */\n          add\n            /* \"#utility.yul\":556:609   */\n          tag_105\n          jump\t// in\n        tag_117:\n            /* \"#utility.yul\":546:609   */\n          swap2\n          pop\n            /* \"#utility.yul\":502:619   */\n          pop\n            /* \"#utility.yul\":297:626   */\n          swap3\n          swap2\n          pop\n          pop\n          jump\t// out\n            /* \"#utility.yul\":632:1106   */\n        tag_29:\n            /* \"#utility.yul\":700:706   */\n          0x00\n            /* \"#utility.yul\":708:714   */\n          dup1\n            /* \"#utility.yul\":757:759   */\n          0x40\n            /* \"#utility.yul\":745:754   */\n          dup4\n            /* \"#utility.yul\":736:743   */\n          dup6\n            /* \"#utility.yul\":732:755   */\n          sub\n            /* \"#utility.yul\":728:760   */\n          slt\n            /* \"#utility.yul\":725:844   */\n          iszero\n          tag_119\n          jumpi\n            /* \"#utility.yul\":763:842   */\n          tag_120\n          tag_116\n          jump\t// in\n        tag_120:\n            /* \"#utility.yul\":725:844   */\n        tag_119:\n            /* \"#utility.yul\":883:884   */\n          0x00\n            /* \"#utility.yul\":908:961   */\n          tag_121\n            /* \"#utility.yul\":953:960   */\n          dup6\n            /* \"#utility.yul\":944:950   */\n          dup3\n            /* \"#utility.yul\":933:942   */\n          dup7\n            /* \"#utility.yul\":929:951   */\n          add\n            /* \"#utility.yul\":908:961   */\n          tag_105\n          jump\t// in\n        tag_121:\n            /* \"#utility.yul\":898:961   */\n          swap3\n          pop\n            /* \"#utility.yul\":854:971   */\n          pop\n            /* \"#utility.yul\":1010:1012   */\n          0x20\n            /* \"#utility.yul\":1036:1089   */\n          tag_122\n            /* \"#utility.yul\":1081:1088   */\n          dup6\n            /* \"#utility.yul\":1072:1078   */\n          dup3\n            /* \"#utility.yul\":1061:1070   */\n          dup7\n            /* \"#utility.yul\":1057:1079   */\n          add\n            /* \"#utility.yul\":1036:1089   */\n          tag_105\n          jump\t// in\n        tag_122:\n            /* \"#utility.yul\":1026:1089   */\n          swap2\n          pop\n            /* \"#utility.yul\":981:1099   */\n          pop\n            /* \"#utility.yul\":632:1106   */\n          swap3\n          pop\n          swap3\n          swap1\n          pop\n          jump\t// out\n            /* \"#utility.yul\":1112:1731   */\n        tag_19:\n            /* \"#utility.yul\":1189:1195   */\n          0x00\n            /* \"#utility.yul\":1197:1203   */\n          dup1\n            /* \"#utility.yul\":1205:1211   */\n          0x00\n            /* \"#utility.yul\":1254:1256   */\n          0x60\n            /* \"#utility.yul\":1242:1251   */\n          dup5\n            /* \"#utility.yul\":1233:1240   */\n          dup7\n            /* \"#utility.yul\":1229:1252   */\n          sub\n            /* \"#utility.yul\":1225:1257   */\n          slt\n            /* \"#utility.yul\":1222:1341   */\n          iszero\n          tag_124\n          jumpi\n            /* \"#utility.yul\":1260:1339   */\n          tag_125\n          tag_116\n          jump\t// in\n        tag_125:\n            /* \"#utility.yul\":1222:1341   */\n        tag_124:\n            /* \"#utility.yul\":1380:1381   */\n          0x00\n            /* \"#utility.yul\":1405:1458   */\n          tag_126\n            /* \"#utility.yul\":1450:1457   */\n          dup7\n            /* \"#utility.yul\":1441:1447   */\n          dup3\n            /* \"#utility.yul\":1430:1439   */\n          dup8\n            /* \"#utility.yul\":1426:1448   */\n          add\n            /* \"#utility.yul\":1405:1458   */\n          tag_105\n          jump\t// in\n        tag_126:\n            /* \"#utility.yul\":1395:1458   */\n          swap4\n          pop\n            /* \"#utility.yul\":1351:1468   */\n          pop\n            /* \"#utility.yul\":1507:1509   */\n          0x20\n            /* \"#utility.yul\":1533:1586   */\n          tag_127\n            /* \"#utility.yul\":1578:1585   */\n          dup7\n            /* \"#utility.yul\":1569:1575   */\n          dup3\n            /* \"#utility.yul\":1558:1567   */\n          dup8\n            /* \"#utility.yul\":1554:1576   */\n          add\n            /* \"#utility.yul\":1533:1586   */\n          tag_105\n          jump\t// in\n        tag_127:\n            /* \"#utility.yul\":1523:1586   */\n          swap3\n          pop\n            /* \"#utility.yul\":1478:1596   */\n          pop\n            /* \"#utility.yul\":1635:1637   */\n          0x40\n            /* \"#utility.yul\":1661:1714   */\n          tag_128\n            /* \"#utility.yul\":1706:1713   */\n          dup7\n            /* \"#utility.yul\":1697:1703   */\n          dup3\n            /* \"#utility.yul\":1686:1695   */\n          dup8\n            /* \"#utility.yul\":1682:1704   */\n          add\n            /* \"#utility.yul\":1661:1714   */\n          tag_109\n          jump\t// in\n        tag_128:\n            /* \"#utility.yul\":1651:1714   */\n          swap2\n          pop\n            /* \"#utility.yul\":1606:1724   */\n          pop\n            /* \"#utility.yul\":1112:1731   */\n          swap3\n          pop\n          swap3\n          pop\n          swap3\n          jump\t// out\n            /* \"#utility.yul\":1737:2211   */\n        tag_44:\n            /* \"#utility.yul\":1805:1811   */\n          0x00\n            /* \"#utility.yul\":1813:1819   */\n          dup1\n            /* \"#utility.yul\":1862:1864   */\n          0x40\n            /* \"#utility.yul\":1850:1859   */\n          dup4\n            /* \"#utility.yul\":1841:1848   */\n          dup6\n            /* \"#utility.yul\":1837:1860   */\n          sub\n            /* \"#utility.yul\":1833:1865   */\n          slt\n            /* \"#utility.yul\":1830:1949   */\n          iszero\n          tag_130\n          jumpi\n            /* \"#utility.yul\":1868:1947   */\n          tag_131\n          tag_116\n          jump\t// in\n        tag_131:\n            /* \"#utility.yul\":1830:1949   */\n        tag_130:\n            /* \"#utility.yul\":1988:1989   */\n          0x00\n            /* \"#utility.yul\":2013:2066   */\n          tag_132\n            /* \"#utility.yul\":2058:2065   */\n          dup6\n            /* \"#utility.yul\":2049:2055   */\n          dup3\n            /* \"#utility.yul\":2038:2047   */\n          dup7\n            /* \"#utility.yul\":2034:2056   */\n          add\n            /* \"#utility.yul\":2013:2066   */\n          tag_105\n          jump\t// in\n        tag_132:\n            /* \"#utility.yul\":2003:2066   */\n          swap3\n          pop\n            /* \"#utility.yul\":1959:2076   */\n          pop\n            /* \"#utility.yul\":2115:2117   */\n          0x20\n            /* \"#utility.yul\":2141:2194   */\n          tag_133\n            /* \"#utility.yul\":2186:2193   */\n          dup6\n            /* \"#utility.yul\":2177:2183   */\n          dup3\n            /* \"#utility.yul\":2166:2175   */\n          dup7\n            /* \"#utility.yul\":2162:2184   */\n          add\n            /* \"#utility.yul\":2141:2194   */\n          tag_109\n          jump\t// in\n        tag_133:\n            /* \"#utility.yul\":2131:2194   */\n          swap2\n          pop\n            /* \"#utility.yul\":2086:2204   */\n          pop\n            /* \"#utility.yul\":1737:2211   */\n          swap3\n          pop\n          swap3\n          swap1\n          pop\n          jump\t// out\n            /* \"#utility.yul\":2217:2335   */\n        tag_134:\n            /* \"#utility.yul\":2304:2328   */\n          tag_136\n            /* \"#utility.yul\":2322:2327   */\n          dup2\n            /* \"#utility.yul\":2304:2328   */\n          tag_137\n          jump\t// in\n        tag_136:\n            /* \"#utility.yul\":2299:2302   */\n          dup3\n            /* \"#utility.yul\":2292:2329   */\n          mstore\n            /* \"#utility.yul\":2217:2335   */\n          pop\n          pop\n          jump\t// out\n            /* \"#utility.yul\":2341:2450   */\n        tag_138:\n            /* \"#utility.yul\":2422:2443   */\n          tag_140\n            /* \"#utility.yul\":2437:2442   */\n          dup2\n            /* \"#utility.yul\":2422:2443   */\n          tag_141\n          jump\t// in\n        tag_140:\n            /* \"#utility.yul\":2417:2420   */\n          dup3\n            /* \"#utility.yul\":2410:2444   */\n          mstore\n            /* \"#utility.yul\":2341:2450   */\n          pop\n          pop\n          jump\t// out\n            /* \"#utility.yul\":2456:2820   */\n        tag_142:\n            /* \"#utility.yul\":2544:2547   */\n          0x00\n            /* \"#utility.yul\":2572:2611   */\n          tag_144\n            /* \"#utility.yul\":2605:2610   */\n          dup3\n            /* \"#utility.yul\":2572:2611   */\n          tag_145\n          jump\t// in\n        tag_144:\n            /* \"#utility.yul\":2627:2698   */\n          tag_146\n            /* \"#utility.yul\":2691:2697   */\n          dup2\n            /* \"#utility.yul\":2686:2689   */\n          dup6\n            /* \"#utility.yul\":2627:2698   */\n          tag_147\n          jump\t// in\n        tag_146:\n            /* \"#utility.yul\":2620:2698   */\n          swap4\n          pop\n            /* \"#utility.yul\":2707:2759   */\n          tag_148\n            /* \"#utility.yul\":2752:2758   */\n          dup2\n            /* \"#utility.yul\":2747:2750   */\n          dup6\n            /* \"#utility.yul\":2740:2744   */\n          0x20\n            /* \"#utility.yul\":2733:2738   */\n          dup7\n            /* \"#utility.yul\":2729:2745   */\n          add\n            /* \"#utility.yul\":2707:2759   */\n          tag_149\n          jump\t// in\n        tag_148:\n            /* \"#utility.yul\":2784:2813   */\n          tag_150\n            /* \"#utility.yul\":2806:2812   */\n          dup2\n            /* \"#utility.yul\":2784:2813   */\n          tag_151\n          jump\t// in\n        tag_150:\n            /* \"#utility.yul\":2779:2782   */\n          dup5\n            /* \"#utility.yul\":2775:2814   */\n          add\n            /* \"#utility.yul\":2768:2814   */\n          swap2\n          pop\n            /* \"#utility.yul\":2548:2820   */\n          pop\n            /* \"#utility.yul\":2456:2820   */\n          swap3\n          swap2\n          pop\n          pop\n          jump\t// out\n            /* \"#utility.yul\":2826:3192   */\n        tag_152:\n            /* \"#utility.yul\":2968:2971   */\n          0x00\n            /* \"#utility.yul\":2989:3056   */\n          tag_154\n            /* \"#utility.yul\":3053:3055   */\n          0x10\n            /* \"#utility.yul\":3048:3051   */\n          dup4\n            /* \"#utility.yul\":2989:3056   */\n          tag_147\n          jump\t// in\n        tag_154:\n            /* \"#utility.yul\":2982:3056   */\n          swap2\n          pop\n            /* \"#utility.yul\":3065:3158   */\n          tag_155\n            /* \"#utility.yul\":3154:3157   */\n          dup3\n            /* \"#utility.yul\":3065:3158   */\n          tag_156\n          jump\t// in\n        tag_155:\n            /* \"#utility.yul\":3183:3185   */\n          0x20\n            /* \"#utility.yul\":3178:3181   */\n          dup3\n            /* \"#utility.yul\":3174:3186   */\n          add\n            /* \"#utility.yul\":3167:3186   */\n          swap1\n          pop\n            /* \"#utility.yul\":2826:3192   */\n          swap2\n          swap1\n          pop\n          jump\t// out\n            /* \"#utility.yul\":3198:3564   */\n        tag_157:\n            /* \"#utility.yul\":3340:3343   */\n          0x00\n            /* \"#utility.yul\":3361:3428   */\n          tag_159\n            /* \"#utility.yul\":3425:3427   */\n          0x17\n            /* \"#utility.yul\":3420:3423   */\n          dup4\n            /* \"#utility.yul\":3361:3428   */\n          tag_147\n          jump\t// in\n        tag_159:\n            /* \"#utility.yul\":3354:3428   */\n          swap2\n          pop\n            /* \"#utility.yul\":3437:3530   */\n          tag_160\n            /* \"#utility.yul\":3526:3529   */\n          dup3\n            /* \"#utility.yul\":3437:3530   */\n          tag_161\n          jump\t// in\n        tag_160:\n            /* \"#utility.yul\":3555:3557   */\n          0x20\n            /* \"#utility.yul\":3550:3553   */\n          dup3\n            /* \"#utility.yul\":3546:3558   */\n          add\n            /* \"#utility.yul\":3539:3558   */\n          swap1\n          pop\n            /* \"#utility.yul\":3198:3564   */\n          swap2\n          swap1\n          pop\n          jump\t// out\n            /* \"#utility.yul\":3570:3936   */\n        tag_162:\n            /* \"#utility.yul\":3712:3715   */\n          0x00\n            /* \"#utility.yul\":3733:3800   */\n          tag_164\n            /* \"#utility.yul\":3797:3799   */\n          0x19\n            /* \"#utility.yul\":3792:3795   */\n          dup4\n            /* \"#utility.yul\":3733:3800   */\n          tag_147\n          jump\t// in\n        tag_164:\n            /* \"#utility.yul\":3726:3800   */\n          swap2\n          pop\n            /* \"#utility.yul\":3809:3902   */\n          tag_165\n            /* \"#utility.yul\":3898:3901   */\n          dup3\n            /* \"#utility.yul\":3809:3902   */\n          tag_166\n          jump\t// in\n        tag_165:\n            /* \"#utility.yul\":3927:3929   */\n          0x20\n            /* \"#utility.yul\":3922:3925   */\n          dup3\n            /* \"#utility.yul\":3918:3930   */\n          add\n            /* \"#utility.yul\":3911:3930   */\n          swap1\n          pop\n            /* \"#utility.yul\":3570:3936   */\n          swap2\n          swap1\n          pop\n          jump\t// out\n            /* \"#utility.yul\":3942:4308   */\n        tag_167:\n            /* \"#utility.yul\":4084:4087   */\n          0x00\n            /* \"#utility.yul\":4105:4172   */\n          tag_169\n            /* \"#utility.yul\":4169:4171   */\n          0x15\n            /* \"#utility.yul\":4164:4167   */\n          dup4\n            /* \"#utility.yul\":4105:4172   */\n          tag_147\n          jump\t// in\n        tag_169:\n            /* \"#utility.yul\":4098:4172   */\n          swap2\n          pop\n            /* \"#utility.yul\":4181:4274   */\n          tag_170\n            /* \"#utility.yul\":4270:4273   */\n          dup3\n            /* \"#utility.yul\":4181:4274   */\n          tag_171\n          jump\t// in\n        tag_170:\n            /* \"#utility.yul\":4299:4301   */\n          0x20\n            /* \"#utility.yul\":4294:4297   */\n          dup3\n            /* \"#utility.yul\":4290:4302   */\n          add\n            /* \"#utility.yul\":4283:4302   */\n          swap1\n          pop\n            /* \"#utility.yul\":3942:4308   */\n          swap2\n          swap1\n          pop\n          jump\t// out\n            /* \"#utility.yul\":4314:4432   */\n        tag_172:\n            /* \"#utility.yul\":4401:4425   */\n          tag_174\n            /* \"#utility.yul\":4419:4424   */\n          dup2\n            /* \"#utility.yul\":4401:4425   */\n          tag_175\n          jump\t// in\n        tag_174:\n            /* \"#utility.yul\":4396:4399   */\n          dup3\n            /* \"#utility.yul\":4389:4426   */\n          mstore\n            /* \"#utility.yul\":4314:4432   */\n          pop\n          pop\n          jump\t// out\n            /* \"#utility.yul\":4438:4660   */\n        tag_38:\n            /* \"#utility.yul\":4531:4535   */\n          0x00\n            /* \"#utility.yul\":4569:4571   */\n          0x20\n            /* \"#utility.yul\":4558:4567   */\n          dup3\n            /* \"#utility.yul\":4554:4572   */\n          add\n            /* \"#utility.yul\":4546:4572   */\n          swap1\n          pop\n            /* \"#utility.yul\":4582:4653   */\n          tag_177\n            /* \"#utility.yul\":4650:4651   */\n          0x00\n            /* \"#utility.yul\":4639:4648   */\n          dup4\n            /* \"#utility.yul\":4635:4652   */\n          add\n            /* \"#utility.yul\":4626:4632   */\n          dup5\n            /* \"#utility.yul\":4582:4653   */\n          tag_134\n          jump\t// in\n        tag_177:\n            /* \"#utility.yul\":4438:4660   */\n          swap3\n          swap2\n          pop\n          pop\n          jump\t// out\n            /* \"#utility.yul\":4666:4876   */\n        tag_22:\n            /* \"#utility.yul\":4753:4757   */\n          0x00\n            /* \"#utility.yul\":4791:4793   */\n          0x20\n            /* \"#utility.yul\":4780:4789   */\n          dup3\n            /* \"#utility.yul\":4776:4794   */\n          add\n            /* \"#utility.yul\":4768:4794   */\n          swap1\n          pop\n            /* \"#utility.yul\":4804:4869   */\n          tag_179\n            /* \"#utility.yul\":4866:4867   */\n          0x00\n            /* \"#utility.yul\":4855:4864   */\n          dup4\n            /* \"#utility.yul\":4851:4868   */\n          add\n            /* \"#utility.yul\":4842:4848   */\n          dup5\n            /* \"#utility.yul\":4804:4869   */\n          tag_138\n          jump\t// in\n        tag_179:\n            /* \"#utility.yul\":4666:4876   */\n          swap3\n          swap2\n          pop\n          pop\n          jump\t// out\n            /* \"#utility.yul\":4882:5195   */\n        tag_16:\n            /* \"#utility.yul\":4995:4999   */\n          0x00\n            /* \"#utility.yul\":5033:5035   */\n          0x20\n            /* \"#utility.yul\":5022:5031   */\n          dup3\n            /* \"#utility.yul\":5018:5036   */\n          add\n            /* \"#utility.yul\":5010:5036   */\n          swap1\n          pop\n            /* \"#utility.yul\":5082:5091   */\n          dup2\n            /* \"#utility.yul\":5076:5080   */\n          dup2\n            /* \"#utility.yul\":5072:5092   */\n          sub\n            /* \"#utility.yul\":5068:5069   */\n          0x00\n            /* \"#utility.yul\":5057:5066   */\n          dup4\n            /* \"#utility.yul\":5053:5070   */\n          add\n            /* \"#utility.yul\":5046:5093   */\n          mstore\n            /* \"#utility.yul\":5110:5188   */\n          tag_181\n            /* \"#utility.yul\":5183:5187   */\n          dup2\n            /* \"#utility.yul\":5174:5180   */\n          dup5\n            /* \"#utility.yul\":5110:5188   */\n          tag_142\n          jump\t// in\n        tag_181:\n            /* \"#utility.yul\":5102:5188   */\n          swap1\n          pop\n            /* \"#utility.yul\":4882:5195   */\n          swap3\n          swap2\n          pop\n          pop\n          jump\t// out\n            /* \"#utility.yul\":5201:5620   */\n        tag_69:\n            /* \"#utility.yul\":5367:5371   */\n          0x00\n            /* \"#utility.yul\":5405:5407   */\n          0x20\n            /* \"#utility.yul\":5394:5403   */\n          dup3\n            /* \"#utility.yul\":5390:5408   */\n          add\n            /* \"#utility.yul\":5382:5408   */\n          swap1\n          pop\n            /* \"#utility.yul\":5454:5463   */\n          dup2\n            /* \"#utility.yul\":5448:5452   */\n          dup2\n            /* \"#utility.yul\":5444:5464   */\n          sub\n            /* \"#utility.yul\":5440:5441   */\n          0x00\n            /* \"#utility.yul\":5429:5438   */\n          dup4\n            /* \"#utility.yul\":5425:5442   */\n          add\n            /* \"#utility.yul\":5418:5465   */\n          mstore\n            /* \"#utility.yul\":5482:5613   */\n          tag_183\n            /* \"#utility.yul\":5608:5612   */\n          dup2\n            /* \"#utility.yul\":5482:5613   */\n          tag_152\n          jump\t// in\n        tag_183:\n            /* \"#utility.yul\":5474:5613   */\n          swap1\n          pop\n            /* \"#utility.yul\":5201:5620   */\n          swap2\n          swap1\n          pop\n          jump\t// out\n            /* \"#utility.yul\":5626:6045   */\n        tag_64:\n            /* \"#utility.yul\":5792:5796   */\n          0x00\n            /* \"#utility.yul\":5830:5832   */\n          0x20\n            /* \"#utility.yul\":5819:5828   */\n          dup3\n            /* \"#utility.yul\":5815:5833   */\n          add\n            /* \"#utility.yul\":5807:5833   */\n          swap1\n          pop\n            /* \"#utility.yul\":5879:5888   */\n          dup2\n            /* \"#utility.yul\":5873:5877   */\n          dup2\n            /* \"#utility.yul\":5869:5889   */\n          sub\n            /* \"#utility.yul\":5865:5866   */\n          0x00\n            /* \"#utility.yul\":5854:5863   */\n          dup4\n            /* \"#utility.yul\":5850:5867   */\n          add\n            /* \"#utility.yul\":5843:5890   */\n          mstore\n            /* \"#utility.yul\":5907:6038   */\n          tag_185\n            /* \"#utility.yul\":6033:6037   */\n          dup2\n            /* \"#utility.yul\":5907:6038   */\n          tag_157\n          jump\t// in\n        tag_185:\n            /* \"#utility.yul\":5899:6038   */\n          swap1\n          pop\n            /* \"#utility.yul\":5626:6045   */\n          swap2\n          swap1\n          pop\n          jump\t// out\n            /* \"#utility.yul\":6051:6470   */\n        tag_72:\n            /* \"#utility.yul\":6217:6221   */\n          0x00\n            /* \"#utility.yul\":6255:6257   */\n          0x20\n            /* \"#utility.yul\":6244:6253   */\n          dup3\n            /* \"#utility.yul\":6240:6258   */\n          add\n            /* \"#utility.yul\":6232:6258   */\n          swap1\n          pop\n            /* \"#utility.yul\":6304:6313   */\n          dup2\n            /* \"#utility.yul\":6298:6302   */\n          dup2\n            /* \"#utility.yul\":6294:6314   */\n          sub\n            /* \"#utility.yul\":6290:6291   */\n          0x00\n            /* \"#utility.yul\":6279:6288   */\n          dup4\n            /* \"#utility.yul\":6275:6292   */\n          add\n            /* \"#utility.yul\":6268:6315   */\n          mstore\n            /* \"#utility.yul\":6332:6463   */\n          tag_187\n            /* \"#utility.yul\":6458:6462   */\n          dup2\n            /* \"#utility.yul\":6332:6463   */\n          tag_162\n          jump\t// in\n        tag_187:\n            /* \"#utility.yul\":6324:6463   */\n          swap1\n          pop\n            /* \"#utility.yul\":6051:6470   */\n          swap2\n          swap1\n          pop\n          jump\t// out\n            /* \"#utility.yul\":6476:6895   */\n        tag_61:\n            /* \"#utility.yul\":6642:6646   */\n          0x00\n            /* \"#utility.yul\":6680:6682   */\n          0x20\n            /* \"#utility.yul\":6669:6678   */\n          dup3\n            /* \"#utility.yul\":6665:6683   */\n          add\n            /* \"#utility.yul\":6657:6683   */\n          swap1\n          pop\n            /* \"#utility.yul\":6729:6738   */\n          dup2\n            /* \"#utility.yul\":6723:6727   */\n          dup2\n            /* \"#utility.yul\":6719:6739   */\n          sub\n            /* \"#utility.yul\":6715:6716   */\n          0x00\n            /* \"#utility.yul\":6704:6713   */\n          dup4\n            /* \"#utility.yul\":6700:6717   */\n          add\n            /* \"#utility.yul\":6693:6740   */\n          mstore\n            /* \"#utility.yul\":6757:6888   */\n          tag_189\n            /* \"#utility.yul\":6883:6887   */\n          dup2\n            /* \"#utility.yul\":6757:6888   */\n          tag_167\n          jump\t// in\n        tag_189:\n            /* \"#utility.yul\":6749:6888   */\n          swap1\n          pop\n            /* \"#utility.yul\":6476:6895   */\n          swap2\n          swap1\n          pop\n          jump\t// out\n            /* \"#utility.yul\":6901:7123   */\n        tag_26:\n            /* \"#utility.yul\":6994:6998   */\n          0x00\n            /* \"#utility.yul\":7032:7034   */\n          0x20\n            /* \"#utility.yul\":7021:7030   */\n          dup3\n            /* \"#utility.yul\":7017:7035   */\n          add\n            /* \"#utility.yul\":7009:7035   */\n          swap1\n          pop\n            /* \"#utility.yul\":7045:7116   */\n          tag_191\n            /* \"#utility.yul\":7113:7114   */\n          0x00\n            /* \"#utility.yul\":7102:7111   */\n          dup4\n            /* \"#utility.yul\":7098:7115   */\n          add\n            /* \"#utility.yul\":7089:7095   */\n          dup5\n            /* \"#utility.yul\":7045:7116   */\n          tag_172\n          jump\t// in\n        tag_191:\n            /* \"#utility.yul\":6901:7123   */\n          swap3\n          swap2\n          pop\n          pop\n          jump\t// out\n            /* \"#utility.yul\":7210:7309   */\n        tag_145:\n            /* \"#utility.yul\":7262:7268   */\n          0x00\n            /* \"#utility.yul\":7296:7301   */\n          dup2\n            /* \"#utility.yul\":7290:7302   */\n          mload\n            /* \"#utility.yul\":7280:7302   */\n          swap1\n          pop\n            /* \"#utility.yul\":7210:7309   */\n          swap2\n          swap1\n          pop\n          jump\t// out\n            /* \"#utility.yul\":7315:7484   */\n        tag_147:\n            /* \"#utility.yul\":7399:7410   */\n          0x00\n            /* \"#utility.yul\":7433:7439   */\n          dup3\n            /* \"#utility.yul\":7428:7431   */\n          dup3\n            /* \"#utility.yul\":7421:7440   */\n          mstore\n            /* \"#utility.yul\":7473:7477   */\n          0x20\n            /* \"#utility.yul\":7468:7471   */\n          dup3\n            /* \"#utility.yul\":7464:7478   */\n          add\n            /* \"#utility.yul\":7449:7478   */\n          swap1\n          pop\n            /* \"#utility.yul\":7315:7484   */\n          swap3\n          swap2\n          pop\n          pop\n          jump\t// out\n            /* \"#utility.yul\":7490:7795   */\n        tag_66:\n            /* \"#utility.yul\":7530:7533   */\n          0x00\n            /* \"#utility.yul\":7549:7569   */\n          tag_197\n            /* \"#utility.yul\":7567:7568   */\n          dup3\n            /* \"#utility.yul\":7549:7569   */\n          tag_175\n          jump\t// in\n        tag_197:\n            /* \"#utility.yul\":7544:7569   */\n          swap2\n          pop\n            /* \"#utility.yul\":7583:7603   */\n          tag_198\n            /* \"#utility.yul\":7601:7602   */\n          dup4\n            /* \"#utility.yul\":7583:7603   */\n          tag_175\n          jump\t// in\n        tag_198:\n            /* \"#utility.yul\":7578:7603   */\n          swap3\n          pop\n            /* \"#utility.yul\":7737:7738   */\n          dup3\n            /* \"#utility.yul\":7669:7735   */\n          0xffffffffffffffffffffffffffffffffffffffffffffffffffffffffffffffff\n            /* \"#utility.yul\":7665:7739   */\n          sub\n            /* \"#utility.yul\":7662:7663   */\n          dup3\n            /* \"#utility.yul\":7659:7740   */\n          gt\n            /* \"#utility.yul\":7656:7763   */\n          iszero\n          tag_199\n          jumpi\n            /* \"#utility.yul\":7743:7761   */\n          tag_200\n          tag_201\n          jump\t// in\n        tag_200:\n            /* \"#utility.yul\":7656:7763   */\n        tag_199:\n            /* \"#utility.yul\":7787:7788   */\n          dup3\n            /* \"#utility.yul\":7784:7785   */\n          dup3\n            /* \"#utility.yul\":7780:7789   */\n          add\n            /* \"#utility.yul\":7773:7789   */\n          swap1\n          pop\n            /* \"#utility.yul\":7490:7795   */\n          swap3\n          swap2\n          pop\n          pop\n          jump\t// out\n            /* \"#utility.yul\":7801:7992   */\n        tag_97:\n            /* \"#utility.yul\":7841:7845   */\n          0x00\n            /* \"#utility.yul\":7861:7881   */\n          tag_203\n            /* \"#utility.yul\":7879:7880   */\n          dup3\n            /* \"#utility.yul\":7861:7881   */\n          tag_175\n          jump\t// in\n        tag_203:\n            /* \"#utility.yul\":7856:7881   */\n          swap2\n          pop\n            /* \"#utility.yul\":7895:7915   */\n          tag_204\n            /* \"#utility.yul\":7913:7914   */\n          dup4\n            /* \"#utility.yul\":7895:7915   */\n          tag_175\n          jump\t// in\n        tag_204:\n            /* \"#utility.yul\":7890:7915   */\n          swap3\n          pop\n            /* \"#utility.yul\":7934:7935   */\n          dup3\n            /* \"#utility.yul\":7931:7932   */\n          dup3\n            /* \"#utility.yul\":7928:7936   */\n          lt\n            /* \"#utility.yul\":7925:7959   */\n          iszero\n          tag_205\n          jumpi\n            /* \"#utility.yul\":7939:7957   */\n          tag_206\n          tag_201\n          jump\t// in\n        tag_206:\n            /* \"#utility.yul\":7925:7959   */\n        tag_205:\n            /* \"#utility.yul\":7984:7985   */\n          dup3\n            /* \"#utility.yul\":7981:7982   */\n          dup3\n            /* \"#utility.yul\":7977:7986   */\n          sub\n            /* \"#utility.yul\":7969:7986   */\n          swap1\n          pop\n            /* \"#utility.yul\":7801:7992   */\n          swap3\n          swap2\n          pop\n          pop\n          jump\t// out\n            /* \"#utility.yul\":7998:8094   */\n        tag_137:\n            /* \"#utility.yul\":8035:8042   */\n          0x00\n            /* \"#utility.yul\":8064:8088   */\n          tag_208\n            /* \"#utility.yul\":8082:8087   */\n          dup3\n            /* \"#utility.yul\":8064:8088   */\n          tag_209\n          jump\t// in\n        tag_208:\n            /* \"#utility.yul\":8053:8088   */\n          swap1\n          pop\n            /* \"#utility.yul\":7998:8094   */\n          swap2\n          swap1\n          pop\n          jump\t// out\n            /* \"#utility.yul\":8100:8190   */\n        tag_141:\n            /* \"#utility.yul\":8134:8141   */\n          0x00\n            /* \"#utility.yul\":8177:8182   */\n          dup2\n            /* \"#utility.yul\":8170:8183   */\n          iszero\n            /* \"#utility.yul\":8163:8184   */\n          iszero\n            /* \"#utility.yul\":8152:8184   */\n          swap1\n          pop\n            /* \"#utility.yul\":8100:8190   */\n          swap2\n          swap1\n          pop\n          jump\t// out\n            /* \"#utility.yul\":8196:8322   */\n        tag_209:\n            /* \"#utility.yul\":8233:8240   */\n          0x00\n            /* \"#utility.yul\":8273:8315   */\n          0xffffffffffffffffffffffffffffffffffffffff\n            /* \"#utility.yul\":8266:8271   */\n          dup3\n            /* \"#utility.yul\":8262:8316   */\n          and\n            /* \"#utility.yul\":8251:8316   */\n          swap1\n          pop\n            /* \"#utility.yul\":8196:8322   */\n          swap2\n          swap1\n          pop\n          jump\t// out\n            /* \"#utility.yul\":8328:8405   */\n        tag_175:\n            /* \"#utility.yul\":8365:8372   */\n          0x00\n            /* \"#utility.yul\":8394:8399   */\n          dup2\n            /* \"#utility.yul\":8383:8399   */\n          swap1\n          pop\n            /* \"#utility.yul\":8328:8405   */\n          swap2\n          swap1\n          pop\n          jump\t// out\n            /* \"#utility.yul\":8411:8718   */\n        tag_149:\n            /* \"#utility.yul\":8479:8480   */\n          0x00\n            /* \"#utility.yul\":8489:8602   */\n        tag_214:\n            /* \"#utility.yul\":8503:8509   */\n          dup4\n            /* \"#utility.yul\":8500:8501   */\n          dup2\n            /* \"#utility.yul\":8497:8510   */\n          lt\n            /* \"#utility.yul\":8489:8602   */\n          iszero\n          tag_216\n          jumpi\n            /* \"#utility.yul\":8588:8589   */\n          dup1\n            /* \"#utility.yul\":8583:8586   */\n          dup3\n            /* \"#utility.yul\":8579:8590   */\n          add\n            /* \"#utility.yul\":8573:8591   */\n          mload\n            /* \"#utility.yul\":8569:8570   */\n          dup2\n            /* \"#utility.yul\":8564:8567   */\n          dup5\n            /* \"#utility.yul\":8560:8571   */\n          add\n            /* \"#utility.yul\":8553:8592   */\n          mstore\n            /* \"#utility.yul\":8525:8527   */\n          0x20\n            /* \"#utility.yul\":8522:8523   */\n          dup2\n            /* \"#utility.yul\":8518:8528   */\n          add\n            /* \"#utility.yul\":8513:8528   */\n          swap1\n          pop\n            /* \"#utility.yul\":8489:8602   */\n          jump(tag_214)\n        tag_216:\n            /* \"#utility.yul\":8620:8626   */\n          dup4\n            /* \"#utility.yul\":8617:8618   */\n          dup2\n            /* \"#utility.yul\":8614:8627   */\n          gt\n            /* \"#utility.yul\":8611:8712   */\n          iszero\n          tag_217\n          jumpi\n            /* \"#utility.yul\":8700:8701   */\n          0x00\n            /* \"#utility.yul\":8691:8697   */\n          dup5\n            /* \"#utility.yul\":8686:8689   */\n          dup5\n            /* \"#utility.yul\":8682:8698   */\n          add\n            /* \"#utility.yul\":8675:8702   */\n          mstore\n            /* \"#utility.yul\":8611:8712   */\n        tag_217:\n            /* \"#utility.yul\":8460:8718   */\n          pop\n            /* \"#utility.yul\":8411:8718   */\n          pop\n          pop\n          pop\n          jump\t// out\n            /* \"#utility.yul\":8724:9044   */\n        tag_53:\n            /* \"#utility.yul\":8768:8774   */\n          0x00\n            /* \"#utility.yul\":8805:8806   */\n          0x02\n            /* \"#utility.yul\":8799:8803   */\n          dup3\n            /* \"#utility.yul\":8795:8807   */\n          div\n            /* \"#utility.yul\":8785:8807   */\n          swap1\n          pop\n            /* \"#utility.yul\":8852:8853   */\n          0x01\n            /* \"#utility.yul\":8846:8850   */\n          dup3\n            /* \"#utility.yul\":8842:8854   */\n          and\n            /* \"#utility.yul\":8873:8891   */\n          dup1\n            /* \"#utility.yul\":8863:8944   */\n          tag_219\n          jumpi\n            /* \"#utility.yul\":8929:8933   */\n          0x7f\n            /* \"#utility.yul\":8921:8927   */\n          dup3\n            /* \"#utility.yul\":8917:8934   */\n          and\n            /* \"#utility.yul\":8907:8934   */\n          swap2\n          pop\n            /* \"#utility.yul\":8863:8944   */\n        tag_219:\n            /* \"#utility.yul\":8991:8993   */\n          0x20\n            /* \"#utility.yul\":8983:8989   */\n          dup3\n            /* \"#utility.yul\":8980:8994   */\n          lt\n            /* \"#utility.yul\":8960:8978   */\n          dup2\n            /* \"#utility.yul\":8957:8995   */\n          eq\n            /* \"#utility.yul\":8954:9038   */\n          iszero\n          tag_220\n          jumpi\n            /* \"#utility.yul\":9010:9028   */\n          tag_221\n          tag_222\n          jump\t// in\n        tag_221:\n            /* \"#utility.yul\":8954:9038   */\n        tag_220:\n            /* \"#utility.yul\":8775:9044   */\n          pop\n            /* \"#utility.yul\":8724:9044   */\n          swap2\n          swap1\n          pop\n          jump\t// out\n            /* \"#utility.yul\":9050:9230   */\n        tag_201:\n            /* \"#utility.yul\":9098:9175   */\n          0x4e487b7100000000000000000000000000000000000000000000000000000000\n            /* \"#utility.yul\":9095:9096   */\n          0x00\n            /* \"#utility.yul\":9088:9176   */\n          mstore\n            /* \"#utility.yul\":9195:9199   */\n          0x11\n            /* \"#utility.yul\":9192:9193   */\n          0x04\n            /* \"#utility.yul\":9185:9200   */\n          mstore\n            /* \"#utility.yul\":9219:9223   */\n          0x24\n            /* \"#utility.yul\":9216:9217   */\n          0x00\n            /* \"#utility.yul\":9209:9224   */\n          revert\n            /* \"#utility.yul\":9236:9416   */\n        tag_222:\n            /* \"#utility.yul\":9284:9361   */\n          0x4e487b7100000000000000000000000000000000000000000000000000000000\n            /* \"#utility.yul\":9281:9282   */\n          0x00\n            /* \"#utility.yul\":9274:9362   */\n          mstore\n            /* \"#utility.yul\":9381:9385   */\n          0x22\n            /* \"#utility.yul\":9378:9379   */\n          0x04\n            /* \"#utility.yul\":9371:9386   */\n          mstore\n            /* \"#utility.yul\":9405:9409   */\n          0x24\n            /* \"#utility.yul\":9402:9403   */\n          0x00\n            /* \"#utility.yul\":9395:9410   */\n          revert\n            /* \"#utility.yul\":9545:9662   */\n        tag_116:\n            /* \"#utility.yul\":9654:9655   */\n          0x00\n            /* \"#utility.yul\":9651:9652   */\n          dup1\n            /* \"#utility.yul\":9644:9656   */\n          revert\n            /* \"#utility.yul\":9668:9770   */\n        tag_151:\n            /* \"#utility.yul\":9709:9715   */\n          0x00\n            /* \"#utility.yul\":9760:9762   */\n          0x1f\n            /* \"#utility.yul\":9756:9763   */\n          not\n            /* \"#utility.yul\":9751:9753   */\n          0x1f\n            /* \"#utility.yul\":9744:9749   */\n          dup4\n            /* \"#utility.yul\":9740:9754   */\n          add\n            /* \"#utility.yul\":9736:9764   */\n          and\n            /* \"#utility.yul\":9726:9764   */\n          swap1\n          pop\n            /* \"#utility.yul\":9668:9770   */\n          swap2\n          swap1\n          pop\n          jump\t// out\n            /* \"#utility.yul\":9776:9942   */\n        tag_156:\n            /* \"#utility.yul\":9916:9934   */\n          0x206f766572666c6f77204572726f722000000000000000000000000000000000\n            /* \"#utility.yul\":9912:9913   */\n          0x00\n            /* \"#utility.yul\":9904:9910   */\n          dup3\n            /* \"#utility.yul\":9900:9914   */\n          add\n            /* \"#utility.yul\":9893:9935   */\n          mstore\n            /* \"#utility.yul\":9776:9942   */\n          pop\n          jump\t// out\n            /* \"#utility.yul\":9948:10121   */\n        tag_161:\n            /* \"#utility.yul\":10088:10113   */\n          0x206e6f74206861766520656e6f756768206d6f6e657920000000000000000000\n            /* \"#utility.yul\":10084:10085   */\n          0x00\n            /* \"#utility.yul\":10076:10082   */\n          dup3\n            /* \"#utility.yul\":10072:10086   */\n          add\n            /* \"#utility.yul\":10065:10114   */\n          mstore\n            /* \"#utility.yul\":9948:10121   */\n          pop\n          jump\t// out\n            /* \"#utility.yul\":10127:10302   */\n        tag_166:\n            /* \"#utility.yul\":10267:10294   */\n          0x206920646f6e74206b6e6f77207768617473206572726f722000000000000000\n            /* \"#utility.yul\":10263:10264   */\n          0x00\n            /* \"#utility.yul\":10255:10261   */\n          dup3\n            /* \"#utility.yul\":10251:10265   */\n          add\n            /* \"#utility.yul\":10244:10295   */\n          mstore\n            /* \"#utility.yul\":10127:10302   */\n          pop\n          jump\t// out\n            /* \"#utility.yul\":10308:10479   */\n        tag_171:\n            /* \"#utility.yul\":10448:10471   */\n          0x2076616c75652063616e206e6f74206265203020200000000000000000000000\n            /* \"#utility.yul\":10444:10445   */\n          0x00\n            /* \"#utility.yul\":10436:10442   */\n          dup3\n            /* \"#utility.yul\":10432:10446   */\n          add\n            /* \"#utility.yul\":10425:10472   */\n          mstore\n            /* \"#utility.yul\":10308:10479   */\n          pop\n          jump\t// out\n            /* \"#utility.yul\":10485:10607   */\n        tag_108:\n            /* \"#utility.yul\":10558:10582   */\n          tag_234\n            /* \"#utility.yul\":10576:10581   */\n          dup2\n            /* \"#utility.yul\":10558:10582   */\n          tag_137\n          jump\t// in\n        tag_234:\n            /* \"#utility.yul\":10551:10556   */\n          dup2\n            /* \"#utility.yul\":10548:10583   */\n          eq\n            /* \"#utility.yul\":10538:10601   */\n          tag_235\n          jumpi\n            /* \"#utility.yul\":10597:10598   */\n          0x00\n            /* \"#utility.yul\":10594:10595   */\n          dup1\n            /* \"#utility.yul\":10587:10599   */\n          revert\n            /* \"#utility.yul\":10538:10601   */\n        tag_235:\n            /* \"#utility.yul\":10485:10607   */\n          pop\n          jump\t// out\n            /* \"#utility.yul\":10613:10735   */\n        tag_112:\n            /* \"#utility.yul\":10686:10710   */\n          tag_237\n            /* \"#utility.yul\":10704:10709   */\n          dup2\n            /* \"#utility.yul\":10686:10710   */\n          tag_175\n          jump\t// in\n        tag_237:\n            /* \"#utility.yul\":10679:10684   */\n          dup2\n            /* \"#utility.yul\":10676:10711   */\n          eq\n            /* \"#utility.yul\":10666:10729   */\n          tag_238\n          jumpi\n            /* \"#utility.yul\":10725:10726   */\n          0x00\n            /* \"#utility.yul\":10722:10723   */\n          dup1\n            /* \"#utility.yul\":10715:10727   */\n          revert\n            /* \"#utility.yul\":10666:10729   */\n        tag_238:\n            /* \"#utility.yul\":10613:10735   */\n          pop\n          jump\t// out\n\n        auxdata: 0xa26469706673582212206b06f6dc329f4a8bf75ac000657b17ecc7c73f58ae7b07b111ea2a6d42cc5fc964736f6c63430008070033\n    }\n}\n","bytecode":{"linkReferences":{},"object":"60806040523480156200001157600080fd5b5060405162001eae38038062001eae833981810160405281019062000037919062000193565b84848484846040516200004a90620000c2565b6200005a959493929190620002cd565b604051809103906000f08015801562000077573d6000803e3d6000fd5b506000806101000a81548173ffffffffffffffffffffffffffffffffffffffff021916908373ffffffffffffffffffffffffffffffffffffffff16021790555050505050506200050c565b61153c806200097283390190565b6000620000e7620000e18462000361565b62000338565b9050828152602081018484840111156200010657620001056200049e565b5b62000113848285620003fe565b509392505050565b6000815190506200012c81620004be565b92915050565b600082601f8301126200014a576200014962000499565b5b81516200015c848260208601620000d0565b91505092915050565b6000815190506200017681620004d8565b92915050565b6000815190506200018d81620004f2565b92915050565b600080600080600060a08688031215620001b257620001b1620004a8565b5b6000620001c2888289016200011b565b9550506020620001d58882890162000165565b945050604086015167ffffffffffffffff811115620001f957620001f8620004a3565b5b620002078882890162000132565b935050606086015167ffffffffffffffff8111156200022b576200022a620004a3565b5b620002398882890162000132565b92505060806200024c888289016200017c565b9150509295509295909350565b6200026481620003b3565b82525050565b6000620002778262000397565b620002838185620003a2565b935062000295818560208601620003fe565b620002a081620004ad565b840191505092915050565b620002b681620003e7565b82525050565b620002c781620003f1565b82525050565b600060a082019050620002e4600083018862000259565b620002f36020830187620002ab565b81810360408301526200030781866200026a565b905081810360608301526200031d81856200026a565b90506200032e6080830184620002bc565b9695505050505050565b60006200034462000357565b905062000352828262000434565b919050565b6000604051905090565b600067ffffffffffffffff8211156200037f576200037e6200046a565b5b6200038a82620004ad565b9050602081019050919050565b600081519050919050565b600082825260208201905092915050565b6000620003c082620003c7565b9050919050565b600073ffffffffffffffffffffffffffffffffffffffff82169050919050565b6000819050919050565b600060ff82169050919050565b60005b838110156200041e57808201518184015260208101905062000401565b838111156200042e576000848401525b50505050565b6200043f82620004ad565b810181811067ffffffffffffffff821117156200046157620004606200046a565b5b80604052505050565b7f4e487b7100000000000000000000000000000000000000000000000000000000600052604160045260246000fd5b600080fd5b600080fd5b600080fd5b600080fd5b6000601f19601f8301169050919050565b620004c981620003b3565b8114620004d557600080fd5b50565b620004e381620003e7565b8114620004ef57600080fd5b50565b620004fd81620003f1565b81146200050957600080fd5b50565b610456806200051c6000396000f3fe6080604052600436106100295760003560e01c8063653718831461002e578063fcb0368c14610059575b600080fd5b34801561003a57600080fd5b50610043610075565b60405161005091906102c1565b60405180910390f35b610073600480360381019061006e9190610276565b61011b565b005b60008060009054906101000a900473ffffffffffffffffffffffffffffffffffffffff1673ffffffffffffffffffffffffffffffffffffffff16638da5cb5b6040518163ffffffff1660e01b815260040160206040518083038186803b1580156100de57600080fd5b505afa1580156100f2573d6000803e3d6000fd5b505050506040513d601f19601f82011682018060405250810190610116919061021c565b905090565b600081346101299190610305565b905060008054906101000a900473ffffffffffffffffffffffffffffffffffffffff1673ffffffffffffffffffffffffffffffffffffffff1663a9059cbb33836040518363ffffffff1660e01b81526004016101869291906102dc565b602060405180830381600087803b1580156101a057600080fd5b505af11580156101b4573d6000803e3d6000fd5b505050506040513d601f19601f820116820180604052508101906101d89190610249565b505050565b6000815190506101ec816103db565b92915050565b600081519050610201816103f2565b92915050565b60008135905061021681610409565b92915050565b600060208284031215610232576102316103d6565b5b6000610240848285016101dd565b91505092915050565b60006020828403121561025f5761025e6103d6565b5b600061026d848285016101f2565b91505092915050565b60006020828403121561028c5761028b6103d6565b5b600061029a84828501610207565b91505092915050565b6102ac8161035f565b82525050565b6102bb8161039d565b82525050565b60006020820190506102d660008301846102a3565b92915050565b60006040820190506102f160008301856102a3565b6102fe60208301846102b2565b9392505050565b60006103108261039d565b915061031b8361039d565b9250817fffffffffffffffffffffffffffffffffffffffffffffffffffffffffffffffff0483118215151615610354576103536103a7565b5b828202905092915050565b600061036a8261037d565b9050919050565b60008115159050919050565b600073ffffffffffffffffffffffffffffffffffffffff82169050919050565b6000819050919050565b7f4e487b7100000000000000000000000000000000000000000000000000000000600052601160045260246000fd5b600080fd5b6103e48161035f565b81146103ef57600080fd5b50565b6103fb81610371565b811461040657600080fd5b50565b6104128161039d565b811461041d57600080fd5b5056fea264697066735822122078a700dcfc822792c79865dc965f99abb67fa24ee63199074404740e026f792464736f6c6343000807003360806040523480156200001157600080fd5b506040516200153c3803806200153c83398181016040528101906200003791906200027d565b83600560008773ffffffffffffffffffffffffffffffffffffffff1673ffffffffffffffffffffffffffffffffffffffff168152602001908152602001600020819055508360008190555082600190805190602001906200009a9291906200010a565b508160029080519060200190620000b39291906200010a565b508060ff1660038190555084600460006101000a81548173ffffffffffffffffffffffffffffffffffffffff021916908373ffffffffffffffffffffffffffffffffffffffff160217905550505050505062000560565b828054620001189062000423565b90600052602060002090601f0160209004810192826200013c576000855562000188565b82601f106200015757805160ff191683800117855562000188565b8280016001018555821562000188579182015b82811115620001875782518255916020019190600101906200016a565b5b5090506200019791906200019b565b5090565b5b80821115620001b65760008160009055506001016200019c565b5090565b6000620001d1620001cb846200036c565b62000343565b905082815260208101848484011115620001f057620001ef620004f2565b5b620001fd848285620003ed565b509392505050565b600081519050620002168162000512565b92915050565b600082601f830112620002345762000233620004ed565b5b815162000246848260208601620001ba565b91505092915050565b60008151905062000260816200052c565b92915050565b600081519050620002778162000546565b92915050565b600080600080600060a086880312156200029c576200029b620004fc565b5b6000620002ac8882890162000205565b9550506020620002bf888289016200024f565b945050604086015167ffffffffffffffff811115620002e357620002e2620004f7565b5b620002f1888289016200021c565b935050606086015167ffffffffffffffff811115620003155762000314620004f7565b5b62000323888289016200021c565b9250506080620003368882890162000266565b9150509295509295909350565b60006200034f62000362565b90506200035d828262000459565b919050565b6000604051905090565b600067ffffffffffffffff8211156200038a5762000389620004be565b5b620003958262000501565b9050602081019050919050565b6000620003af82620003b6565b9050919050565b600073ffffffffffffffffffffffffffffffffffffffff82169050919050565b6000819050919050565b600060ff82169050919050565b60005b838110156200040d578082015181840152602081019050620003f0565b838111156200041d576000848401525b50505050565b600060028204905060018216806200043c57607f821691505b602082108114156200045357620004526200048f565b5b50919050565b620004648262000501565b810181811067ffffffffffffffff82111715620004865762000485620004be565b5b80604052505050565b7f4e487b7100000000000000000000000000000000000000000000000000000000600052602260045260246000fd5b7f4e487b7100000000000000000000000000000000000000000000000000000000600052604160045260246000fd5b600080fd5b600080fd5b600080fd5b600080fd5b6000601f19601f8301169050919050565b6200051d81620003a2565b81146200052957600080fd5b50565b6200053781620003d6565b81146200054357600080fd5b50565b6200055181620003e0565b81146200055d57600080fd5b50565b610fcc80620005706000396000f3fe608060405234801561001057600080fd5b50600436106100935760003560e01c8063626be56711610066578063626be567146101345780638da5cb5b1461015257806395d89b4114610170578063a9059cbb1461018e578063e3d670d7146101be57610093565b806306fdde031461009857806323b872dd146100b6578063313ce567146100e65780635c65816514610104575b600080fd5b6100a06101ee565b6040516100ad9190610c40565b60405180910390f35b6100d060048036038101906100cb9190610a85565b61027c565b6040516100dd9190610c25565b60405180910390f35b6100ee61065a565b6040516100fb9190610ce2565b60405180910390f35b61011e60048036038101906101199190610a45565b610660565b60405161012b9190610ce2565b60405180910390f35b61013c610685565b6040516101499190610ce2565b60405180910390f35b61015a61068b565b6040516101679190610c0a565b60405180910390f35b6101786106b5565b6040516101859190610c40565b60405180910390f35b6101a860048036038101906101a39190610ad8565b610743565b6040516101b59190610c25565b60405180910390f35b6101d860048036038101906101d39190610a18565b610973565b6040516101e59190610ce2565b60405180910390f35b600180546101fb90610e1e565b80601f016020809104026020016040519081016040528092919081815260200182805461022790610e1e565b80156102745780601f1061024957610100808354040283529160200191610274565b820191906000526020600020905b81548152906001019060200180831161025757829003601f168201915b505050505081565b600082848360008111156102c5576040517f08c379a00000000000000000000000000000000000000000000000000000000081526004016102bc90610cc2565b60405180910390fd5b80600560008473ffffffffffffffffffffffffffffffffffffffff1673ffffffffffffffffffffffffffffffffffffffff1681526020019081526020016000205410610346576040517f08c379a000000000000000000000000000000000000000000000000000000000815260040161033d90610c82565b60405180910390fd5b600560008473ffffffffffffffffffffffffffffffffffffffff1673ffffffffffffffffffffffffffffffffffffffff1681526020019081526020016000205481600560008673ffffffffffffffffffffffffffffffffffffffff1673ffffffffffffffffffffffffffffffffffffffff168152602001908152602001600020546103d19190610d19565b10610411576040517f08c379a000000000000000000000000000000000000000000000000000000000815260040161040890610c62565b60405180910390fd5b600660008373ffffffffffffffffffffffffffffffffffffffff1673ffffffffffffffffffffffffffffffffffffffff16815260200190815260200160002060003373ffffffffffffffffffffffffffffffffffffffff1673ffffffffffffffffffffffffffffffffffffffff1681526020019081526020016000205481116104cf576040517f08c379a00000000000000000000000000000000000000000000000000000000081526004016104c690610ca2565b60405180910390fd5b610518600560003373ffffffffffffffffffffffffffffffffffffffff1673ffffffffffffffffffffffffffffffffffffffff168152602001908152602001600020548661098b565b600560008973ffffffffffffffffffffffffffffffffffffffff1673ffffffffffffffffffffffffffffffffffffffff168152602001908152602001600020819055506105a4600560008873ffffffffffffffffffffffffffffffffffffffff1673ffffffffffffffffffffffffffffffffffffffff16815260200190815260200160002054866109ad565b600560008873ffffffffffffffffffffffffffffffffffffffff1673ffffffffffffffffffffffffffffffffffffffff168152602001908152602001600020819055508573ffffffffffffffffffffffffffffffffffffffff168773ffffffffffffffffffffffffffffffffffffffff167fddf252ad1be2c89b69c2b068fc378daa952ba7f163c4a11628f55a4df523b3ef876040516106449190610ce2565b60405180910390a3600193505050509392505050565b60035481565b6006602052816000526040600020602052806000526040600020600091509150505481565b60005481565b6000600460009054906101000a900473ffffffffffffffffffffffffffffffffffffffff16905090565b600280546106c290610e1e565b80601f01602080910402602001604051908101604052809291908181526020018280546106ee90610e1e565b801561073b5780601f106107105761010080835404028352916020019161073b565b820191906000526020600020905b81548152906001019060200180831161071e57829003601f168201915b505050505081565b60008282600081111561075557600080fd5b600560008373ffffffffffffffffffffffffffffffffffffffff1673ffffffffffffffffffffffffffffffffffffffff1681526020019081526020016000205481600560008573ffffffffffffffffffffffffffffffffffffffff1673ffffffffffffffffffffffffffffffffffffffff168152602001908152602001600020546107e09190610d19565b106107ea57600080fd5b610833600560003373ffffffffffffffffffffffffffffffffffffffff1673ffffffffffffffffffffffffffffffffffffffff168152602001908152602001600020548561098b565b600560003373ffffffffffffffffffffffffffffffffffffffff1673ffffffffffffffffffffffffffffffffffffffff168152602001908152602001600020819055506108bf600560008773ffffffffffffffffffffffffffffffffffffffff1673ffffffffffffffffffffffffffffffffffffffff16815260200190815260200160002054856109ad565b600560008773ffffffffffffffffffffffffffffffffffffffff1673ffffffffffffffffffffffffffffffffffffffff168152602001908152602001600020819055508473ffffffffffffffffffffffffffffffffffffffff163373ffffffffffffffffffffffffffffffffffffffff167fddf252ad1be2c89b69c2b068fc378daa952ba7f163c4a11628f55a4df523b3ef8660405161095f9190610ce2565b60405180910390a360019250505092915050565b60056020528060005260406000206000915090505481565b6000610999838311156109e0565b81836109a59190610d6f565b905092915050565b60008082846109bc9190610d19565b90506109d68482101580156109d15750838210155b6109e0565b8091505092915050565b80156109eb57600080fd5b50565b6000813590506109fd81610f68565b92915050565b600081359050610a1281610f7f565b92915050565b600060208284031215610a2e57610a2d610eae565b5b6000610a3c848285016109ee565b91505092915050565b60008060408385031215610a5c57610a5b610eae565b5b6000610a6a858286016109ee565b9250506020610a7b858286016109ee565b9150509250929050565b600080600060608486031215610a9e57610a9d610eae565b5b6000610aac868287016109ee565b9350506020610abd868287016109ee565b9250506040610ace86828701610a03565b9150509250925092565b60008060408385031215610aef57610aee610eae565b5b6000610afd858286016109ee565b9250506020610b0e85828601610a03565b9150509250929050565b610b2181610da3565b82525050565b610b3081610db5565b82525050565b6000610b4182610cfd565b610b4b8185610d08565b9350610b5b818560208601610deb565b610b6481610eb3565b840191505092915050565b6000610b7c601083610d08565b9150610b8782610ec4565b602082019050919050565b6000610b9f601783610d08565b9150610baa82610eed565b602082019050919050565b6000610bc2601983610d08565b9150610bcd82610f16565b602082019050919050565b6000610be5601583610d08565b9150610bf082610f3f565b602082019050919050565b610c0481610de1565b82525050565b6000602082019050610c1f6000830184610b18565b92915050565b6000602082019050610c3a6000830184610b27565b92915050565b60006020820190508181036000830152610c5a8184610b36565b905092915050565b60006020820190508181036000830152610c7b81610b6f565b9050919050565b60006020820190508181036000830152610c9b81610b92565b9050919050565b60006020820190508181036000830152610cbb81610bb5565b9050919050565b60006020820190508181036000830152610cdb81610bd8565b9050919050565b6000602082019050610cf76000830184610bfb565b92915050565b600081519050919050565b600082825260208201905092915050565b6000610d2482610de1565b9150610d2f83610de1565b9250827fffffffffffffffffffffffffffffffffffffffffffffffffffffffffffffffff03821115610d6457610d63610e50565b5b828201905092915050565b6000610d7a82610de1565b9150610d8583610de1565b925082821015610d9857610d97610e50565b5b828203905092915050565b6000610dae82610dc1565b9050919050565b60008115159050919050565b600073ffffffffffffffffffffffffffffffffffffffff82169050919050565b6000819050919050565b60005b83811015610e09578082015181840152602081019050610dee565b83811115610e18576000848401525b50505050565b60006002820490506001821680610e3657607f821691505b60208210811415610e4a57610e49610e7f565b5b50919050565b7f4e487b7100000000000000000000000000000000000000000000000000000000600052601160045260246000fd5b7f4e487b7100000000000000000000000000000000000000000000000000000000600052602260045260246000fd5b600080fd5b6000601f19601f8301169050919050565b7f206f766572666c6f77204572726f722000000000000000000000000000000000600082015250565b7f206e6f74206861766520656e6f756768206d6f6e657920000000000000000000600082015250565b7f206920646f6e74206b6e6f77207768617473206572726f722000000000000000600082015250565b7f2076616c75652063616e206e6f74206265203020200000000000000000000000600082015250565b610f7181610da3565b8114610f7c57600080fd5b50565b610f8881610de1565b8114610f9357600080fd5b5056fea26469706673582212206b06f6dc329f4a8bf75ac000657b17ecc7c73f58ae7b07b111ea2a6d42cc5fc964736f6c63430008070033","opcodes":"PUSH1 0x80 PUSH1 0x40 MSTORE CALLVALUE DUP1 ISZERO PUSH3 0x11 JUMPI PUSH1 0x0 DUP1 REVERT JUMPDEST POP PUSH1 0x40 MLOAD PUSH3 0x1EAE CODESIZE SUB DUP1 PUSH3 0x1EAE DUP4 CODECOPY DUP2 DUP2 ADD PUSH1 0x40 MSTORE DUP2 ADD SWAP1 PUSH3 0x37 SWAP2 SWAP1 PUSH3 0x193 JUMP JUMPDEST DUP5 DUP5 DUP5 DUP5 DUP5 PUSH1 0x40 MLOAD PUSH3 0x4A SWAP1 PUSH3 0xC2 JUMP JUMPDEST PUSH3 0x5A SWAP6 SWAP5 SWAP4 SWAP3 SWAP2 SWAP1 PUSH3 0x2CD JUMP JUMPDEST PUSH1 0x40 MLOAD DUP1 SWAP2 SUB SWAP1 PUSH1 0x0 CREATE DUP1 ISZERO DUP1 ISZERO PUSH3 0x77 JUMPI RETURNDATASIZE PUSH1 0x0 DUP1 RETURNDATACOPY RETURNDATASIZE PUSH1 0x0 REVERT JUMPDEST POP PUSH1 0x0 DUP1 PUSH2 0x100 EXP DUP2 SLOAD DUP2 PUSH20 0xFFFFFFFFFFFFFFFFFFFFFFFFFFFFFFFFFFFFFFFF MUL NOT AND SWAP1 DUP4 PUSH20 0xFFFFFFFFFFFFFFFFFFFFFFFFFFFFFFFFFFFFFFFF AND MUL OR SWAP1 SSTORE POP POP POP POP POP POP PUSH3 0x50C JUMP JUMPDEST PUSH2 0x153C DUP1 PUSH3 0x972 DUP4 CODECOPY ADD SWAP1 JUMP JUMPDEST PUSH1 0x0 PUSH3 0xE7 PUSH3 0xE1 DUP5 PUSH3 0x361 JUMP JUMPDEST PUSH3 0x338 JUMP JUMPDEST SWAP1 POP DUP3 DUP2 MSTORE PUSH1 0x20 DUP2 ADD DUP5 DUP5 DUP5 ADD GT ISZERO PUSH3 0x106 JUMPI PUSH3 0x105 PUSH3 0x49E JUMP JUMPDEST JUMPDEST PUSH3 0x113 DUP5 DUP3 DUP6 PUSH3 0x3FE JUMP JUMPDEST POP SWAP4 SWAP3 POP POP POP JUMP JUMPDEST PUSH1 0x0 DUP2 MLOAD SWAP1 POP PUSH3 0x12C DUP2 PUSH3 0x4BE JUMP JUMPDEST SWAP3 SWAP2 POP POP JUMP JUMPDEST PUSH1 0x0 DUP3 PUSH1 0x1F DUP4 ADD SLT PUSH3 0x14A JUMPI PUSH3 0x149 PUSH3 0x499 JUMP JUMPDEST JUMPDEST DUP2 MLOAD PUSH3 0x15C DUP5 DUP3 PUSH1 0x20 DUP7 ADD PUSH3 0xD0 JUMP JUMPDEST SWAP2 POP POP SWAP3 SWAP2 POP POP JUMP JUMPDEST PUSH1 0x0 DUP2 MLOAD SWAP1 POP PUSH3 0x176 DUP2 PUSH3 0x4D8 JUMP JUMPDEST SWAP3 SWAP2 POP POP JUMP JUMPDEST PUSH1 0x0 DUP2 MLOAD SWAP1 POP PUSH3 0x18D DUP2 PUSH3 0x4F2 JUMP JUMPDEST SWAP3 SWAP2 POP POP JUMP JUMPDEST PUSH1 0x0 DUP1 PUSH1 0x0 DUP1 PUSH1 0x0 PUSH1 0xA0 DUP7 DUP9 SUB SLT ISZERO PUSH3 0x1B2 JUMPI PUSH3 0x1B1 PUSH3 0x4A8 JUMP JUMPDEST JUMPDEST PUSH1 0x0 PUSH3 0x1C2 DUP9 DUP3 DUP10 ADD PUSH3 0x11B JUMP JUMPDEST SWAP6 POP POP PUSH1 0x20 PUSH3 0x1D5 DUP9 DUP3 DUP10 ADD PUSH3 0x165 JUMP JUMPDEST SWAP5 POP POP PUSH1 0x40 DUP7 ADD MLOAD PUSH8 0xFFFFFFFFFFFFFFFF DUP2 GT ISZERO PUSH3 0x1F9 JUMPI PUSH3 0x1F8 PUSH3 0x4A3 JUMP JUMPDEST JUMPDEST PUSH3 0x207 DUP9 DUP3 DUP10 ADD PUSH3 0x132 JUMP JUMPDEST SWAP4 POP POP PUSH1 0x60 DUP7 ADD MLOAD PUSH8 0xFFFFFFFFFFFFFFFF DUP2 GT ISZERO PUSH3 0x22B JUMPI PUSH3 0x22A PUSH3 0x4A3 JUMP JUMPDEST JUMPDEST PUSH3 0x239 DUP9 DUP3 DUP10 ADD PUSH3 0x132 JUMP JUMPDEST SWAP3 POP POP PUSH1 0x80 PUSH3 0x24C DUP9 DUP3 DUP10 ADD PUSH3 0x17C JUMP JUMPDEST SWAP2 POP POP SWAP3 SWAP6 POP SWAP3 SWAP6 SWAP1 SWAP4 POP JUMP JUMPDEST PUSH3 0x264 DUP2 PUSH3 0x3B3 JUMP JUMPDEST DUP3 MSTORE POP POP JUMP JUMPDEST PUSH1 0x0 PUSH3 0x277 DUP3 PUSH3 0x397 JUMP JUMPDEST PUSH3 0x283 DUP2 DUP6 PUSH3 0x3A2 JUMP JUMPDEST SWAP4 POP PUSH3 0x295 DUP2 DUP6 PUSH1 0x20 DUP7 ADD PUSH3 0x3FE JUMP JUMPDEST PUSH3 0x2A0 DUP2 PUSH3 0x4AD JUMP JUMPDEST DUP5 ADD SWAP2 POP POP SWAP3 SWAP2 POP POP JUMP JUMPDEST PUSH3 0x2B6 DUP2 PUSH3 0x3E7 JUMP JUMPDEST DUP3 MSTORE POP POP JUMP JUMPDEST PUSH3 0x2C7 DUP2 PUSH3 0x3F1 JUMP JUMPDEST DUP3 MSTORE POP POP JUMP JUMPDEST PUSH1 0x0 PUSH1 0xA0 DUP3 ADD SWAP1 POP PUSH3 0x2E4 PUSH1 0x0 DUP4 ADD DUP9 PUSH3 0x259 JUMP JUMPDEST PUSH3 0x2F3 PUSH1 0x20 DUP4 ADD DUP8 PUSH3 0x2AB JUMP JUMPDEST DUP2 DUP2 SUB PUSH1 0x40 DUP4 ADD MSTORE PUSH3 0x307 DUP2 DUP7 PUSH3 0x26A JUMP JUMPDEST SWAP1 POP DUP2 DUP2 SUB PUSH1 0x60 DUP4 ADD MSTORE PUSH3 0x31D DUP2 DUP6 PUSH3 0x26A JUMP JUMPDEST SWAP1 POP PUSH3 0x32E PUSH1 0x80 DUP4 ADD DUP5 PUSH3 0x2BC JUMP JUMPDEST SWAP7 SWAP6 POP POP POP POP POP POP JUMP JUMPDEST PUSH1 0x0 PUSH3 0x344 PUSH3 0x357 JUMP JUMPDEST SWAP1 POP PUSH3 0x352 DUP3 DUP3 PUSH3 0x434 JUMP JUMPDEST SWAP2 SWAP1 POP JUMP JUMPDEST PUSH1 0x0 PUSH1 0x40 MLOAD SWAP1 POP SWAP1 JUMP JUMPDEST PUSH1 0x0 PUSH8 0xFFFFFFFFFFFFFFFF DUP3 GT ISZERO PUSH3 0x37F JUMPI PUSH3 0x37E PUSH3 0x46A JUMP JUMPDEST JUMPDEST PUSH3 0x38A DUP3 PUSH3 0x4AD JUMP JUMPDEST SWAP1 POP PUSH1 0x20 DUP2 ADD SWAP1 POP SWAP2 SWAP1 POP JUMP JUMPDEST PUSH1 0x0 DUP2 MLOAD SWAP1 POP SWAP2 SWAP1 POP JUMP JUMPDEST PUSH1 0x0 DUP3 DUP3 MSTORE PUSH1 0x20 DUP3 ADD SWAP1 POP SWAP3 SWAP2 POP POP JUMP JUMPDEST PUSH1 0x0 PUSH3 0x3C0 DUP3 PUSH3 0x3C7 JUMP JUMPDEST SWAP1 POP SWAP2 SWAP1 POP JUMP JUMPDEST PUSH1 0x0 PUSH20 0xFFFFFFFFFFFFFFFFFFFFFFFFFFFFFFFFFFFFFFFF DUP3 AND SWAP1 POP SWAP2 SWAP1 POP JUMP JUMPDEST PUSH1 0x0 DUP2 SWAP1 POP SWAP2 SWAP1 POP JUMP JUMPDEST PUSH1 0x0 PUSH1 0xFF DUP3 AND SWAP1 POP SWAP2 SWAP1 POP JUMP JUMPDEST PUSH1 0x0 JUMPDEST DUP4 DUP2 LT ISZERO PUSH3 0x41E JUMPI DUP1 DUP3 ADD MLOAD DUP2 DUP5 ADD MSTORE PUSH1 0x20 DUP2 ADD SWAP1 POP PUSH3 0x401 JUMP JUMPDEST DUP4 DUP2 GT ISZERO PUSH3 0x42E JUMPI PUSH1 0x0 DUP5 DUP5 ADD MSTORE JUMPDEST POP POP POP POP JUMP JUMPDEST PUSH3 0x43F DUP3 PUSH3 0x4AD JUMP JUMPDEST DUP2 ADD DUP2 DUP2 LT PUSH8 0xFFFFFFFFFFFFFFFF DUP3 GT OR ISZERO PUSH3 0x461 JUMPI PUSH3 0x460 PUSH3 0x46A JUMP JUMPDEST JUMPDEST DUP1 PUSH1 0x40 MSTORE POP POP POP JUMP JUMPDEST PUSH32 0x4E487B7100000000000000000000000000000000000000000000000000000000 PUSH1 0x0 MSTORE PUSH1 0x41 PUSH1 0x4 MSTORE PUSH1 0x24 PUSH1 0x0 REVERT JUMPDEST PUSH1 0x0 DUP1 REVERT JUMPDEST PUSH1 0x0 DUP1 REVERT JUMPDEST PUSH1 0x0 DUP1 REVERT JUMPDEST PUSH1 0x0 DUP1 REVERT JUMPDEST PUSH1 0x0 PUSH1 0x1F NOT PUSH1 0x1F DUP4 ADD AND SWAP1 POP SWAP2 SWAP1 POP JUMP JUMPDEST PUSH3 0x4C9 DUP2 PUSH3 0x3B3 JUMP JUMPDEST DUP2 EQ PUSH3 0x4D5 JUMPI PUSH1 0x0 DUP1 REVERT JUMPDEST POP JUMP JUMPDEST PUSH3 0x4E3 DUP2 PUSH3 0x3E7 JUMP JUMPDEST DUP2 EQ PUSH3 0x4EF JUMPI PUSH1 0x0 DUP1 REVERT JUMPDEST POP JUMP JUMPDEST PUSH3 0x4FD DUP2 PUSH3 0x3F1 JUMP JUMPDEST DUP2 EQ PUSH3 0x509 JUMPI PUSH1 0x0 DUP1 REVERT JUMPDEST POP JUMP JUMPDEST PUSH2 0x456 DUP1 PUSH3 0x51C PUSH1 0x0 CODECOPY PUSH1 0x0 RETURN INVALID PUSH1 0x80 PUSH1 0x40 MSTORE PUSH1 0x4 CALLDATASIZE LT PUSH2 0x29 JUMPI PUSH1 0x0 CALLDATALOAD PUSH1 0xE0 SHR DUP1 PUSH4 0x65371883 EQ PUSH2 0x2E JUMPI DUP1 PUSH4 0xFCB0368C EQ PUSH2 0x59 JUMPI JUMPDEST PUSH1 0x0 DUP1 REVERT JUMPDEST CALLVALUE DUP1 ISZERO PUSH2 0x3A JUMPI PUSH1 0x0 DUP1 REVERT JUMPDEST POP PUSH2 0x43 PUSH2 0x75 JUMP JUMPDEST PUSH1 0x40 MLOAD PUSH2 0x50 SWAP2 SWAP1 PUSH2 0x2C1 JUMP JUMPDEST PUSH1 0x40 MLOAD DUP1 SWAP2 SUB SWAP1 RETURN JUMPDEST PUSH2 0x73 PUSH1 0x4 DUP1 CALLDATASIZE SUB DUP2 ADD SWAP1 PUSH2 0x6E SWAP2 SWAP1 PUSH2 0x276 JUMP JUMPDEST PUSH2 0x11B JUMP JUMPDEST STOP JUMPDEST PUSH1 0x0 DUP1 PUSH1 0x0 SWAP1 SLOAD SWAP1 PUSH2 0x100 EXP SWAP1 DIV PUSH20 0xFFFFFFFFFFFFFFFFFFFFFFFFFFFFFFFFFFFFFFFF AND PUSH20 0xFFFFFFFFFFFFFFFFFFFFFFFFFFFFFFFFFFFFFFFF AND PUSH4 0x8DA5CB5B PUSH1 0x40 MLOAD DUP2 PUSH4 0xFFFFFFFF AND PUSH1 0xE0 SHL DUP2 MSTORE PUSH1 0x4 ADD PUSH1 0x20 PUSH1 0x40 MLOAD DUP1 DUP4 SUB DUP2 DUP7 DUP1 EXTCODESIZE ISZERO DUP1 ISZERO PUSH2 0xDE JUMPI PUSH1 0x0 DUP1 REVERT JUMPDEST POP GAS STATICCALL ISZERO DUP1 ISZERO PUSH2 0xF2 JUMPI RETURNDATASIZE PUSH1 0x0 DUP1 RETURNDATACOPY RETURNDATASIZE PUSH1 0x0 REVERT JUMPDEST POP POP POP POP PUSH1 0x40 MLOAD RETURNDATASIZE PUSH1 0x1F NOT PUSH1 0x1F DUP3 ADD AND DUP3 ADD DUP1 PUSH1 0x40 MSTORE POP DUP2 ADD SWAP1 PUSH2 0x116 SWAP2 SWAP1 PUSH2 0x21C JUMP JUMPDEST SWAP1 POP SWAP1 JUMP JUMPDEST PUSH1 0x0 DUP2 CALLVALUE PUSH2 0x129 SWAP2 SWAP1 PUSH2 0x305 JUMP JUMPDEST SWAP1 POP PUSH1 0x0 DUP1 SLOAD SWAP1 PUSH2 0x100 EXP SWAP1 DIV PUSH20 0xFFFFFFFFFFFFFFFFFFFFFFFFFFFFFFFFFFFFFFFF AND PUSH20 0xFFFFFFFFFFFFFFFFFFFFFFFFFFFFFFFFFFFFFFFF AND PUSH4 0xA9059CBB CALLER DUP4 PUSH1 0x40 MLOAD DUP4 PUSH4 0xFFFFFFFF AND PUSH1 0xE0 SHL DUP2 MSTORE PUSH1 0x4 ADD PUSH2 0x186 SWAP3 SWAP2 SWAP1 PUSH2 0x2DC JUMP JUMPDEST PUSH1 0x20 PUSH1 0x40 MLOAD DUP1 DUP4 SUB DUP2 PUSH1 0x0 DUP8 DUP1 EXTCODESIZE ISZERO DUP1 ISZERO PUSH2 0x1A0 JUMPI PUSH1 0x0 DUP1 REVERT JUMPDEST POP GAS CALL ISZERO DUP1 ISZERO PUSH2 0x1B4 JUMPI RETURNDATASIZE PUSH1 0x0 DUP1 RETURNDATACOPY RETURNDATASIZE PUSH1 0x0 REVERT JUMPDEST POP POP POP POP PUSH1 0x40 MLOAD RETURNDATASIZE PUSH1 0x1F NOT PUSH1 0x1F DUP3 ADD AND DUP3 ADD DUP1 PUSH1 0x40 MSTORE POP DUP2 ADD SWAP1 PUSH2 0x1D8 SWAP2 SWAP1 PUSH2 0x249 JUMP JUMPDEST POP POP POP JUMP JUMPDEST PUSH1 0x0 DUP2 MLOAD SWAP1 POP PUSH2 0x1EC DUP2 PUSH2 0x3DB JUMP JUMPDEST SWAP3 SWAP2 POP POP JUMP JUMPDEST PUSH1 0x0 DUP2 MLOAD SWAP1 POP PUSH2 0x201 DUP2 PUSH2 0x3F2 JUMP JUMPDEST SWAP3 SWAP2 POP POP JUMP JUMPDEST PUSH1 0x0 DUP2 CALLDATALOAD SWAP1 POP PUSH2 0x216 DUP2 PUSH2 0x409 JUMP JUMPDEST SWAP3 SWAP2 POP POP JUMP JUMPDEST PUSH1 0x0 PUSH1 0x20 DUP3 DUP5 SUB SLT ISZERO PUSH2 0x232 JUMPI PUSH2 0x231 PUSH2 0x3D6 JUMP JUMPDEST JUMPDEST PUSH1 0x0 PUSH2 0x240 DUP5 DUP3 DUP6 ADD PUSH2 0x1DD JUMP JUMPDEST SWAP2 POP POP SWAP3 SWAP2 POP POP JUMP JUMPDEST PUSH1 0x0 PUSH1 0x20 DUP3 DUP5 SUB SLT ISZERO PUSH2 0x25F JUMPI PUSH2 0x25E PUSH2 0x3D6 JUMP JUMPDEST JUMPDEST PUSH1 0x0 PUSH2 0x26D DUP5 DUP3 DUP6 ADD PUSH2 0x1F2 JUMP JUMPDEST SWAP2 POP POP SWAP3 SWAP2 POP POP JUMP JUMPDEST PUSH1 0x0 PUSH1 0x20 DUP3 DUP5 SUB SLT ISZERO PUSH2 0x28C JUMPI PUSH2 0x28B PUSH2 0x3D6 JUMP JUMPDEST JUMPDEST PUSH1 0x0 PUSH2 0x29A DUP5 DUP3 DUP6 ADD PUSH2 0x207 JUMP JUMPDEST SWAP2 POP POP SWAP3 SWAP2 POP POP JUMP JUMPDEST PUSH2 0x2AC DUP2 PUSH2 0x35F JUMP JUMPDEST DUP3 MSTORE POP POP JUMP JUMPDEST PUSH2 0x2BB DUP2 PUSH2 0x39D JUMP JUMPDEST DUP3 MSTORE POP POP JUMP JUMPDEST PUSH1 0x0 PUSH1 0x20 DUP3 ADD SWAP1 POP PUSH2 0x2D6 PUSH1 0x0 DUP4 ADD DUP5 PUSH2 0x2A3 JUMP JUMPDEST SWAP3 SWAP2 POP POP JUMP JUMPDEST PUSH1 0x0 PUSH1 0x40 DUP3 ADD SWAP1 POP PUSH2 0x2F1 PUSH1 0x0 DUP4 ADD DUP6 PUSH2 0x2A3 JUMP JUMPDEST PUSH2 0x2FE PUSH1 0x20 DUP4 ADD DUP5 PUSH2 0x2B2 JUMP JUMPDEST SWAP4 SWAP3 POP POP POP JUMP JUMPDEST PUSH1 0x0 PUSH2 0x310 DUP3 PUSH2 0x39D JUMP JUMPDEST SWAP2 POP PUSH2 0x31B DUP4 PUSH2 0x39D JUMP JUMPDEST SWAP3 POP DUP2 PUSH32 0xFFFFFFFFFFFFFFFFFFFFFFFFFFFFFFFFFFFFFFFFFFFFFFFFFFFFFFFFFFFFFFFF DIV DUP4 GT DUP3 ISZERO ISZERO AND ISZERO PUSH2 0x354 JUMPI PUSH2 0x353 PUSH2 0x3A7 JUMP JUMPDEST JUMPDEST DUP3 DUP3 MUL SWAP1 POP SWAP3 SWAP2 POP POP JUMP JUMPDEST PUSH1 0x0 PUSH2 0x36A DUP3 PUSH2 0x37D JUMP JUMPDEST SWAP1 POP SWAP2 SWAP1 POP JUMP JUMPDEST PUSH1 0x0 DUP2 ISZERO ISZERO SWAP1 POP SWAP2 SWAP1 POP JUMP JUMPDEST PUSH1 0x0 PUSH20 0xFFFFFFFFFFFFFFFFFFFFFFFFFFFFFFFFFFFFFFFF DUP3 AND SWAP1 POP SWAP2 SWAP1 POP JUMP JUMPDEST PUSH1 0x0 DUP2 SWAP1 POP SWAP2 SWAP1 POP JUMP JUMPDEST PUSH32 0x4E487B7100000000000000000000000000000000000000000000000000000000 PUSH1 0x0 MSTORE PUSH1 0x11 PUSH1 0x4 MSTORE PUSH1 0x24 PUSH1 0x0 REVERT JUMPDEST PUSH1 0x0 DUP1 REVERT JUMPDEST PUSH2 0x3E4 DUP2 PUSH2 0x35F JUMP JUMPDEST DUP2 EQ PUSH2 0x3EF JUMPI PUSH1 0x0 DUP1 REVERT JUMPDEST POP JUMP JUMPDEST PUSH2 0x3FB DUP2 PUSH2 0x371 JUMP JUMPDEST DUP2 EQ PUSH2 0x406 JUMPI PUSH1 0x0 DUP1 REVERT JUMPDEST POP JUMP JUMPDEST PUSH2 0x412 DUP2 PUSH2 0x39D JUMP JUMPDEST DUP2 EQ PUSH2 0x41D JUMPI PUSH1 0x0 DUP1 REVERT JUMPDEST POP JUMP INVALID LOG2 PUSH5 0x6970667358 0x22 SLT KECCAK256 PUSH25 0xA700DCFC822792C79865DC965F99ABB67FA24EE63199074404 PUSH21 0xE026F792464736F6C634300080700336080604052 CALLVALUE DUP1 ISZERO PUSH3 0x11 JUMPI PUSH1 0x0 DUP1 REVERT JUMPDEST POP PUSH1 0x40 MLOAD PUSH3 0x153C CODESIZE SUB DUP1 PUSH3 0x153C DUP4 CODECOPY DUP2 DUP2 ADD PUSH1 0x40 MSTORE DUP2 ADD SWAP1 PUSH3 0x37 SWAP2 SWAP1 PUSH3 0x27D JUMP JUMPDEST DUP4 PUSH1 0x5 PUSH1 0x0 DUP8 PUSH20 0xFFFFFFFFFFFFFFFFFFFFFFFFFFFFFFFFFFFFFFFF AND PUSH20 0xFFFFFFFFFFFFFFFFFFFFFFFFFFFFFFFFFFFFFFFF AND DUP2 MSTORE PUSH1 0x20 ADD SWAP1 DUP2 MSTORE PUSH1 0x20 ADD PUSH1 0x0 KECCAK256 DUP2 SWAP1 SSTORE POP DUP4 PUSH1 0x0 DUP2 SWAP1 SSTORE POP DUP3 PUSH1 0x1 SWAP1 DUP1 MLOAD SWAP1 PUSH1 0x20 ADD SWAP1 PUSH3 0x9A SWAP3 SWAP2 SWAP1 PUSH3 0x10A JUMP JUMPDEST POP DUP2 PUSH1 0x2 SWAP1 DUP1 MLOAD SWAP1 PUSH1 0x20 ADD SWAP1 PUSH3 0xB3 SWAP3 SWAP2 SWAP1 PUSH3 0x10A JUMP JUMPDEST POP DUP1 PUSH1 0xFF AND PUSH1 0x3 DUP2 SWAP1 SSTORE POP DUP5 PUSH1 0x4 PUSH1 0x0 PUSH2 0x100 EXP DUP2 SLOAD DUP2 PUSH20 0xFFFFFFFFFFFFFFFFFFFFFFFFFFFFFFFFFFFFFFFF MUL NOT AND SWAP1 DUP4 PUSH20 0xFFFFFFFFFFFFFFFFFFFFFFFFFFFFFFFFFFFFFFFF AND MUL OR SWAP1 SSTORE POP POP POP POP POP POP PUSH3 0x560 JUMP JUMPDEST DUP3 DUP1 SLOAD PUSH3 0x118 SWAP1 PUSH3 0x423 JUMP JUMPDEST SWAP1 PUSH1 0x0 MSTORE PUSH1 0x20 PUSH1 0x0 KECCAK256 SWAP1 PUSH1 0x1F ADD PUSH1 0x20 SWAP1 DIV DUP2 ADD SWAP3 DUP3 PUSH3 0x13C JUMPI PUSH1 0x0 DUP6 SSTORE PUSH3 0x188 JUMP JUMPDEST DUP3 PUSH1 0x1F LT PUSH3 0x157 JUMPI DUP1 MLOAD PUSH1 0xFF NOT AND DUP4 DUP1 ADD OR DUP6 SSTORE PUSH3 0x188 JUMP JUMPDEST DUP3 DUP1 ADD PUSH1 0x1 ADD DUP6 SSTORE DUP3 ISZERO PUSH3 0x188 JUMPI SWAP2 DUP3 ADD JUMPDEST DUP3 DUP2 GT ISZERO PUSH3 0x187 JUMPI DUP3 MLOAD DUP3 SSTORE SWAP2 PUSH1 0x20 ADD SWAP2 SWAP1 PUSH1 0x1 ADD SWAP1 PUSH3 0x16A JUMP JUMPDEST JUMPDEST POP SWAP1 POP PUSH3 0x197 SWAP2 SWAP1 PUSH3 0x19B JUMP JUMPDEST POP SWAP1 JUMP JUMPDEST JUMPDEST DUP1 DUP3 GT ISZERO PUSH3 0x1B6 JUMPI PUSH1 0x0 DUP2 PUSH1 0x0 SWAP1 SSTORE POP PUSH1 0x1 ADD PUSH3 0x19C JUMP JUMPDEST POP SWAP1 JUMP JUMPDEST PUSH1 0x0 PUSH3 0x1D1 PUSH3 0x1CB DUP5 PUSH3 0x36C JUMP JUMPDEST PUSH3 0x343 JUMP JUMPDEST SWAP1 POP DUP3 DUP2 MSTORE PUSH1 0x20 DUP2 ADD DUP5 DUP5 DUP5 ADD GT ISZERO PUSH3 0x1F0 JUMPI PUSH3 0x1EF PUSH3 0x4F2 JUMP JUMPDEST JUMPDEST PUSH3 0x1FD DUP5 DUP3 DUP6 PUSH3 0x3ED JUMP JUMPDEST POP SWAP4 SWAP3 POP POP POP JUMP JUMPDEST PUSH1 0x0 DUP2 MLOAD SWAP1 POP PUSH3 0x216 DUP2 PUSH3 0x512 JUMP JUMPDEST SWAP3 SWAP2 POP POP JUMP JUMPDEST PUSH1 0x0 DUP3 PUSH1 0x1F DUP4 ADD SLT PUSH3 0x234 JUMPI PUSH3 0x233 PUSH3 0x4ED JUMP JUMPDEST JUMPDEST DUP2 MLOAD PUSH3 0x246 DUP5 DUP3 PUSH1 0x20 DUP7 ADD PUSH3 0x1BA JUMP JUMPDEST SWAP2 POP POP SWAP3 SWAP2 POP POP JUMP JUMPDEST PUSH1 0x0 DUP2 MLOAD SWAP1 POP PUSH3 0x260 DUP2 PUSH3 0x52C JUMP JUMPDEST SWAP3 SWAP2 POP POP JUMP JUMPDEST PUSH1 0x0 DUP2 MLOAD SWAP1 POP PUSH3 0x277 DUP2 PUSH3 0x546 JUMP JUMPDEST SWAP3 SWAP2 POP POP JUMP JUMPDEST PUSH1 0x0 DUP1 PUSH1 0x0 DUP1 PUSH1 0x0 PUSH1 0xA0 DUP7 DUP9 SUB SLT ISZERO PUSH3 0x29C JUMPI PUSH3 0x29B PUSH3 0x4FC JUMP JUMPDEST JUMPDEST PUSH1 0x0 PUSH3 0x2AC DUP9 DUP3 DUP10 ADD PUSH3 0x205 JUMP JUMPDEST SWAP6 POP POP PUSH1 0x20 PUSH3 0x2BF DUP9 DUP3 DUP10 ADD PUSH3 0x24F JUMP JUMPDEST SWAP5 POP POP PUSH1 0x40 DUP7 ADD MLOAD PUSH8 0xFFFFFFFFFFFFFFFF DUP2 GT ISZERO PUSH3 0x2E3 JUMPI PUSH3 0x2E2 PUSH3 0x4F7 JUMP JUMPDEST JUMPDEST PUSH3 0x2F1 DUP9 DUP3 DUP10 ADD PUSH3 0x21C JUMP JUMPDEST SWAP4 POP POP PUSH1 0x60 DUP7 ADD MLOAD PUSH8 0xFFFFFFFFFFFFFFFF DUP2 GT ISZERO PUSH3 0x315 JUMPI PUSH3 0x314 PUSH3 0x4F7 JUMP JUMPDEST JUMPDEST PUSH3 0x323 DUP9 DUP3 DUP10 ADD PUSH3 0x21C JUMP JUMPDEST SWAP3 POP POP PUSH1 0x80 PUSH3 0x336 DUP9 DUP3 DUP10 ADD PUSH3 0x266 JUMP JUMPDEST SWAP2 POP POP SWAP3 SWAP6 POP SWAP3 SWAP6 SWAP1 SWAP4 POP JUMP JUMPDEST PUSH1 0x0 PUSH3 0x34F PUSH3 0x362 JUMP JUMPDEST SWAP1 POP PUSH3 0x35D DUP3 DUP3 PUSH3 0x459 JUMP JUMPDEST SWAP2 SWAP1 POP JUMP JUMPDEST PUSH1 0x0 PUSH1 0x40 MLOAD SWAP1 POP SWAP1 JUMP JUMPDEST PUSH1 0x0 PUSH8 0xFFFFFFFFFFFFFFFF DUP3 GT ISZERO PUSH3 0x38A JUMPI PUSH3 0x389 PUSH3 0x4BE JUMP JUMPDEST JUMPDEST PUSH3 0x395 DUP3 PUSH3 0x501 JUMP JUMPDEST SWAP1 POP PUSH1 0x20 DUP2 ADD SWAP1 POP SWAP2 SWAP1 POP JUMP JUMPDEST PUSH1 0x0 PUSH3 0x3AF DUP3 PUSH3 0x3B6 JUMP JUMPDEST SWAP1 POP SWAP2 SWAP1 POP JUMP JUMPDEST PUSH1 0x0 PUSH20 0xFFFFFFFFFFFFFFFFFFFFFFFFFFFFFFFFFFFFFFFF DUP3 AND SWAP1 POP SWAP2 SWAP1 POP JUMP JUMPDEST PUSH1 0x0 DUP2 SWAP1 POP SWAP2 SWAP1 POP JUMP JUMPDEST PUSH1 0x0 PUSH1 0xFF DUP3 AND SWAP1 POP SWAP2 SWAP1 POP JUMP JUMPDEST PUSH1 0x0 JUMPDEST DUP4 DUP2 LT ISZERO PUSH3 0x40D JUMPI DUP1 DUP3 ADD MLOAD DUP2 DUP5 ADD MSTORE PUSH1 0x20 DUP2 ADD SWAP1 POP PUSH3 0x3F0 JUMP JUMPDEST DUP4 DUP2 GT ISZERO PUSH3 0x41D JUMPI PUSH1 0x0 DUP5 DUP5 ADD MSTORE JUMPDEST POP POP POP POP JUMP JUMPDEST PUSH1 0x0 PUSH1 0x2 DUP3 DIV SWAP1 POP PUSH1 0x1 DUP3 AND DUP1 PUSH3 0x43C JUMPI PUSH1 0x7F DUP3 AND SWAP2 POP JUMPDEST PUSH1 0x20 DUP3 LT DUP2 EQ ISZERO PUSH3 0x453 JUMPI PUSH3 0x452 PUSH3 0x48F JUMP JUMPDEST JUMPDEST POP SWAP2 SWAP1 POP JUMP JUMPDEST PUSH3 0x464 DUP3 PUSH3 0x501 JUMP JUMPDEST DUP2 ADD DUP2 DUP2 LT PUSH8 0xFFFFFFFFFFFFFFFF DUP3 GT OR ISZERO PUSH3 0x486 JUMPI PUSH3 0x485 PUSH3 0x4BE JUMP JUMPDEST JUMPDEST DUP1 PUSH1 0x40 MSTORE POP POP POP JUMP JUMPDEST PUSH32 0x4E487B7100000000000000000000000000000000000000000000000000000000 PUSH1 0x0 MSTORE PUSH1 0x22 PUSH1 0x4 MSTORE PUSH1 0x24 PUSH1 0x0 REVERT JUMPDEST PUSH32 0x4E487B7100000000000000000000000000000000000000000000000000000000 PUSH1 0x0 MSTORE PUSH1 0x41 PUSH1 0x4 MSTORE PUSH1 0x24 PUSH1 0x0 REVERT JUMPDEST PUSH1 0x0 DUP1 REVERT JUMPDEST PUSH1 0x0 DUP1 REVERT JUMPDEST PUSH1 0x0 DUP1 REVERT JUMPDEST PUSH1 0x0 DUP1 REVERT JUMPDEST PUSH1 0x0 PUSH1 0x1F NOT PUSH1 0x1F DUP4 ADD AND SWAP1 POP SWAP2 SWAP1 POP JUMP JUMPDEST PUSH3 0x51D DUP2 PUSH3 0x3A2 JUMP JUMPDEST DUP2 EQ PUSH3 0x529 JUMPI PUSH1 0x0 DUP1 REVERT JUMPDEST POP JUMP JUMPDEST PUSH3 0x537 DUP2 PUSH3 0x3D6 JUMP JUMPDEST DUP2 EQ PUSH3 0x543 JUMPI PUSH1 0x0 DUP1 REVERT JUMPDEST POP JUMP JUMPDEST PUSH3 0x551 DUP2 PUSH3 0x3E0 JUMP JUMPDEST DUP2 EQ PUSH3 0x55D JUMPI PUSH1 0x0 DUP1 REVERT JUMPDEST POP JUMP JUMPDEST PUSH2 0xFCC DUP1 PUSH3 0x570 PUSH1 0x0 CODECOPY PUSH1 0x0 RETURN INVALID PUSH1 0x80 PUSH1 0x40 MSTORE CALLVALUE DUP1 ISZERO PUSH2 0x10 JUMPI PUSH1 0x0 DUP1 REVERT JUMPDEST POP PUSH1 0x4 CALLDATASIZE LT PUSH2 0x93 JUMPI PUSH1 0x0 CALLDATALOAD PUSH1 0xE0 SHR DUP1 PUSH4 0x626BE567 GT PUSH2 0x66 JUMPI DUP1 PUSH4 0x626BE567 EQ PUSH2 0x134 JUMPI DUP1 PUSH4 0x8DA5CB5B EQ PUSH2 0x152 JUMPI DUP1 PUSH4 0x95D89B41 EQ PUSH2 0x170 JUMPI DUP1 PUSH4 0xA9059CBB EQ PUSH2 0x18E JUMPI DUP1 PUSH4 0xE3D670D7 EQ PUSH2 0x1BE JUMPI PUSH2 0x93 JUMP JUMPDEST DUP1 PUSH4 0x6FDDE03 EQ PUSH2 0x98 JUMPI DUP1 PUSH4 0x23B872DD EQ PUSH2 0xB6 JUMPI DUP1 PUSH4 0x313CE567 EQ PUSH2 0xE6 JUMPI DUP1 PUSH4 0x5C658165 EQ PUSH2 0x104 JUMPI JUMPDEST PUSH1 0x0 DUP1 REVERT JUMPDEST PUSH2 0xA0 PUSH2 0x1EE JUMP JUMPDEST PUSH1 0x40 MLOAD PUSH2 0xAD SWAP2 SWAP1 PUSH2 0xC40 JUMP JUMPDEST PUSH1 0x40 MLOAD DUP1 SWAP2 SUB SWAP1 RETURN JUMPDEST PUSH2 0xD0 PUSH1 0x4 DUP1 CALLDATASIZE SUB DUP2 ADD SWAP1 PUSH2 0xCB SWAP2 SWAP1 PUSH2 0xA85 JUMP JUMPDEST PUSH2 0x27C JUMP JUMPDEST PUSH1 0x40 MLOAD PUSH2 0xDD SWAP2 SWAP1 PUSH2 0xC25 JUMP JUMPDEST PUSH1 0x40 MLOAD DUP1 SWAP2 SUB SWAP1 RETURN JUMPDEST PUSH2 0xEE PUSH2 0x65A JUMP JUMPDEST PUSH1 0x40 MLOAD PUSH2 0xFB SWAP2 SWAP1 PUSH2 0xCE2 JUMP JUMPDEST PUSH1 0x40 MLOAD DUP1 SWAP2 SUB SWAP1 RETURN JUMPDEST PUSH2 0x11E PUSH1 0x4 DUP1 CALLDATASIZE SUB DUP2 ADD SWAP1 PUSH2 0x119 SWAP2 SWAP1 PUSH2 0xA45 JUMP JUMPDEST PUSH2 0x660 JUMP JUMPDEST PUSH1 0x40 MLOAD PUSH2 0x12B SWAP2 SWAP1 PUSH2 0xCE2 JUMP JUMPDEST PUSH1 0x40 MLOAD DUP1 SWAP2 SUB SWAP1 RETURN JUMPDEST PUSH2 0x13C PUSH2 0x685 JUMP JUMPDEST PUSH1 0x40 MLOAD PUSH2 0x149 SWAP2 SWAP1 PUSH2 0xCE2 JUMP JUMPDEST PUSH1 0x40 MLOAD DUP1 SWAP2 SUB SWAP1 RETURN JUMPDEST PUSH2 0x15A PUSH2 0x68B JUMP JUMPDEST PUSH1 0x40 MLOAD PUSH2 0x167 SWAP2 SWAP1 PUSH2 0xC0A JUMP JUMPDEST PUSH1 0x40 MLOAD DUP1 SWAP2 SUB SWAP1 RETURN JUMPDEST PUSH2 0x178 PUSH2 0x6B5 JUMP JUMPDEST PUSH1 0x40 MLOAD PUSH2 0x185 SWAP2 SWAP1 PUSH2 0xC40 JUMP JUMPDEST PUSH1 0x40 MLOAD DUP1 SWAP2 SUB SWAP1 RETURN JUMPDEST PUSH2 0x1A8 PUSH1 0x4 DUP1 CALLDATASIZE SUB DUP2 ADD SWAP1 PUSH2 0x1A3 SWAP2 SWAP1 PUSH2 0xAD8 JUMP JUMPDEST PUSH2 0x743 JUMP JUMPDEST PUSH1 0x40 MLOAD PUSH2 0x1B5 SWAP2 SWAP1 PUSH2 0xC25 JUMP JUMPDEST PUSH1 0x40 MLOAD DUP1 SWAP2 SUB SWAP1 RETURN JUMPDEST PUSH2 0x1D8 PUSH1 0x4 DUP1 CALLDATASIZE SUB DUP2 ADD SWAP1 PUSH2 0x1D3 SWAP2 SWAP1 PUSH2 0xA18 JUMP JUMPDEST PUSH2 0x973 JUMP JUMPDEST PUSH1 0x40 MLOAD PUSH2 0x1E5 SWAP2 SWAP1 PUSH2 0xCE2 JUMP JUMPDEST PUSH1 0x40 MLOAD DUP1 SWAP2 SUB SWAP1 RETURN JUMPDEST PUSH1 0x1 DUP1 SLOAD PUSH2 0x1FB SWAP1 PUSH2 0xE1E JUMP JUMPDEST DUP1 PUSH1 0x1F ADD PUSH1 0x20 DUP1 SWAP2 DIV MUL PUSH1 0x20 ADD PUSH1 0x40 MLOAD SWAP1 DUP2 ADD PUSH1 0x40 MSTORE DUP1 SWAP3 SWAP2 SWAP1 DUP2 DUP2 MSTORE PUSH1 0x20 ADD DUP3 DUP1 SLOAD PUSH2 0x227 SWAP1 PUSH2 0xE1E JUMP JUMPDEST DUP1 ISZERO PUSH2 0x274 JUMPI DUP1 PUSH1 0x1F LT PUSH2 0x249 JUMPI PUSH2 0x100 DUP1 DUP4 SLOAD DIV MUL DUP4 MSTORE SWAP2 PUSH1 0x20 ADD SWAP2 PUSH2 0x274 JUMP JUMPDEST DUP3 ADD SWAP2 SWAP1 PUSH1 0x0 MSTORE PUSH1 0x20 PUSH1 0x0 KECCAK256 SWAP1 JUMPDEST DUP2 SLOAD DUP2 MSTORE SWAP1 PUSH1 0x1 ADD SWAP1 PUSH1 0x20 ADD DUP1 DUP4 GT PUSH2 0x257 JUMPI DUP3 SWAP1 SUB PUSH1 0x1F AND DUP3 ADD SWAP2 JUMPDEST POP POP POP POP POP DUP2 JUMP JUMPDEST PUSH1 0x0 DUP3 DUP5 DUP4 PUSH1 0x0 DUP2 GT ISZERO PUSH2 0x2C5 JUMPI PUSH1 0x40 MLOAD PUSH32 0x8C379A000000000000000000000000000000000000000000000000000000000 DUP2 MSTORE PUSH1 0x4 ADD PUSH2 0x2BC SWAP1 PUSH2 0xCC2 JUMP JUMPDEST PUSH1 0x40 MLOAD DUP1 SWAP2 SUB SWAP1 REVERT JUMPDEST DUP1 PUSH1 0x5 PUSH1 0x0 DUP5 PUSH20 0xFFFFFFFFFFFFFFFFFFFFFFFFFFFFFFFFFFFFFFFF AND PUSH20 0xFFFFFFFFFFFFFFFFFFFFFFFFFFFFFFFFFFFFFFFF AND DUP2 MSTORE PUSH1 0x20 ADD SWAP1 DUP2 MSTORE PUSH1 0x20 ADD PUSH1 0x0 KECCAK256 SLOAD LT PUSH2 0x346 JUMPI PUSH1 0x40 MLOAD PUSH32 0x8C379A000000000000000000000000000000000000000000000000000000000 DUP2 MSTORE PUSH1 0x4 ADD PUSH2 0x33D SWAP1 PUSH2 0xC82 JUMP JUMPDEST PUSH1 0x40 MLOAD DUP1 SWAP2 SUB SWAP1 REVERT JUMPDEST PUSH1 0x5 PUSH1 0x0 DUP5 PUSH20 0xFFFFFFFFFFFFFFFFFFFFFFFFFFFFFFFFFFFFFFFF AND PUSH20 0xFFFFFFFFFFFFFFFFFFFFFFFFFFFFFFFFFFFFFFFF AND DUP2 MSTORE PUSH1 0x20 ADD SWAP1 DUP2 MSTORE PUSH1 0x20 ADD PUSH1 0x0 KECCAK256 SLOAD DUP2 PUSH1 0x5 PUSH1 0x0 DUP7 PUSH20 0xFFFFFFFFFFFFFFFFFFFFFFFFFFFFFFFFFFFFFFFF AND PUSH20 0xFFFFFFFFFFFFFFFFFFFFFFFFFFFFFFFFFFFFFFFF AND DUP2 MSTORE PUSH1 0x20 ADD SWAP1 DUP2 MSTORE PUSH1 0x20 ADD PUSH1 0x0 KECCAK256 SLOAD PUSH2 0x3D1 SWAP2 SWAP1 PUSH2 0xD19 JUMP JUMPDEST LT PUSH2 0x411 JUMPI PUSH1 0x40 MLOAD PUSH32 0x8C379A000000000000000000000000000000000000000000000000000000000 DUP2 MSTORE PUSH1 0x4 ADD PUSH2 0x408 SWAP1 PUSH2 0xC62 JUMP JUMPDEST PUSH1 0x40 MLOAD DUP1 SWAP2 SUB SWAP1 REVERT JUMPDEST PUSH1 0x6 PUSH1 0x0 DUP4 PUSH20 0xFFFFFFFFFFFFFFFFFFFFFFFFFFFFFFFFFFFFFFFF AND PUSH20 0xFFFFFFFFFFFFFFFFFFFFFFFFFFFFFFFFFFFFFFFF AND DUP2 MSTORE PUSH1 0x20 ADD SWAP1 DUP2 MSTORE PUSH1 0x20 ADD PUSH1 0x0 KECCAK256 PUSH1 0x0 CALLER PUSH20 0xFFFFFFFFFFFFFFFFFFFFFFFFFFFFFFFFFFFFFFFF AND PUSH20 0xFFFFFFFFFFFFFFFFFFFFFFFFFFFFFFFFFFFFFFFF AND DUP2 MSTORE PUSH1 0x20 ADD SWAP1 DUP2 MSTORE PUSH1 0x20 ADD PUSH1 0x0 KECCAK256 SLOAD DUP2 GT PUSH2 0x4CF JUMPI PUSH1 0x40 MLOAD PUSH32 0x8C379A000000000000000000000000000000000000000000000000000000000 DUP2 MSTORE PUSH1 0x4 ADD PUSH2 0x4C6 SWAP1 PUSH2 0xCA2 JUMP JUMPDEST PUSH1 0x40 MLOAD DUP1 SWAP2 SUB SWAP1 REVERT JUMPDEST PUSH2 0x518 PUSH1 0x5 PUSH1 0x0 CALLER PUSH20 0xFFFFFFFFFFFFFFFFFFFFFFFFFFFFFFFFFFFFFFFF AND PUSH20 0xFFFFFFFFFFFFFFFFFFFFFFFFFFFFFFFFFFFFFFFF AND DUP2 MSTORE PUSH1 0x20 ADD SWAP1 DUP2 MSTORE PUSH1 0x20 ADD PUSH1 0x0 KECCAK256 SLOAD DUP7 PUSH2 0x98B JUMP JUMPDEST PUSH1 0x5 PUSH1 0x0 DUP10 PUSH20 0xFFFFFFFFFFFFFFFFFFFFFFFFFFFFFFFFFFFFFFFF AND PUSH20 0xFFFFFFFFFFFFFFFFFFFFFFFFFFFFFFFFFFFFFFFF AND DUP2 MSTORE PUSH1 0x20 ADD SWAP1 DUP2 MSTORE PUSH1 0x20 ADD PUSH1 0x0 KECCAK256 DUP2 SWAP1 SSTORE POP PUSH2 0x5A4 PUSH1 0x5 PUSH1 0x0 DUP9 PUSH20 0xFFFFFFFFFFFFFFFFFFFFFFFFFFFFFFFFFFFFFFFF AND PUSH20 0xFFFFFFFFFFFFFFFFFFFFFFFFFFFFFFFFFFFFFFFF AND DUP2 MSTORE PUSH1 0x20 ADD SWAP1 DUP2 MSTORE PUSH1 0x20 ADD PUSH1 0x0 KECCAK256 SLOAD DUP7 PUSH2 0x9AD JUMP JUMPDEST PUSH1 0x5 PUSH1 0x0 DUP9 PUSH20 0xFFFFFFFFFFFFFFFFFFFFFFFFFFFFFFFFFFFFFFFF AND PUSH20 0xFFFFFFFFFFFFFFFFFFFFFFFFFFFFFFFFFFFFFFFF AND DUP2 MSTORE PUSH1 0x20 ADD SWAP1 DUP2 MSTORE PUSH1 0x20 ADD PUSH1 0x0 KECCAK256 DUP2 SWAP1 SSTORE POP DUP6 PUSH20 0xFFFFFFFFFFFFFFFFFFFFFFFFFFFFFFFFFFFFFFFF AND DUP8 PUSH20 0xFFFFFFFFFFFFFFFFFFFFFFFFFFFFFFFFFFFFFFFF AND PUSH32 0xDDF252AD1BE2C89B69C2B068FC378DAA952BA7F163C4A11628F55A4DF523B3EF DUP8 PUSH1 0x40 MLOAD PUSH2 0x644 SWAP2 SWAP1 PUSH2 0xCE2 JUMP JUMPDEST PUSH1 0x40 MLOAD DUP1 SWAP2 SUB SWAP1 LOG3 PUSH1 0x1 SWAP4 POP POP POP POP SWAP4 SWAP3 POP POP POP JUMP JUMPDEST PUSH1 0x3 SLOAD DUP2 JUMP JUMPDEST PUSH1 0x6 PUSH1 0x20 MSTORE DUP2 PUSH1 0x0 MSTORE PUSH1 0x40 PUSH1 0x0 KECCAK256 PUSH1 0x20 MSTORE DUP1 PUSH1 0x0 MSTORE PUSH1 0x40 PUSH1 0x0 KECCAK256 PUSH1 0x0 SWAP2 POP SWAP2 POP POP SLOAD DUP2 JUMP JUMPDEST PUSH1 0x0 SLOAD DUP2 JUMP JUMPDEST PUSH1 0x0 PUSH1 0x4 PUSH1 0x0 SWAP1 SLOAD SWAP1 PUSH2 0x100 EXP SWAP1 DIV PUSH20 0xFFFFFFFFFFFFFFFFFFFFFFFFFFFFFFFFFFFFFFFF AND SWAP1 POP SWAP1 JUMP JUMPDEST PUSH1 0x2 DUP1 SLOAD PUSH2 0x6C2 SWAP1 PUSH2 0xE1E JUMP JUMPDEST DUP1 PUSH1 0x1F ADD PUSH1 0x20 DUP1 SWAP2 DIV MUL PUSH1 0x20 ADD PUSH1 0x40 MLOAD SWAP1 DUP2 ADD PUSH1 0x40 MSTORE DUP1 SWAP3 SWAP2 SWAP1 DUP2 DUP2 MSTORE PUSH1 0x20 ADD DUP3 DUP1 SLOAD PUSH2 0x6EE SWAP1 PUSH2 0xE1E JUMP JUMPDEST DUP1 ISZERO PUSH2 0x73B JUMPI DUP1 PUSH1 0x1F LT PUSH2 0x710 JUMPI PUSH2 0x100 DUP1 DUP4 SLOAD DIV MUL DUP4 MSTORE SWAP2 PUSH1 0x20 ADD SWAP2 PUSH2 0x73B JUMP JUMPDEST DUP3 ADD SWAP2 SWAP1 PUSH1 0x0 MSTORE PUSH1 0x20 PUSH1 0x0 KECCAK256 SWAP1 JUMPDEST DUP2 SLOAD DUP2 MSTORE SWAP1 PUSH1 0x1 ADD SWAP1 PUSH1 0x20 ADD DUP1 DUP4 GT PUSH2 0x71E JUMPI DUP3 SWAP1 SUB PUSH1 0x1F AND DUP3 ADD SWAP2 JUMPDEST POP POP POP POP POP DUP2 JUMP JUMPDEST PUSH1 0x0 DUP3 DUP3 PUSH1 0x0 DUP2 GT ISZERO PUSH2 0x755 JUMPI PUSH1 0x0 DUP1 REVERT JUMPDEST PUSH1 0x5 PUSH1 0x0 DUP4 PUSH20 0xFFFFFFFFFFFFFFFFFFFFFFFFFFFFFFFFFFFFFFFF AND PUSH20 0xFFFFFFFFFFFFFFFFFFFFFFFFFFFFFFFFFFFFFFFF AND DUP2 MSTORE PUSH1 0x20 ADD SWAP1 DUP2 MSTORE PUSH1 0x20 ADD PUSH1 0x0 KECCAK256 SLOAD DUP2 PUSH1 0x5 PUSH1 0x0 DUP6 PUSH20 0xFFFFFFFFFFFFFFFFFFFFFFFFFFFFFFFFFFFFFFFF AND PUSH20 0xFFFFFFFFFFFFFFFFFFFFFFFFFFFFFFFFFFFFFFFF AND DUP2 MSTORE PUSH1 0x20 ADD SWAP1 DUP2 MSTORE PUSH1 0x20 ADD PUSH1 0x0 KECCAK256 SLOAD PUSH2 0x7E0 SWAP2 SWAP1 PUSH2 0xD19 JUMP JUMPDEST LT PUSH2 0x7EA JUMPI PUSH1 0x0 DUP1 REVERT JUMPDEST PUSH2 0x833 PUSH1 0x5 PUSH1 0x0 CALLER PUSH20 0xFFFFFFFFFFFFFFFFFFFFFFFFFFFFFFFFFFFFFFFF AND PUSH20 0xFFFFFFFFFFFFFFFFFFFFFFFFFFFFFFFFFFFFFFFF AND DUP2 MSTORE PUSH1 0x20 ADD SWAP1 DUP2 MSTORE PUSH1 0x20 ADD PUSH1 0x0 KECCAK256 SLOAD DUP6 PUSH2 0x98B JUMP JUMPDEST PUSH1 0x5 PUSH1 0x0 CALLER PUSH20 0xFFFFFFFFFFFFFFFFFFFFFFFFFFFFFFFFFFFFFFFF AND PUSH20 0xFFFFFFFFFFFFFFFFFFFFFFFFFFFFFFFFFFFFFFFF AND DUP2 MSTORE PUSH1 0x20 ADD SWAP1 DUP2 MSTORE PUSH1 0x20 ADD PUSH1 0x0 KECCAK256 DUP2 SWAP1 SSTORE POP PUSH2 0x8BF PUSH1 0x5 PUSH1 0x0 DUP8 PUSH20 0xFFFFFFFFFFFFFFFFFFFFFFFFFFFFFFFFFFFFFFFF AND PUSH20 0xFFFFFFFFFFFFFFFFFFFFFFFFFFFFFFFFFFFFFFFF AND DUP2 MSTORE PUSH1 0x20 ADD SWAP1 DUP2 MSTORE PUSH1 0x20 ADD PUSH1 0x0 KECCAK256 SLOAD DUP6 PUSH2 0x9AD JUMP JUMPDEST PUSH1 0x5 PUSH1 0x0 DUP8 PUSH20 0xFFFFFFFFFFFFFFFFFFFFFFFFFFFFFFFFFFFFFFFF AND PUSH20 0xFFFFFFFFFFFFFFFFFFFFFFFFFFFFFFFFFFFFFFFF AND DUP2 MSTORE PUSH1 0x20 ADD SWAP1 DUP2 MSTORE PUSH1 0x20 ADD PUSH1 0x0 KECCAK256 DUP2 SWAP1 SSTORE POP DUP5 PUSH20 0xFFFFFFFFFFFFFFFFFFFFFFFFFFFFFFFFFFFFFFFF AND CALLER PUSH20 0xFFFFFFFFFFFFFFFFFFFFFFFFFFFFFFFFFFFFFFFF AND PUSH32 0xDDF252AD1BE2C89B69C2B068FC378DAA952BA7F163C4A11628F55A4DF523B3EF DUP7 PUSH1 0x40 MLOAD PUSH2 0x95F SWAP2 SWAP1 PUSH2 0xCE2 JUMP JUMPDEST PUSH1 0x40 MLOAD DUP1 SWAP2 SUB SWAP1 LOG3 PUSH1 0x1 SWAP3 POP POP POP SWAP3 SWAP2 POP POP JUMP JUMPDEST PUSH1 0x5 PUSH1 0x20 MSTORE DUP1 PUSH1 0x0 MSTORE PUSH1 0x40 PUSH1 0x0 KECCAK256 PUSH1 0x0 SWAP2 POP SWAP1 POP SLOAD DUP2 JUMP JUMPDEST PUSH1 0x0 PUSH2 0x999 DUP4 DUP4 GT ISZERO PUSH2 0x9E0 JUMP JUMPDEST DUP2 DUP4 PUSH2 0x9A5 SWAP2 SWAP1 PUSH2 0xD6F JUMP JUMPDEST SWAP1 POP SWAP3 SWAP2 POP POP JUMP JUMPDEST PUSH1 0x0 DUP1 DUP3 DUP5 PUSH2 0x9BC SWAP2 SWAP1 PUSH2 0xD19 JUMP JUMPDEST SWAP1 POP PUSH2 0x9D6 DUP5 DUP3 LT ISZERO DUP1 ISZERO PUSH2 0x9D1 JUMPI POP DUP4 DUP3 LT ISZERO JUMPDEST PUSH2 0x9E0 JUMP JUMPDEST DUP1 SWAP2 POP POP SWAP3 SWAP2 POP POP JUMP JUMPDEST DUP1 ISZERO PUSH2 0x9EB JUMPI PUSH1 0x0 DUP1 REVERT JUMPDEST POP JUMP JUMPDEST PUSH1 0x0 DUP2 CALLDATALOAD SWAP1 POP PUSH2 0x9FD DUP2 PUSH2 0xF68 JUMP JUMPDEST SWAP3 SWAP2 POP POP JUMP JUMPDEST PUSH1 0x0 DUP2 CALLDATALOAD SWAP1 POP PUSH2 0xA12 DUP2 PUSH2 0xF7F JUMP JUMPDEST SWAP3 SWAP2 POP POP JUMP JUMPDEST PUSH1 0x0 PUSH1 0x20 DUP3 DUP5 SUB SLT ISZERO PUSH2 0xA2E JUMPI PUSH2 0xA2D PUSH2 0xEAE JUMP JUMPDEST JUMPDEST PUSH1 0x0 PUSH2 0xA3C DUP5 DUP3 DUP6 ADD PUSH2 0x9EE JUMP JUMPDEST SWAP2 POP POP SWAP3 SWAP2 POP POP JUMP JUMPDEST PUSH1 0x0 DUP1 PUSH1 0x40 DUP4 DUP6 SUB SLT ISZERO PUSH2 0xA5C JUMPI PUSH2 0xA5B PUSH2 0xEAE JUMP JUMPDEST JUMPDEST PUSH1 0x0 PUSH2 0xA6A DUP6 DUP3 DUP7 ADD PUSH2 0x9EE JUMP JUMPDEST SWAP3 POP POP PUSH1 0x20 PUSH2 0xA7B DUP6 DUP3 DUP7 ADD PUSH2 0x9EE JUMP JUMPDEST SWAP2 POP POP SWAP3 POP SWAP3 SWAP1 POP JUMP JUMPDEST PUSH1 0x0 DUP1 PUSH1 0x0 PUSH1 0x60 DUP5 DUP7 SUB SLT ISZERO PUSH2 0xA9E JUMPI PUSH2 0xA9D PUSH2 0xEAE JUMP JUMPDEST JUMPDEST PUSH1 0x0 PUSH2 0xAAC DUP7 DUP3 DUP8 ADD PUSH2 0x9EE JUMP JUMPDEST SWAP4 POP POP PUSH1 0x20 PUSH2 0xABD DUP7 DUP3 DUP8 ADD PUSH2 0x9EE JUMP JUMPDEST SWAP3 POP POP PUSH1 0x40 PUSH2 0xACE DUP7 DUP3 DUP8 ADD PUSH2 0xA03 JUMP JUMPDEST SWAP2 POP POP SWAP3 POP SWAP3 POP SWAP3 JUMP JUMPDEST PUSH1 0x0 DUP1 PUSH1 0x40 DUP4 DUP6 SUB SLT ISZERO PUSH2 0xAEF JUMPI PUSH2 0xAEE PUSH2 0xEAE JUMP JUMPDEST JUMPDEST PUSH1 0x0 PUSH2 0xAFD DUP6 DUP3 DUP7 ADD PUSH2 0x9EE JUMP JUMPDEST SWAP3 POP POP PUSH1 0x20 PUSH2 0xB0E DUP6 DUP3 DUP7 ADD PUSH2 0xA03 JUMP JUMPDEST SWAP2 POP POP SWAP3 POP SWAP3 SWAP1 POP JUMP JUMPDEST PUSH2 0xB21 DUP2 PUSH2 0xDA3 JUMP JUMPDEST DUP3 MSTORE POP POP JUMP JUMPDEST PUSH2 0xB30 DUP2 PUSH2 0xDB5 JUMP JUMPDEST DUP3 MSTORE POP POP JUMP JUMPDEST PUSH1 0x0 PUSH2 0xB41 DUP3 PUSH2 0xCFD JUMP JUMPDEST PUSH2 0xB4B DUP2 DUP6 PUSH2 0xD08 JUMP JUMPDEST SWAP4 POP PUSH2 0xB5B DUP2 DUP6 PUSH1 0x20 DUP7 ADD PUSH2 0xDEB JUMP JUMPDEST PUSH2 0xB64 DUP2 PUSH2 0xEB3 JUMP JUMPDEST DUP5 ADD SWAP2 POP POP SWAP3 SWAP2 POP POP JUMP JUMPDEST PUSH1 0x0 PUSH2 0xB7C PUSH1 0x10 DUP4 PUSH2 0xD08 JUMP JUMPDEST SWAP2 POP PUSH2 0xB87 DUP3 PUSH2 0xEC4 JUMP JUMPDEST PUSH1 0x20 DUP3 ADD SWAP1 POP SWAP2 SWAP1 POP JUMP JUMPDEST PUSH1 0x0 PUSH2 0xB9F PUSH1 0x17 DUP4 PUSH2 0xD08 JUMP JUMPDEST SWAP2 POP PUSH2 0xBAA DUP3 PUSH2 0xEED JUMP JUMPDEST PUSH1 0x20 DUP3 ADD SWAP1 POP SWAP2 SWAP1 POP JUMP JUMPDEST PUSH1 0x0 PUSH2 0xBC2 PUSH1 0x19 DUP4 PUSH2 0xD08 JUMP JUMPDEST SWAP2 POP PUSH2 0xBCD DUP3 PUSH2 0xF16 JUMP JUMPDEST PUSH1 0x20 DUP3 ADD SWAP1 POP SWAP2 SWAP1 POP JUMP JUMPDEST PUSH1 0x0 PUSH2 0xBE5 PUSH1 0x15 DUP4 PUSH2 0xD08 JUMP JUMPDEST SWAP2 POP PUSH2 0xBF0 DUP3 PUSH2 0xF3F JUMP JUMPDEST PUSH1 0x20 DUP3 ADD SWAP1 POP SWAP2 SWAP1 POP JUMP JUMPDEST PUSH2 0xC04 DUP2 PUSH2 0xDE1 JUMP JUMPDEST DUP3 MSTORE POP POP JUMP JUMPDEST PUSH1 0x0 PUSH1 0x20 DUP3 ADD SWAP1 POP PUSH2 0xC1F PUSH1 0x0 DUP4 ADD DUP5 PUSH2 0xB18 JUMP JUMPDEST SWAP3 SWAP2 POP POP JUMP JUMPDEST PUSH1 0x0 PUSH1 0x20 DUP3 ADD SWAP1 POP PUSH2 0xC3A PUSH1 0x0 DUP4 ADD DUP5 PUSH2 0xB27 JUMP JUMPDEST SWAP3 SWAP2 POP POP JUMP JUMPDEST PUSH1 0x0 PUSH1 0x20 DUP3 ADD SWAP1 POP DUP2 DUP2 SUB PUSH1 0x0 DUP4 ADD MSTORE PUSH2 0xC5A DUP2 DUP5 PUSH2 0xB36 JUMP JUMPDEST SWAP1 POP SWAP3 SWAP2 POP POP JUMP JUMPDEST PUSH1 0x0 PUSH1 0x20 DUP3 ADD SWAP1 POP DUP2 DUP2 SUB PUSH1 0x0 DUP4 ADD MSTORE PUSH2 0xC7B DUP2 PUSH2 0xB6F JUMP JUMPDEST SWAP1 POP SWAP2 SWAP1 POP JUMP JUMPDEST PUSH1 0x0 PUSH1 0x20 DUP3 ADD SWAP1 POP DUP2 DUP2 SUB PUSH1 0x0 DUP4 ADD MSTORE PUSH2 0xC9B DUP2 PUSH2 0xB92 JUMP JUMPDEST SWAP1 POP SWAP2 SWAP1 POP JUMP JUMPDEST PUSH1 0x0 PUSH1 0x20 DUP3 ADD SWAP1 POP DUP2 DUP2 SUB PUSH1 0x0 DUP4 ADD MSTORE PUSH2 0xCBB DUP2 PUSH2 0xBB5 JUMP JUMPDEST SWAP1 POP SWAP2 SWAP1 POP JUMP JUMPDEST PUSH1 0x0 PUSH1 0x20 DUP3 ADD SWAP1 POP DUP2 DUP2 SUB PUSH1 0x0 DUP4 ADD MSTORE PUSH2 0xCDB DUP2 PUSH2 0xBD8 JUMP JUMPDEST SWAP1 POP SWAP2 SWAP1 POP JUMP JUMPDEST PUSH1 0x0 PUSH1 0x20 DUP3 ADD SWAP1 POP PUSH2 0xCF7 PUSH1 0x0 DUP4 ADD DUP5 PUSH2 0xBFB JUMP JUMPDEST SWAP3 SWAP2 POP POP JUMP JUMPDEST PUSH1 0x0 DUP2 MLOAD SWAP1 POP SWAP2 SWAP1 POP JUMP JUMPDEST PUSH1 0x0 DUP3 DUP3 MSTORE PUSH1 0x20 DUP3 ADD SWAP1 POP SWAP3 SWAP2 POP POP JUMP JUMPDEST PUSH1 0x0 PUSH2 0xD24 DUP3 PUSH2 0xDE1 JUMP JUMPDEST SWAP2 POP PUSH2 0xD2F DUP4 PUSH2 0xDE1 JUMP JUMPDEST SWAP3 POP DUP3 PUSH32 0xFFFFFFFFFFFFFFFFFFFFFFFFFFFFFFFFFFFFFFFFFFFFFFFFFFFFFFFFFFFFFFFF SUB DUP3 GT ISZERO PUSH2 0xD64 JUMPI PUSH2 0xD63 PUSH2 0xE50 JUMP JUMPDEST JUMPDEST DUP3 DUP3 ADD SWAP1 POP SWAP3 SWAP2 POP POP JUMP JUMPDEST PUSH1 0x0 PUSH2 0xD7A DUP3 PUSH2 0xDE1 JUMP JUMPDEST SWAP2 POP PUSH2 0xD85 DUP4 PUSH2 0xDE1 JUMP JUMPDEST SWAP3 POP DUP3 DUP3 LT ISZERO PUSH2 0xD98 JUMPI PUSH2 0xD97 PUSH2 0xE50 JUMP JUMPDEST JUMPDEST DUP3 DUP3 SUB SWAP1 POP SWAP3 SWAP2 POP POP JUMP JUMPDEST PUSH1 0x0 PUSH2 0xDAE DUP3 PUSH2 0xDC1 JUMP JUMPDEST SWAP1 POP SWAP2 SWAP1 POP JUMP JUMPDEST PUSH1 0x0 DUP2 ISZERO ISZERO SWAP1 POP SWAP2 SWAP1 POP JUMP JUMPDEST PUSH1 0x0 PUSH20 0xFFFFFFFFFFFFFFFFFFFFFFFFFFFFFFFFFFFFFFFF DUP3 AND SWAP1 POP SWAP2 SWAP1 POP JUMP JUMPDEST PUSH1 0x0 DUP2 SWAP1 POP SWAP2 SWAP1 POP JUMP JUMPDEST PUSH1 0x0 JUMPDEST DUP4 DUP2 LT ISZERO PUSH2 0xE09 JUMPI DUP1 DUP3 ADD MLOAD DUP2 DUP5 ADD MSTORE PUSH1 0x20 DUP2 ADD SWAP1 POP PUSH2 0xDEE JUMP JUMPDEST DUP4 DUP2 GT ISZERO PUSH2 0xE18 JUMPI PUSH1 0x0 DUP5 DUP5 ADD MSTORE JUMPDEST POP POP POP POP JUMP JUMPDEST PUSH1 0x0 PUSH1 0x2 DUP3 DIV SWAP1 POP PUSH1 0x1 DUP3 AND DUP1 PUSH2 0xE36 JUMPI PUSH1 0x7F DUP3 AND SWAP2 POP JUMPDEST PUSH1 0x20 DUP3 LT DUP2 EQ ISZERO PUSH2 0xE4A JUMPI PUSH2 0xE49 PUSH2 0xE7F JUMP JUMPDEST JUMPDEST POP SWAP2 SWAP1 POP JUMP JUMPDEST PUSH32 0x4E487B7100000000000000000000000000000000000000000000000000000000 PUSH1 0x0 MSTORE PUSH1 0x11 PUSH1 0x4 MSTORE PUSH1 0x24 PUSH1 0x0 REVERT JUMPDEST PUSH32 0x4E487B7100000000000000000000000000000000000000000000000000000000 PUSH1 0x0 MSTORE PUSH1 0x22 PUSH1 0x4 MSTORE PUSH1 0x24 PUSH1 0x0 REVERT JUMPDEST PUSH1 0x0 DUP1 REVERT JUMPDEST PUSH1 0x0 PUSH1 0x1F NOT PUSH1 0x1F DUP4 ADD AND SWAP1 POP SWAP2 SWAP1 POP JUMP JUMPDEST PUSH32 0x206F766572666C6F77204572726F722000000000000000000000000000000000 PUSH1 0x0 DUP3 ADD MSTORE POP JUMP JUMPDEST PUSH32 0x206E6F74206861766520656E6F756768206D6F6E657920000000000000000000 PUSH1 0x0 DUP3 ADD MSTORE POP JUMP JUMPDEST PUSH32 0x206920646F6E74206B6E6F77207768617473206572726F722000000000000000 PUSH1 0x0 DUP3 ADD MSTORE POP JUMP JUMPDEST PUSH32 0x2076616C75652063616E206E6F74206265203020200000000000000000000000 PUSH1 0x0 DUP3 ADD MSTORE POP JUMP JUMPDEST PUSH2 0xF71 DUP2 PUSH2 0xDA3 JUMP JUMPDEST DUP2 EQ PUSH2 0xF7C JUMPI PUSH1 0x0 DUP1 REVERT JUMPDEST POP JUMP JUMPDEST PUSH2 0xF88 DUP2 PUSH2 0xDE1 JUMP JUMPDEST DUP2 EQ PUSH2 0xF93 JUMPI PUSH1 0x0 DUP1 REVERT JUMPDEST POP JUMP INVALID LOG2 PUSH5 0x6970667358 0x22 SLT KECCAK256 PUSH12 0x6F6DC329F4A8BF75AC00065 PUSH28 0x17ECC7C73F58AE7B07B111EA2A6D42CC5FC964736F6C634300080700 CALLER "},"gasEstimates":{"creation":{"codeDepositCost":"222000","executionCost":"infinite","totalCost":"infinite"},"external":{"BuyToken(uint256)":"infinite","ownerToken()":"infinite"}},"methodIdentifiers":{"BuyToken(uint256)":"fcb0368c","ownerToken()":"65371883"}},"storageLayout":{"storage":[{"astId":5,"contract":"KIA.sol:KIA","label":"token","offset":0,"slot":"0","type":"t_contract(Token)449"}],"types":{"t_contract(Token)449":{"encoding":"inplace","label":"contract Token","numberOfBytes":"20"}}},"userdoc":{"kind":"user","methods":{},"version":1}}