{
  "contractName": "DecentralBank",
  "abi": [
    {
      "inputs": [
        {
          "internalType": "contract RWD",
          "name": "_rwd",
          "type": "address"
        },
        {
          "internalType": "contract Tether",
          "name": "_tether",
          "type": "address"
        }
      ],
      "stateMutability": "nonpayable",
      "type": "constructor"
    },
    {
      "inputs": [
        {
          "internalType": "address",
          "name": "",
          "type": "address"
        }
      ],
      "name": "hasStacked",
      "outputs": [
        {
          "internalType": "bool",
          "name": "",
          "type": "bool"
        }
      ],
      "stateMutability": "view",
      "type": "function"
    },
    {
      "inputs": [
        {
          "internalType": "address",
          "name": "",
          "type": "address"
        }
      ],
      "name": "isStacked",
      "outputs": [
        {
          "internalType": "bool",
          "name": "",
          "type": "bool"
        }
      ],
      "stateMutability": "view",
      "type": "function"
    },
    {
      "inputs": [],
      "name": "name",
      "outputs": [
        {
          "internalType": "string",
          "name": "",
          "type": "string"
        }
      ],
      "stateMutability": "view",
      "type": "function"
    },
    {
      "inputs": [],
      "name": "owner",
      "outputs": [
        {
          "internalType": "address",
          "name": "",
          "type": "address"
        }
      ],
      "stateMutability": "view",
      "type": "function"
    },
    {
      "inputs": [],
      "name": "rwd",
      "outputs": [
        {
          "internalType": "contract RWD",
          "name": "",
          "type": "address"
        }
      ],
      "stateMutability": "view",
      "type": "function"
    },
    {
      "inputs": [
        {
          "internalType": "uint256",
          "name": "",
          "type": "uint256"
        }
      ],
      "name": "stackers",
      "outputs": [
        {
          "internalType": "address",
          "name": "",
          "type": "address"
        }
      ],
      "stateMutability": "view",
      "type": "function"
    },
    {
      "inputs": [
        {
          "internalType": "address",
          "name": "",
          "type": "address"
        }
      ],
      "name": "stackingBalance",
      "outputs": [
        {
          "internalType": "uint256",
          "name": "",
          "type": "uint256"
        }
      ],
      "stateMutability": "view",
      "type": "function"
    },
    {
      "inputs": [],
      "name": "tether",
      "outputs": [
        {
          "internalType": "contract Tether",
          "name": "",
          "type": "address"
        }
      ],
      "stateMutability": "view",
      "type": "function"
    },
    {
      "inputs": [
        {
          "internalType": "uint256",
          "name": "_amount",
          "type": "uint256"
        }
      ],
      "name": "depositTokens",
      "outputs": [],
      "stateMutability": "nonpayable",
      "type": "function"
    },
    {
      "inputs": [],
      "name": "issuToken",
      "outputs": [],
      "stateMutability": "nonpayable",
      "type": "function"
    },
    {
      "inputs": [],
      "name": "unstakeTokens",
      "outputs": [],
      "stateMutability": "nonpayable",
      "type": "function"
    }
  ],
  "bytecode": "0x60806040526040518060400160405280600d81526020017f446563656e7472616c42616e6b00000000000000000000000000000000000000815250600090805190602001906200005192919062000150565b503480156200005f57600080fd5b506040516200144d3803806200144d83398181016040528101906200008591906200022e565b80600260006101000a81548173ffffffffffffffffffffffffffffffffffffffff021916908373ffffffffffffffffffffffffffffffffffffffff16021790555081600360006101000a81548173ffffffffffffffffffffffffffffffffffffffff021916908373ffffffffffffffffffffffffffffffffffffffff16021790555033600160006101000a81548173ffffffffffffffffffffffffffffffffffffffff021916908373ffffffffffffffffffffffffffffffffffffffff16021790555050506200036f565b8280546200015e90620002d1565b90600052602060002090601f016020900481019282620001825760008555620001ce565b82601f106200019d57805160ff1916838001178555620001ce565b82800160010185558215620001ce579182015b82811115620001cd578251825591602001919060010190620001b0565b5b509050620001dd9190620001e1565b5090565b5b80821115620001fc576000816000905550600101620001e2565b5090565b60008151905062000211816200033b565b92915050565b600081519050620002288162000355565b92915050565b6000806040838503121562000248576200024762000336565b5b6000620002588582860162000200565b92505060206200026b8582860162000217565b9150509250929050565b60006200028282620002b1565b9050919050565b6000620002968262000275565b9050919050565b6000620002aa8262000275565b9050919050565b600073ffffffffffffffffffffffffffffffffffffffff82169050919050565b60006002820490506001821680620002ea57607f821691505b6020821081141562000301576200030062000307565b5b50919050565b7f4e487b7100000000000000000000000000000000000000000000000000000000600052602260045260246000fd5b600080fd5b620003468162000289565b81146200035257600080fd5b50565b62000360816200029d565b81146200036c57600080fd5b50565b6110ce806200037f6000396000f3fe608060405234801561001057600080fd5b50600436106100a95760003560e01c8063781972891161007157806378197289146101425780638da5cb5b14610172578063a5ce413b14610190578063c03a033e1461019a578063dd49756e146101ca578063fb453e23146101e6576100a9565b806306fdde03146100ae5780631a8972d3146100cc57806332ac90cf146100ea5780635efc071a1461011a578063676c1b8b14610138575b600080fd5b6100b6610216565b6040516100c39190610cab565b60405180910390f35b6100d46102a4565b6040516100e19190610c75565b60405180910390f35b61010460048036038101906100ff9190610a8e565b6102ca565b6040516101119190610c5a565b60405180910390f35b6101226102ea565b60405161012f9190610c90565b60405180910390f35b610140610310565b005b61015c60048036038101906101579190610a8e565b6104de565b6040516101699190610d0d565b60405180910390f35b61017a6104f6565b6040516101879190610bdf565b60405180910390f35b61019861051c565b005b6101b460048036038101906101af9190610a8e565b6106f3565b6040516101c19190610c5a565b60405180910390f35b6101e460048036038101906101df9190610ae8565b610713565b005b61020060048036038101906101fb9190610ae8565b610a10565b60405161020d9190610bdf565b60405180910390f35b6000805461022390610e8e565b80601f016020809104026020016040519081016040528092919081815260200182805461024f90610e8e565b801561029c5780601f106102715761010080835404028352916020019161029c565b820191906000526020600020905b81548152906001019060200180831161027f57829003601f168201915b505050505081565b600360009054906101000a900473ffffffffffffffffffffffffffffffffffffffff1681565b60066020528060005260406000206000915054906101000a900460ff1681565b600260009054906101000a900473ffffffffffffffffffffffffffffffffffffffff1681565b600160009054906101000a900473ffffffffffffffffffffffffffffffffffffffff1673ffffffffffffffffffffffffffffffffffffffff163373ffffffffffffffffffffffffffffffffffffffff161461036a57600080fd5b60005b60048054905081116104db5760006004828154811061038f5761038e610f96565b5b9060005260206000200160009054906101000a900473ffffffffffffffffffffffffffffffffffffffff16905060006009600560008473ffffffffffffffffffffffffffffffffffffffff1673ffffffffffffffffffffffffffffffffffffffff1681526020019081526020016000205461040a9190610d9a565b905060008111156104c657600360009054906101000a900473ffffffffffffffffffffffffffffffffffffffff1673ffffffffffffffffffffffffffffffffffffffff1663a9059cbb83836040518363ffffffff1660e01b8152600401610472929190610c31565b602060405180830381600087803b15801561048c57600080fd5b505af11580156104a0573d6000803e3d6000fd5b505050506040513d601f19601f820116820180604052508101906104c49190610abb565b505b505080806104d390610ec0565b91505061036d565b50565b60056020528060005260406000206000915090505481565b600160009054906101000a900473ffffffffffffffffffffffffffffffffffffffff1681565b6000600560003373ffffffffffffffffffffffffffffffffffffffff1673ffffffffffffffffffffffffffffffffffffffff168152602001908152602001600020549050600081116105a3576040517f08c379a000000000000000000000000000000000000000000000000000000000815260040161059a90610ccd565b60405180910390fd5b600260009054906101000a900473ffffffffffffffffffffffffffffffffffffffff1673ffffffffffffffffffffffffffffffffffffffff1663a9059cbb33836040518363ffffffff1660e01b8152600401610600929190610c31565b602060405180830381600087803b15801561061a57600080fd5b505af115801561062e573d6000803e3d6000fd5b505050506040513d601f19601f820116820180604052508101906106529190610abb565b506000600560003373ffffffffffffffffffffffffffffffffffffffff1673ffffffffffffffffffffffffffffffffffffffff168152602001908152602001600020819055506000600760003373ffffffffffffffffffffffffffffffffffffffff1673ffffffffffffffffffffffffffffffffffffffff16815260200190815260200160002060006101000a81548160ff02191690831515021790555050565b60076020528060005260406000206000915054906101000a900460ff1681565b60008111610756576040517f08c379a000000000000000000000000000000000000000000000000000000000815260040161074d90610ced565b60405180910390fd5b600260009054906101000a900473ffffffffffffffffffffffffffffffffffffffff1673ffffffffffffffffffffffffffffffffffffffff166323b872dd3330846040518463ffffffff1660e01b81526004016107b593929190610bfa565b602060405180830381600087803b1580156107cf57600080fd5b505af11580156107e3573d6000803e3d6000fd5b505050506040513d601f19601f820116820180604052508101906108079190610abb565b5080600560003373ffffffffffffffffffffffffffffffffffffffff1673ffffffffffffffffffffffffffffffffffffffff168152602001908152602001600020546108539190610d44565b600560003373ffffffffffffffffffffffffffffffffffffffff1673ffffffffffffffffffffffffffffffffffffffff16815260200190815260200160002060008282546108a19190610d44565b92505081905550600660003373ffffffffffffffffffffffffffffffffffffffff1673ffffffffffffffffffffffffffffffffffffffff16815260200190815260200160002060009054906101000a900460ff1661095d576004339080600181540180825580915050600190039060005260206000200160009091909190916101000a81548173ffffffffffffffffffffffffffffffffffffffff021916908373ffffffffffffffffffffffffffffffffffffffff1602179055505b6001600760003373ffffffffffffffffffffffffffffffffffffffff1673ffffffffffffffffffffffffffffffffffffffff16815260200190815260200160002060006101000a81548160ff0219169083151502179055506001600660003373ffffffffffffffffffffffffffffffffffffffff1673ffffffffffffffffffffffffffffffffffffffff16815260200190815260200160002060006101000a81548160ff02191690831515021790555050565b60048181548110610a2057600080fd5b906000526020600020016000915054906101000a900473ffffffffffffffffffffffffffffffffffffffff1681565b600081359050610a5e81611053565b92915050565b600081519050610a738161106a565b92915050565b600081359050610a8881611081565b92915050565b600060208284031215610aa457610aa3610fc5565b5b6000610ab284828501610a4f565b91505092915050565b600060208284031215610ad157610ad0610fc5565b5b6000610adf84828501610a64565b91505092915050565b600060208284031215610afe57610afd610fc5565b5b6000610b0c84828501610a79565b91505092915050565b610b1e81610dcb565b82525050565b610b2d81610ddd565b82525050565b610b3c81610e13565b82525050565b610b4b81610e25565b82525050565b6000610b5c82610d28565b610b668185610d33565b9350610b76818560208601610e5b565b610b7f81610fca565b840191505092915050565b6000610b97602983610d33565b9150610ba282610fdb565b604082019050919050565b6000610bba601383610d33565b9150610bc58261102a565b602082019050919050565b610bd981610e09565b82525050565b6000602082019050610bf46000830184610b15565b92915050565b6000606082019050610c0f6000830186610b15565b610c1c6020830185610b15565b610c296040830184610bd0565b949350505050565b6000604082019050610c466000830185610b15565b610c536020830184610bd0565b9392505050565b6000602082019050610c6f6000830184610b24565b92915050565b6000602082019050610c8a6000830184610b33565b92915050565b6000602082019050610ca56000830184610b42565b92915050565b60006020820190508181036000830152610cc58184610b51565b905092915050565b60006020820190508181036000830152610ce681610b8a565b9050919050565b60006020820190508181036000830152610d0681610bad565b9050919050565b6000602082019050610d226000830184610bd0565b92915050565b600081519050919050565b600082825260208201905092915050565b6000610d4f82610e09565b9150610d5a83610e09565b9250827fffffffffffffffffffffffffffffffffffffffffffffffffffffffffffffffff03821115610d8f57610d8e610f09565b5b828201905092915050565b6000610da582610e09565b9150610db083610e09565b925082610dc057610dbf610f38565b5b828204905092915050565b6000610dd682610de9565b9050919050565b60008115159050919050565b600073ffffffffffffffffffffffffffffffffffffffff82169050919050565b6000819050919050565b6000610e1e82610e37565b9050919050565b6000610e3082610e37565b9050919050565b6000610e4282610e49565b9050919050565b6000610e5482610de9565b9050919050565b60005b83811015610e79578082015181840152602081019050610e5e565b83811115610e88576000848401525b50505050565b60006002820490506001821680610ea657607f821691505b60208210811415610eba57610eb9610f67565b5b50919050565b6000610ecb82610e09565b91507fffffffffffffffffffffffffffffffffffffffffffffffffffffffffffffffff821415610efe57610efd610f09565b5b600182019050919050565b7f4e487b7100000000000000000000000000000000000000000000000000000000600052601160045260246000fd5b7f4e487b7100000000000000000000000000000000000000000000000000000000600052601260045260246000fd5b7f4e487b7100000000000000000000000000000000000000000000000000000000600052602260045260246000fd5b7f4e487b7100000000000000000000000000000000000000000000000000000000600052603260045260246000fd5b600080fd5b6000601f19601f8301169050919050565b7f737461636b696e672062616c616e63652063616e6e6f74206265206c6573732060008201527f74616874207a65726f0000000000000000000000000000000000000000000000602082015250565b7f616d6f756e742063616e206e6f74206265203000000000000000000000000000600082015250565b61105c81610dcb565b811461106757600080fd5b50565b61107381610ddd565b811461107e57600080fd5b50565b61108a81610e09565b811461109557600080fd5b5056fea2646970667358221220c4e1bc6037eb63d342c4caca7dc8ce74f53708fff273b25f4a0b51141a230fbc64736f6c63430008070033",
  "immutableReferences": {},
  "source": "// SPDX-License-Identifier: MIT\r\npragma solidity 0.8.7;\r\n\r\nimport \"./RWD.sol\";\r\nimport \"./Tether.sol\";\r\n\r\ncontract DecentralBank {\r\n    string public name = \"DecentralBank\";\r\n    address public owner;\r\n    Tether public tether;\r\n    RWD public rwd;\r\n    address[] public stackers;\r\n    \r\n    mapping(address => uint256) public stackingBalance;\r\n    mapping(address => bool) public hasStacked;\r\n    mapping(address => bool) public isStacked;\r\n\r\n    constructor(RWD _rwd, Tether _tether) {\r\n        tether = _tether;\r\n        rwd = _rwd;\r\n        owner = msg.sender;\r\n    }\r\n\r\n    \r\n    // stacking \r\n    function depositTokens(uint256 _amount) public {\r\n        require(_amount > 0 ,\"amount can not be 0\");\r\n        tether.transferFrom(msg.sender, address(this), _amount);\r\n        // update stacking balance\r\n        stackingBalance[msg.sender] += stackingBalance[msg.sender] + _amount;\r\n\r\n        if(!hasStacked[msg.sender]) {\r\n            stackers.push(msg.sender);\r\n        }\r\n\r\n        // update stacking balance\r\n\r\n        isStacked[msg.sender] = true;\r\n        hasStacked[msg.sender] = true;\r\n\r\n    }\r\n\r\n\r\n    // owner Modifier\r\n    modifier redrictOwner() {\r\n        require(msg.sender == owner);\r\n        _;\r\n    }\r\n\r\n    // issue token\r\n    function issuToken() public  redrictOwner{\r\n\r\n        for(uint i=0 ; i <= stackers.length;i++)\r\n        {\r\n            address recipent = stackers[i];\r\n            uint balance = stackingBalance[recipent] / 9 ;\r\n            if(balance >0) {\r\n                rwd.transfer(recipent, balance);\r\n            }\r\n        }\r\n\r\n    }\r\n\r\n    // unstacke tokens\r\n    function unstakeTokens() public {\r\n        uint balance = stackingBalance[msg.sender];\r\n        require(balance >0,'stacking balance cannot be less taht zero');\r\n        tether.transfer(msg.sender, balance);\r\n        stackingBalance[msg.sender] =0;\r\n        isStacked[msg.sender] = false;\r\n    }\r\n}\r\n",
  "sourcePath": "C:\\Projects\\ETB\\Back\\src\\contracts\\DecentralBank.sol",
  "compiler": {
    "name": "solc",
    "version": "0.8.7+commit.e28d00a7.Emscripten.clang"
  },
  "schemaVersion": "3.4.3",
  "updatedAt": "2021-09-22T12:57:54.894Z",
  "devdoc": {
    "kind": "dev",
    "methods": {},
    "version": 1
  },
  "userdoc": {
    "kind": "user",
    "methods": {},
    "version": 1
  }
}